S01A000045455F3133385F4C61625F345F5461736B322E7372656360
S11300008020002009010000050100000501000016
S113001000000000000000000000000000000000DC
S113002000000000000000000000000005010000C6
S113003000000000000000000501000005010000B0
S11300400501000005010000050100000501000094
S1130050C9020000050100000501000005010000BF
S11300600501000005010000050100000501000074
S1130070050100000501000005010000FD0200006B
S11300800501000005010000050100000501000054
S11300900501000005010000050100000501000044
S11300A00501000010B5064C2378002B07D1054B41
S11300B0002B02D0044800E000BF0123237010BDD0
S11300C01000002000000000E0210000084B10B5E3
S11300D0002B03D00749084800E000BF0748036825
S11300E0002B00D110BD064B002BFBD09847F9E73D
S11300F00000000014000020E0210000E0210000C6
S113010000000000FEE7C04610B51D4B1D4A9A4290
S113011003D01D4B1A4A9A4204D31C4B1C4A9A42E0
S113012010D31EE01B4A184B03339B1A9B08013360
S11301309B000022124813498C58845004329A427E
S1130140FAD1EAE7144A114B03339B1A9B08013393
S11301509B0000220E4800211418216004329A42A8
S1130160FAD10E4AFF210E4B8B4393600D4A51681E
S113017080230B4353600C4B98470C4B9847FEE786
S113018000000020E0210000100000207C0000207E
S113019010000020040000201400002000ED00E006
S11301A00000000000400041F52000008907000025
S11301B010B5064B1A6802231373137EDB07FCD5B4
S11301C0508B80B2024B984710BDC0460C000020F3
S11301D0C51000007F22274B9A60002804D1403AC2
S11301E05A6101329A610FE0012805D1214B0622A0
S11301F05A6173329A610FE0022805D11D4B5B22CC
S11302005A61373A9A610FE0032805D1194B4F22FE
S11302105A611F3A9A610FE0042805D1154B6622F2
S11302205A614D3A9A610FE0052805D1114B92228B
S11302309A61253A5A610FE0062805D10D4B7D22BB
S11302405A617B3A9A610DE0072805D1094B0722D0
S11302505A6171329A610CE0082803D17F22054B60
S11302605A6106E0092804D1024B67225A614F3AC9
S11302709A61704780440041064A916940230B43C8
S11302809361054B03225A8059888022D2010A4384
S11302905A80704700040040000C0040094B0022C3
S11302A01A70DA68802149000A43DA60DA69F93998
S11302B08A4306390A43DA61197802220A431A701A
S11302C07047C04600180040094B1B6A5B0404D504
S11302D0084A1368013B136003E0064A13680133BC
S11302E01360054A1369802149000B431361704769
S11302F0804400413000002000180040F0B557460B
S11303004E464546E0B482B02F4B1B68002B05DAFD
S11303102D4B1B685B422D4A136003E02A4B1A687D
S11303202A4B1A60294D2868294B9847294C0022EA
S1130330294BA047294B98469847294B1860294BCD
S11303401860002220490A602A601B68264E336028
S1130350264F3868264D2B689A46264B994698476F
S1130360254A264BA047009001915046C847244A8D
S1130370244BA04702000B0000980199224CA0478F
S1130380C047224B18601A683A6032682A601868BD
S11303901F4B98471F4B18601F4B1C68E3795BB2D7
S11303A0002BFBDB194B18681C4B984780B2A081CB
S11303B01B4B1A68917B01230B43937302B01CBC43
S11303C090469946A246F0BD300000202C00002043
S11303D0A11C0000AD17000000003E40CD1D000030
S11303E0500000204C000020740000207800002001
S11303F05C000020251D000017B7D100DE02EF3F8E
S11304005C72DC291DAC9F3F551100006800002080
S11304108110000034000020080000201D0B0000A3
S113042004000020024A136802490B43136070471A
S113043000E100E01080000030B5144B5720195C37
S11304400122114319543B215C5C48380F252C4090
S113045050252C435C5456255C5D14435C555C5C10
S1130460844305252C435C545C24195D11431955C0
S11304701E3C195D814319551900CE310C78224375
S11304800A70B7331A7882431A7030BD00440041B1
S1130490074A136A8021C9000B431362054B1422D7
S11304A05A8059888022D2010A435A807047C04634
S11304B000040040000C0040074A136A80214901EF
S11304C00B431362054B15225A8059888022D201AE
S11304D00A435A807047C04600040040000C0040A4
S11304E010B5164B9847164B186802880C218A439E
S11304F004210A43028019680888124A0240C02075
S1130500C00002430A80196808880F4A024080200C
S1130510400102430A801868028860218A4340210E
S11305200A4302801B689C221A75597B01220A43E4
S11305305A73198802220A431A8010BD91040000DC
S113054004000020FFF8FFFFFFCFFFFF10B5144B9E
S11305509847144B186802880C218A4304210A43E3
S1130560028019680888104A024080204000024333
S11305700A80196808880D4A02408020400102431D
S11305800A801868028860218A4340210A43028055
S11305901B68FF221A751988FD3A0A431A8010BD98
S11305A0B904000000000020FFF8FFFFFFCFFFFFA9
S11305B0074A136A802149020B431362054B172231
S11305C05A8059888022D2010A435A807047C04613
S11305D000040040000C004030B51E4B0022196896
S11305E00A7002201968487019688A700132196803
S11305F0CA701B689988184A0A40802149000A4336
S11306009A809A88D0398A439A801A6911398A4320
S11306100C390A431A611969104A0A40C021490178
S11306200A431A611A69F02109050A431A610C4A3E
S11306303525515D0F2421401024214351554B246D
S1130640155D012129431155802189019160916132
S1130650187030BD0C000020FFF8FFFFFFE0FFFF23
S113066000440041074A136A8021C9020B43136204
S1130670054B1A225A8059888022D2010A435A8093
S11306807047C04600040040000C004010B5164BF3
S11306904220195C0122114319541138195C0F24AA
S11306A0A1430A431A54114B002219680A701A68AC
S11306B0D3795BB2002BFBDB53783F210B40402105
S11306C00B435370094B1A68D3795BB2002BFBDBE5
S11306D0117802230B431370044B1A6851780123D9
S11306E00B43537010BDC046004400410800002075
S11306F00022074B1A60FA239B005843002806DDAA
S11307000200002301339A42FCD1014B1860704768
S11307106C000020164BC222D2009A6015494A6828
S11307201E2082434A601A6A40218A4340310A43A8
S113073011490A401A62196A02220A431A620F4BCB
S113074000221A725A729A72DA72996908320A434A
S11307509A6101220A4B1A7019000B781342FCD1DA
S1130760074B802252009A60064A5A607047C0467E
S11307700008004000400041FFFCFFFF000400406F
S1130780000C004000060300F8B55F4656464D468F
S11307904446F0B44E4B98474E4B98474E4B9847BF
S11307A04E4B98474E4B98474E4B98474E4B984765
S11307B04E4B98474E4B98474E4B98474E4B984755
S11307C000234E4A13604E4A13604E4A13604E4A49
S11307D013604E4BF0229A608033713A9A604C4B0E
S11307E098474C4CE6218905A0474B49A0474B4B01
S11307F098474B4B18600300153BD52B06D8494B43
S11308001A68C0B2C343DBB213765076464B1B68FA
S1130810464F3B603D4D802398466B61103BAB6176
S113082010339B46AB445B4642465A613868404E9F
S1130830FA218900B0473F4CE0603F4B9A46984705
S113084005203E4B9946984740236B617033AB615A
S11308505B4642469A613B683948E2685043C01897
S11308606421B047A060D0470520C84720236B61AE
S1130870B033AB615B4642469A613B683048E268FC
S11308805043C01864235B42A2685343C0180A2132
S1130890B0476060D0470520C84710236B61D03350
S11308A0AB615B4642469A613B682548E268504327
S11308B0C01864267642A3685E4380190A235B420B
S11308C062685343C0182060D0470520C84786E7B4
S11308D01507000039040000E10400004D05000084
S11308E0B1050000D9050000650600008D06000072
S11308F0790200009D020000250400005C00002035
S113090074000020780000206800002000440041AA
S1130910B10100004D0B000000007F438110000076
S11309206400002000000020340000204800002063
S11309304509000038000020D5010000F106000040
S113094018FCFFFF03460B437FD4002243088B426D
S113095074D303098B425FD3030A8B4244D3030B42
S11309608B4228D3030C8B420DD3FF22090212BA07
S1130970030C8B4202D31212090265D0030B8B4283
S113098019D300E0090AC30B8B4201D3CB03C01A6D
S11309905241830B8B4201D38B03C01A5241430B48
S11309A08B4201D34B03C01A5241030B8B4201D338
S11309B00B03C01A5241C30A8B4201D3CB02C01AA3
S11309C05241830A8B4201D38B02C01A5241430A1B
S11309D08B4201D34B02C01A5241030A8B4201D30A
S11309E00B02C01A5241CDD2C3098B4201D3CB01B1
S11309F0C01A524183098B4201D38B01C01A524160
S1130A0043098B4201D34B01C01A524103098B4263
S1130A1001D30B01C01A5241C3088B4201D3CB004E
S1130A20C01A524183088B4201D38B00C01A524131
S1130A3043088B4201D34B00C01A5241411A00D2E1
S1130A4001465241104670475DE0CA0F00D049424A
S1130A50031000D34042534000229C4603098B42BA
S1130A602DD3030A8B4212D3FC22890112BA030A42
S1130A708B420CD3890192118B4208D389019211C4
S1130A808B4204D389013AD0921100E08909C30949
S1130A908B4201D3CB01C01A524183098B4201D34B
S1130AA08B01C01A524143098B4201D34B01C01A36
S1130AB0524103098B4201D30B01C01A5241C308AE
S1130AC08B4201D3CB00C01A524183088B4201D31D
S1130AD08B00C01A5241D9D243088B4201D34B0038
S1130AE0C01A5241411A00D20146634652415B107A
S1130AF0104601D34042002B00D54942704763465B
S1130B005B1000D3404201B5002000F005F802BD9F
S1130B100029F8D016E770477047C0469E2110B5EB
S1130B20C905041C01F00EFA002803D1201C00F0B2
S1130B30A7FA10BD9E21201CC90500F01BF900F086
S1130B409FFA80231B069C466044F2E7F0B55746A3
S1130B504E4645464300E0B446028846760A1F0ED8
S1130B60C40F002F47D0FF2F25D0002380259A469D
S1130B709946F600ED042E437F3F434642465D020C
S1130B80D20F5B006D0A1B0E904640D0FF2B39D06C
S1130B9080220020ED00D20415437F3BFB1842461F
S1130BA05746591C62408C4607430F2F5CD86F4947
S1130BB0BF00C9598F46002E45D108239A46063BEB
S1130BC09946DAE7424602282DD0032800D1C3E033
S1130BD0012800D0A2E0002500260240D4B276020B
S1130BE0ED05760A2E43E407264330001CBC9046EC
S1130BF09946A246F0BD002E1AD104239A46033B1F
S1130C009946BAE72A00511E8A41901CC6E7012082
S1130C10002DC3D0280001F09FF9431F76309D407A
S1130C2043420020BAE70124FF2514400026D6E7FA
S1130C30300001F091F9431F9E4000237630474273
S1130C409A46994699E70C239A46093B994694E7B4
S1130C5080260024F603FF25C1E735004846B2E7A5
S1130C60350022004846AEE72904090C0800370C79
S1130C703604360C2C0C7943704367437443060CDA
S1130C8064183619B14203D9802149028846474481
S1130C900004000C310409188D01681E8541890E79
S1130CA02943350CED19AD010D43290104D5012368
S1130CB069081D4063460D4319007F31002925DD75
S1130CC0680704D00F202840042800D004352801E8
S1130CD003D5274980330D401900FE29A3DC0124E4
S1130CE0AD016E0A1440CDB279E78020C0030642FC
S1130CF007D0054205D128434602760A4446FF251B
S1130D006DE706437602760AFF2568E70124611A37
S1130D101B2905DD14400025002660E76346CBE768
S1130D202E002023CE40591A8D406B1E9D412E4328
S1130D30730704D00F233340042B00D0043673010F
S1130D4004D5012401251440002648E70124B601F6
S1130D50760A1440002542E780260124F6032E4338
S1130D607602760A1440FF2539E7C0464021000088
S1130D70FFFFFFF7F8B54A024E0043024400240E79
S1130D80C50F9B09360EC90F9209FF2E00D183E0CF
S1130D9001204140A01BA9425CD0002800DC95E062
S1130DA0002E1CD1002A00D081E05A0704D00F2263
S1130DB01A40042A00D004335A013BD50134FF2CD5
S1130DC000D191E001209B015B0AE4B205405B0283
S1130DD0E4055B0AED0723432B431800F8BDFF2C01
S1130DE0E3D08021C9040A431B2800DD90E01600EB
S1130DF02021C640081A8240511E8A4132439B1A60
S1130E005A0115D59B019E09300001F0A5F805385B
S1130E10864084426CDC041B330020200134E34010
S1130E20041BA640721E964100243343BDE70D0007
S1130E305A07BCD1DF0801231D40FF2C33D1002FFA
S1130E4000D190E08022D20313003B435B025B0A93
S1130E50FF24BCE700284FDD002E2ED0FF2CA4D0A9
S1130E608025ED042A431B2800DD97E01600202589
S1130E70C640281A8240501E824132439B185A01B0
S1130E80D5D50134FF2C6DD001227B481A405B0874
S1130E90034013430D0088E7002A00D07AE777E780
S1130EA0031EC5D100257B025B0AE4B28FE701383B
S1130EB00028A4D0FF2C97D177E7002A00D174E74B
S1130EC001380028DAD0FF2CCDD16EE7002821D1DB
S1130ED0601CC0B2012858DD80279E1AFF043740E9
S1130EE02FD0D61A0D008FE701231D4000236EE793
S1130EF0624B241A334058E7002851D1601CC6B213
S1130F00012E33DDFF282DD09B185B0804004CE72D
S1130F10012274E7002C1AD0FF2E1FD08024E40491
S1130F20404223431B2800DD96E01D002024C540D9
S1130F30201A8340581E83412B43D31A34000D00DA
S1130F405EE7002E00D05FE700250024ABE7002B0E
S1130F5044D0C0430028F0D0FF2EE3D11300FF2477
S1130F600D0022E70D00FF24002330E7002C5DD1A3
S1130F70002B7DD0002A00D117E79B185A0100D41A
S1130F8056E73E4A040013400FE7002C1ED1002B05
S1130F902FD1002A65D013000D0006E701226DE76A
S1130FA0002C1FD1002B59D0C04300280BD0FF2E9A
S1130FB04FD01B285EDC1D002024C540201A83402E
S1130FC0581E83412B439B18340058E7002B1CD137
S1130FD0002A49D013000D00FF24E6E61300340074
S1130FE00D00E2E6FF2E34D08024E4044042234383
S1130FF0DFE7002A00D1D8E68027981AFF040740CB
S113100000D14DE7D31A0D00CFE6FF24002A00D10A
S1131010CBE68020DB08C003034204D0D20802429E
S113102001D113000D00DB00FF24BEE6002B10D01D
S1131030FF24002A00D1B8E68020DB08C003034265
S113104003D0D208024200D11300DB000D00FF24BC
S1131050ABE61300FF24A8E601236EE71300340077
S1131060A3E6002700251EE780270025FF03E9E605
S113107013009AE60123A6E7FFFFFF7DFFFFFFFBB6
S11310804302590A4300C20F1B0E00207E2B0EDDC3
S11310909D2B0DDC802000040143952B0BDC962056
S11310A0C31AD9400B005842002A00D118007047D7
S11310B0034BD018FBE7963B99400B00F3E7C0467F
S11310C0FFFFFF7F70B5002830D0C317C5185D40FF
S11310D0C40F280000F040FF9E231B1A962B0DDC42
S11310E09622D21A95406A02520AD8B25202C00518
S11310F0520AE40702432243100070BD992B19DC05
S11311009922D21A9540124A2A40690704D00F2125
S11311100D40042D00D00432510103D50C4B1A406C
S11311209F231B1A9201520AD8B2DFE70024002041
S11311300022DBE705222E00121AB921D6402A002C
S1131140C91A8A40551EAA4135001543DBE7C0463B
S1131150FFFFFFFBF8B556465F464D464446F0B4E4
S11311600F00FD0FAA4609037C002E005F00450F07
S1131170490A7F0D2943C5001803BC46400A570F8E
S1131180640DDB0F3843D2009A4500D1AAE06646CD
S1131190A61B002E00DCFFE06346002B39D10300C0
S11311A0134300D0D9E06B0709D00F232B40042B45
S11311B005D02B1DAB42AD416D4249191D000B02F8
S11311C000D482E0CA4B01349C4200D1FEE00A0004
S11311D05646C84BED081A405007640552020543B1
S11311E0120B640D002112030B0D1B056405120B79
S11311F01A436308C04CF60714401C436400640897
S11312003443280021003CBC90469946A246AB4694
S1131210F8BDB74B9C42C6D080231B041843382E1C
S113122000DDEBE01F2E00DD1EE120239B1B9C460E
S113123003006746BB40984613004746F3403B43D0
S11312406746BA40571EBA4113430200F240EB1AF4
S11312509D42B6411D008A1A7642911B0B0231D57C
S11312604A02560A002E00D1B4E0300000F074FEA9
S11312700300083B1F2B00DDB5E020222900D21A11
S1131280D1409E400A009D4032439C4200DDB1E0C3
S11312901C1B631C1F2B00DDD5E02021140028003B
S11312A0C91A8C40D8408D400443DA40681E8541F9
S11312B011002543002476E74146314300D134E24E
S11312C0310045466B0700D06FE756464807ED08E6
S11312D0C9080543864B9C4235D00A036405120BAA
S11312E0640D7FE76346E31A9B46002B00DC8BE02A
S11312F06746002F3CD07E4FBC4200D153E7802785
S11313003F0438435B46382B00DCF7E00243501EB1
S113131082410020D2B253194218AB4289411D00C8
S1131320494289180B02CDD5714B01349C4200D13E
S11313303DE101206F4A6B080A4028401843D50755
S1131340054351082FE72B000B4300D1CBE1802349
S11313501B030B431A03120B44E7013E002E6DD10D
S1131360AE1AB5429B41091A5B42C91A350075E7AA
S11313700700174300D116E701235B429C46E34470
S11313805B46002B00D0E0E0AA18AA429B41091852
S11313905B4259181500C5E7002E75D1661C760509
S11313A0760D012E00DCF3E0AE1AB0464545BF4190
S11313B00E1A7F42F61B370200D48FE0551BAA4257
S11313C0B641411A76428E1B9A464BE75646002296
S11313D0002507E7280000F0BFFD20300300083B8C
S11313E01F2B00DC49E72A002838824000259C4254
S11313F000DC4DE73F49E41A1140D4E60243501E95
S11314008241D3B2002222E7002B00D0F3E0631C18
S11314109C465B055B0D012B00DC9FE0344B9C4537
S113142000D1C3E0AA180918AA42804140424118D9
S1131430CD075208154349086446B4E62C4B9C4238
S113144000D0ECE6AFE611001F3CE1400C00202B7D
S113145000D17FE04021CB1A9A4015436A1E954182
S11314600021254300242DE733000700203BDF4003
S11314703B00202E70D04027BE1BB0400243501EBC
S1131480824113430022E2E6002C4FD0184CA445BD
S113149000D1ABE08024240476422143382E00DDC1
S11314A0DFE01F2E00DD43E12027BC1BA1460C001A
S11314B04F46BC40A0462C004746F4403C434F46B0
S11314C0BD406F1EBD41F1402C43151BAA42924101
S11314D0411A5242891A64469A46BFE64146454635
S11314E0314300D0BEE6002600240025F2E6C046C3
S11314F0FF070000FFFF7FFFFFFF0F801F2B59DC5A
S11315002027FF1ABC46070063469F405B46B94646
S11315101700DF40B8464F4643461F4363469A4090
S1131520531E9A415B463A43D840F4E60C002C43E0
S11315305CD0F643002E55D1551BAA42A441411A52
S11315406442091B9A46644688E6964FBC4200D022
S1131550D8E628E6002280E700208FE70B002B4323
S1131560002C00D0C2E0002B00D101E103001343A2
S113157000D118E6AB18AB42B6410918764271188F
S11315800A0200D409E1884A1D00114064460AE6B3
S1131590002C5BD10E002E4300D08AE001001143E1
S11315A000D1C2E0010015009A46FCE56446002122
S11315B000258FE620235B429C46DC4463460700FB
S11315C0DF405B46BC46202B00D1ACE040235F46A5
S11315D0DB1B98400243501E8241634613431A00AA
S11315E0002098E66F4CA44500D057E70100150091
S11315F064469A46D7E5002C39D10C002C436ED0B2
S1131600DB43002B1AD0674CA44568D0382B00DD8F
S1131610A4E01F2B00DDAEE020240F00E41AA74055
S1131620B9462F00DF40B846A3464F4644462743F9
S11316305C46A5406C1EA541D9403D43AD1895427A
S11316409B4109185B42591864466BE60C002C4315
S113165015D1010011437BD0010015009A46514C6D
S1131660A1E50D43691E8D410021ECB22DE74D4CDF
S1131670A44534D0802424045B422143C6E70400FB
S113168014434ED0ED084C072C438025C9082D0384
S1131690294208D0C6082E4205D1D2084107114379
S11316A00C009A463100620FC900E50011433D4C1D
S11316B079E50600164300D175E5AE1AB0464545F6
S11316C0BF410E1A7F42F61B370200D4F4E5551BC6
S11316D0AA42B641411A7642891B9A4663E5010043
S11316E0150064465FE5002200257BE5002B3BD016
S11316F00300134315D0ED084B072B438025C9087D
S11317002D03294207D0C4082C4204D141070B0001
S11317102100D2081343C9005A0F1143DD00214CA4
S113172041E5204C3FE5002054E700260025D1E5A3
S113173034000F00203CE7403C00202E2BD04027F3
S1131740BE1BB1400D43691E8D4100212C43BCE6F4
S1131750802100260903134C0025BBE50D43691EB7
S11317608D410021EDB269E7010015000D4C1AE529
S11317700100150017E51C000F00203CE7403C0069
S1131780202B0CD04027FB1A99400D43691E8D4134
S11317900021254352E70021D4E71D0092E50021F2
S11317A0F3E7C046FF070000FFFF7FFFF0B55F4689
S11317B056464D464446F0B40D0399464E002B0B55
S11317C087B00700924680469B46760DCC0F002ECC
S11317D069D06D4B9E4235D05B468022DD001204F9
S11317E0430F13432B439B46C3009846674B002784
S11317F09C460023664401934A4615035000D20FC9
S113180053462D0B400D914600D176E05E4A90423E
S11318106CD080225B0F120413435C4AED009446A3
S11318201D4353460022DB00604449463618701CB1
S11318306140029017430F2F00D9AFE05448BF0016
S1131840C759BF465B461F4300D088E000239B4630
S11318509846023308270193CEE74946022A6AD004
S1131860032A00D109E2012A00D0BBE11140002281
S1131870002300259046CCB200212D030A0D120549
S11318802D0B1543434A1B0515401D436D00E4070A
S11318906D0825434046290007B03CBC9046994654
S11318A0A246AB46F0BD034352D05B46002B00D1A9
S11318B08AE1584600F050FB03000B3B1C2B00DD73
S11318C07BE11D22D31A3A0001005D46DA40083953
S11318D08D4013008F402B439B46B8462E4B002768
S11318E09C46002360444642019385E752462A43BE
S11318F02CD100250023022297E752462A4321D007
S1131900002D00D154E1280000F026FB03000B3B1E
S11319101C2B00DD46E11D21CB1A51460200D940A3
S11319205346083A954093400D431B4A94466044FD
S11319304042002279E7012400220C40124B00258A
S1131940904699E70025002301226EE703226CE705
S113195000239B4698460133042701934CE7032355
S11319600C27019348E700238025984600242D0383
S1131970054B81E75D464346019A6FE75D46434662
S11319802100019A6AE7C046FF07000001FCFFFF3F
S113199080210000FFFF0F80F30300004246120C79
S11319A091461A0C9446424617044A461B041B0CE3
S11319B05A43604690464A464243100003926246A8
S11319C01C003F0C7A437C4342440192220C924611
S11319D0019A5244904506D98246802040028046AE
S11319E0C24450460390100C049048462404240C2E
S11319F01204121905922A0C2D042D0C68432C0094
S1131A00824648467C4350438146200C80465743D7
S1131A1057444744BA4503D9802040028046C14414
S1131A20380C3F04B84648442404240C019004981C
S1131A30A044404404905846000C8146584604048F
S1131A40200C8246070048465F434C4643436046A9
S1131A5060436446834650464443380C8446E41845
S1131A606444A34203D980235B029C46E344484672
S1131A703F04230C3F0C2404E419574668436F4386
S1131A8084464D46504655434243380C8146624491
S1131A904A445B44944503D980204002844665440B
S1131AA003983F04834604983F0C8446E344C345AB
S1131AB0804140428246100484460198674484462B
S1131AC06744A344BC46A345A4419946D444644214
S1131AD08742BF41D4458041E144A04699459B419A
S1131AE07F424042C8440743120CBA18A045A4419F
S1131AF05F423B0064422343D71843467D19DB0D04
S1131B006D021D435B465A02059B1A43531E9A41BC
S1131B105B46DB0D1A4343465B021343EA0107D5D8
S1131B2001225C0813402343EA07029E13436D0815
S1131B30574AB218002A4BDD580709D00F20184025
S1131B40042805D0181D98429B415B42ED18030000
S1131B50E80104D54F4A15408022D200B2184E48FD
S1131B60824200DDE7E60124DB08680718436D02C2
S1131B70530580462D0B5B0D0C407DE680225946B3
S1131B801203114208D0154206D115432D0398467D
S1131B902D0B4C46414B6FE65D4615432D032D0B33
S1131BA03E4B69E603005546283B9D400023BCE6B6
S1131BB0504600F0D1F92030A8E60300283B9F40AE
S1131BC00023BB46984689E600F0C6F9203073E648
S1131BD00124A61A382E07DD00220C40002300251C
S1131BE0904649E6029EA3E71F2E20DC20222C000B
S1131BF01800921BF040944093400443581E8341C4
S1131C001C43F540630709D00F232340042B05D060
S1131C1023001C1D9C4292415242AD182B021FD539
S1131C20012400220C4001230025904624E61F20B5
S1131C302C004042821AD440202E1CD04022961BF5
S1131C40B5402B43581E83410720234318400025E9
S1131C50002809D00F2200251A401C00042AD8D1DC
S1131C60230068076D022D0B0124DB08034398460B
S1131C700C40002300E60025E3E780220124120340
S1131C8015432D0398462D0B0C40044BF4E5C04638
S1131C90FF030000FFFFFFFEFE070000FF07000038
S1131CA070B5002830D0C317C4185C40C50F20009D
S1131CB000F052F9174B184A1B1AD21A1F2A18DDC2
S1131CC0164AD21A9440002224035B05240B5B0DB0
S1131CD00021100024030A0D1205240B1443104A9A
S1131CE01B0514401C436400ED0764082C432100C9
S1131CF070BD210091400A000B21081AC4405B0505
S1131D002403240B5B0DE3E70025002300240022B9
S1131D10DEE7C0461E040000330400001304000084
S1131D20FFFF0F804200120E511C4302C9B270B56E
S1131D305D0AC40F012915DDE02189008C466D0779
S1131D401B0B6244002128000D0D2D052B431C4D57
S1131D5052052B40520813435B00E4075B082343FE
S1131D60190070BD002A15D1002D1FD0280000F0E5
S1131D70F3F80A281DDC0B232A001B1ADA4013008F
S1131D800200153295400F4A1B03121A52051B0B11
S1131D90520DD7E7002D06D080221B0B12031343EC
S1131DA06D07094ACEE7084A0023CBE70022002347
S1131DB0C8E703000B3B9D402B000025E3E7C0462A
S1131DC0FFFF0F8089030000FF0700004B0070B580
S1131DD05E0D0C03751C640A420F6D052243C90F86
S1131DE0C4006D0D012D2ADD3B4BF318FE2B1ADCCC
S1131DF0002B42DD8001451EA841D2001043620F32
S1131E000243500704D00F201040042800D00432AD
S1131E108020C004104021D00133FF2B03D0920155
S1131E20520ADBB201E0FF2300225202520ADB0510
S1131E3013435B00C9075B080B43180070BD002EF9
S1131E4007D01443EFD08020D20080040243FF2344
S1131E50D7E722430023002A03D00522D208FF2B10
S1131E6003D05202520ADBB2DFE7002A32D08020CC
S1131E70C00302435202520AD7E71800173014DB9A
S1131E808020000402431E20C01A1F280FDC2500F6
S1131E90124BF3189D406E1EB5419A402B0013431C
S1131EA02200C2401A430023ABE70023D5E70225F2
S1131EB06D42EB1A1500DD40202809D0084BF318B9
S1131EC09A401443621E9441220000232A4398E757
S1131ED00022F6E70022A8E780FCFFFF82FCFFFF58
S1131EE0A2FCFFFF8446081C6146FFE71FB500F013
S1131EF0BDF8002801D40021C8421FBD10B500F070
S1131F0049F84042013010BD10B500F0AFF8002888
S1131F1001DB002010BD012010BDC04610B500F04B
S1131F20A5F8002801DD002010BD012010BDC04629
S1131F3010B500F057F8002801DC002010BD012086
S1131F4010BDC04610B500F04DF8002801DA00209D
S1131F5010BD012010BDC0461C2101231B04984262
S1131F6001D3000C10391B0A984201D3000A083926
S1131F701B09984201D30009043902A2105C4018DD
S1131F807047C04604030202010101010000000081
S1131F9000000000430270B542004C005D0AC30F0C
S1131FA04802120E460A240EC90FFF2A0FD0FF2C36
S1131FB011D00120A24200D070BDB542FCD18B42A9
S1131FC00DD0002AF8D12800431E9841F4E70120DF
S1131FD0002DF1D1EBE70120002EEDD1E9E700203F
S1131FE0EAE7C0464302F0B542005D0AC30F480267
S1131FF0440A4800120E000EC90FFF2A1FD0FF2802
S113200022D0002A09D16E426E4100280FD1002C43
S11320100DD10020002D09D005E0002801D1002CAD
S113202001D08B4213D0584201231843F0BD002E37
S1132030F7D048424141012049420843F6E7002DC8
S1132040DDD002204042F1E7002CDAD0F9E78242E9
S1132050E9DC04DBA542E6D80020A542E6D25842DA
S1132060434101205B421843E0E7C0464302F0B518
S113207042004C005E0AC30F4802120E450A240EA9
S1132080C90FFF2A17D0FF2C19D0002A0BD1704298
S11320907041002C17D0002807D04842414101204C
S11320A049420843F0BD002C13D08B4214D058424F
S11320B001231843F6E70220002EF3D1E3E70220C0
S11320C0002DEFD1E1E7002DE5D10020002EE9D06D
S11320D0EDE7002DE9D1EAE7A242E8DC04DBAE42F9
S11320E0E5D80020AE42DDD25842434101205B4294
S11320F01843D7E70E4B70B500251E000D4CE41AAB
S1132100A410A54204D0AB00F35898470135F8E772
S113211000F056F8084B00251E00084CE41AA410E1
S1132120A54204D0AB00F35898470135F8E770BDD9
S1132130CC210000CC210000CC210000D0210000E3
S1132140680C0000C60B0000C60B0000C40B0000A6
S11321505A0C00005A0C0000500C0000C40B000084
S11321605A0C0000500C00005A0C0000C40B000074
S1132170600C0000600C0000600C0000EA0C000021
S11321809C1900005C1800005C1800005A1800003C
S11321907419000074190000661900005A18000030
S11321A07419000066190000741900005A18000020
S11321B07C1900007C1900007C1900007C1B0000C5
S11321C0F8B5C046F8BC08BC9E467047CD00000078
S11321D0F8B5C046F8BC08BC9E467047A500000090
S11321E00030004200280042004800420040004203
S9030109F2
