:100000004820002009010000050100000501000052
:1000100000000000000000000000000000000000E0
:1000200000000000000000000000000005010000CA
:1000300000000000000000000501000005010000B4
:100040000501000005010000050100000501000098
:100050000501000005010000050100000501000088
:100060000501000005010000050100000501000078
:100070000501000005010000050100000501000068
:1000800005010000B10100000501000005010000AC
:100090000501000005010000050100000501000048
:1000A0000501000010B5064C2378002B07D1054B45
:1000B000002B02D0044800E000BF0123237010BDD4
:1000C0000C00002000000000D0220000084B10B5FA
:1000D000002B03D00749084800E000BF0748036829
:1000E000002B00D110BD064B002BFBD09847F9E741
:1000F0000000000010000020D0220000D0220000EC
:1001000000000000FEE7C04610B51D4B1D4A9A4294
:1001100003D01D4B1A4A9A4204D31C4B1C4A9A42E4
:1001200010D31EE01B4A184B03339B1A9B08013364
:100130009B000022124813498C58845004329A4282
:10014000FAD1EAE7144A114B03339B1A9B08013397
:100150009B0000220E4800211418216004329A42AC
:10016000FAD10E4AFF210E4B8B4393600D4A516822
:1001700080230B4353600C4B98470C4B9847FEE78A
:1001800000000020D02200000C00002044000020CD
:100190000C000020040000201000002000ED00E012
:1001A0000000000000400041E5210000850500003E
:1001B000F0B55F4656464D464446F0B485B0424BD6
:1001C0001A6802231373137EDB07FCD5508B80B2B1
:1001D0003E4B98473E4B1860FA2189053D4B9847A6
:1001E0003D4B9946186018683C4B1D683C4B98463F
:1001F0001E683C4B9A461B6800933B4A9346126824
:1002000001923A4CA04702900391281CA047384D18
:10021000384A394BA84702000B0002980399374F20
:10022000B84702900391301CA047354A354BA84788
:1002300002000B00344E02980399B04702900391DC
:100240000098A047314A324BA84702000B000298A1
:100250000399B04706000F000198A0472D4A2E4B86
:10026000A84702000B0030003900244CA0472B4B5C
:1002700098472B4B18605246126859460A601B6813
:1002800052461360154B1B68424613604B461B6871
:10029000124A1360234B1C68E3795BB2002BFBDB33
:1002A0001F4B1868204B984780B2A0811F4B1A68DB
:1002B000917B01230B43937305B03CBC9046994658
:1002C000A246AB46F0BDC04608000020A50B0000CA
:1002D000340000202D0600003C00002030000020EB
:1002E00028000020400000202C000020151E0000E7
:1002F00079120000AE47E17A14AEF73F6D170000A7
:10030000BB270F0BB5A6EF3F210C00002B8716D99A
:10031000CEF7F53FF1F44A598638EC3FBD1E000098
:100320003800002004000020FD050000000000202F
:10033000034A1368802189020B4313607047C0464B
:1003400000E100E0074A136A802149010B43136270
:10035000054B15225A8059888022D2010A435A80BF
:100360007047C04600040040000C004010B5164B1A
:100370009847164B186802880C218A4304210A43C7
:10038000028019680888124A0240A020C000024377
:100390000A80196808880F4A024080204001024301
:1003A0000A801868028860218A4340210A4302803B
:1003B0001B68FA221A75597B01220A435A7319885D
:1003C00002220A431A8010BD4503000000000020ED
:1003D000FFF8FFFFFFCFFFFF074A136A80214902A2
:1003E0000B431362054B17225A8059888022D20191
:1003F0000A435A807047C04600040040000C004089
:1004000030B51C4B002219680A7002201968487028
:1004100019688A7001321968CA701B689988164A6F
:100420000A40802149000A439A809A88D0398A4339
:100430009A801A6911398A430C390A431A61196979
:100440000E4A0A40C02149010A431A611A69F02183
:1004500009050A431A610A4A3525515D0F242140D6
:100460001024214351554B24155D01212943115579
:10047000187030BD08000020FFF8FFFFFFE0FFFF0D
:1004800000440041074A136A8021C9020B431362EA
:10049000054B1A225A8059888022D2010A435A8079
:1004A0007047C04600040040000C004010B5164BD9
:1004B0004220195C0122114319541138195C0F2490
:1004C000A1430A431A54114B002219680A701A6892
:1004D000D3795BB2002BFBDB53783F210B404021EB
:1004E0000B435370094B1A68D3795BB2002BFBDBCB
:1004F000117802230B431370044B1A6851780123BF
:100500000B43537010BDC04600440041040000205E
:10051000164BC222D2009A6015494A681E208243B7
:100520004A601A6A40218A4340310A4311490A400D
:100530001A62196A02220A431A620F4B00221A72C7
:100540005A729A72DA72996908320A439A610122E0
:100550000A4B1A7019000B781342FCD1074B80220A
:1005600052009A60064A5A607047C0460008004030
:1005700000400041FFFCFFFF00040040000C004071
:100580000006030010B50F4B98470F4B98470F4BD1
:1005900098470F4B98470F4B98470F4B98470F4B77
:1005A00098470F4B984700230E4A13600E4A13607A
:1005B0000E4A13600E4A13600E4A13600E4A13600F
:1005C000FEE7C04611050000450300006D03000072
:1005D000D90300000104000085040000AD04000000
:1005E0003103000028000020300000203C000020E3
:1005F0002C00002040000020380000209E2110B573
:10060000C905041C01F016FD002803D1201C00F0D0
:10061000A7FA10BD9E21201CC90500F01BF900F0AF
:100620009FFA80231B069C466044F2E7F0B55746CC
:100630004E4645464300E0B446028846760A1F0E01
:10064000C40F002F47D0FF2F25D0002380259A46C6
:100650009946F600ED042E437F3F434642465D0235
:10066000D20F5B006D0A1B0E904640D0FF2B39D095
:1006700080220020ED00D20415437F3BFB18424648
:100680005746591C62408C4607430F2F5CD86F4970
:10069000BF00C9598F46002E45D108239A46063B14
:1006A0009946DAE7424602282DD0032800D1C3E05C
:1006B000012800D0A2E0002500260240D4B2760234
:1006C000ED05760A2E43E407264330001CBC904615
:1006D0009946A246F0BD002E1AD104239A46033B48
:1006E0009946BAE72A00511E8A41901CC6E70120AC
:1006F000002DC3D0280001F0A7FC431F76309D4099
:1007000043420020BAE70124FF2514400026D6E723
:10071000300001F099FC431F9E4000237630474291
:100720009A46994699E70C239A46093B994694E7DD
:1007300080260024F603FF25C1E735004846B2E7CE
:10074000350022004846AEE72904090C0800370CA2
:100750003604360C2C0C7943704367437443060C03
:1007600064183619B14203D98021490288464744AA
:100770000004000C310409188D01681E8541890EA2
:100780002943350CED19AD010D43290104D5012391
:1007900069081D4063460D4319007F31002925DD9E
:1007A000680704D00F202840042800D00435280111
:1007B00003D5274980330D401900FE29A3DC01240D
:1007C000AD016E0A1440CDB279E78020C003064225
:1007D00007D0054205D128434602760A4446FF2544
:1007E0006DE706437602760AFF2568E70124611A61
:1007F0001B2905DD14400025002660E76346CBE792
:100800002E002023CE40591A8D406B1E9D412E4351
:10081000730704D00F233340042B00D00436730138
:1008200004D5012401251440002648E70124B6011F
:10083000760A1440002542E780260124F6032E4361
:100840007602760A1440FF2539E7C04630220000C0
:10085000FFFFFFF7F8B54A024E0043024400240EA2
:10086000C50F9B09360EC90F9209FF2E00D183E0F8
:1008700001204140A01BA9425CD0002800DC95E08B
:10088000002E1CD1002A00D081E05A0704D00F228C
:100890001A40042A00D004335A013BD50134FF2CFE
:1008A00000D191E001209B015B0AE4B205405B02AC
:1008B000E4055B0AED0723432B431800F8BDFF2C2A
:1008C000E3D08021C9040A431B2800DD90E0160014
:1008D0002021C640081A8240511E8A4132439B1A89
:1008E0005A0115D59B019E09300001F0ADFB05387A
:1008F000864084426CDC041B330020200134E3403A
:10090000041BA640721E964100243343BDE70D0030
:100910005A07BCD1DF0801231D40FF2C33D1002F23
:1009200000D190E08022D20313003B435B025B0ABC
:10093000FF24BCE700284FDD002E2ED0FF2CA4D0D2
:100940008025ED042A431B2800DD97E016002025B2
:10095000C640281A8240501E824132439B185A01D9
:10096000D5D50134FF2C6DD001227B481A405B089D
:10097000034013430D0088E7002A00D07AE777E7A9
:10098000031EC5D100257B025B0AE4B28FE7013864
:100990000028A4D0FF2C97D177E7002A00D174E774
:1009A00001380028DAD0FF2CCDD16EE7002821D104
:1009B000601CC0B2012858DD80279E1AFF04374012
:1009C0002FD0D61A0D008FE701231D4000236EE7BC
:1009D000624B241A334058E7002851D1601CC6B23C
:1009E000012E33DDFF282DD09B185B0804004CE757
:1009F000012274E7002C1AD0FF2E1FD08024E404BB
:100A0000404223431B2800DD96E01D002024C54002
:100A1000201A8340581E83412B43D31A34000D0003
:100A20005EE7002E00D05FE700250024ABE7002B37
:100A300044D0C0430028F0D0FF2EE3D11300FF24A0
:100A40000D0022E70D00FF24002330E7002C5DD1CC
:100A5000002B7DD0002A00D117E79B185A0100D443
:100A600056E73E4A040013400FE7002C1ED1002B2E
:100A70002FD1002A65D013000D0006E701226DE793
:100A8000002C1FD1002B59D0C04300280BD0FF2EC3
:100A90004FD01B285EDC1D002024C540201A834057
:100AA000581E83412B439B18340058E7002B1CD160
:100AB000002A49D013000D00FF24E6E6130034009D
:100AC0000D00E2E6FF2E34D08024E40440422343AC
:100AD000DFE7002A00D1D8E68027981AFF040740F4
:100AE00000D14DE7D31A0D00CFE6FF24002A00D134
:100AF000CBE68020DB08C003034204D0D2080242C8
:100B000001D113000D00DB00FF24BEE6002B10D046
:100B1000FF24002A00D1B8E68020DB08C00303428E
:100B200003D0D208024200D11300DB000D00FF24E5
:100B3000ABE61300FF24A8E601236EE713003400A0
:100B4000A3E6002700251EE780270025FF03E9E62E
:100B500013009AE60123A6E7FFFFFF7DFFFFFFFBDF
:100B60004302590A4300C20F1B0E00207E2B0EDDEC
:100B70009D2B0DDC802000040143952B0BDC96207F
:100B8000C31AD9400B005842002A00D11800704700
:100B9000034BD018FBE7963B99400B00F3E7C046A8
:100BA000FFFFFF7F70B5041E28D001F04DFA9E2391
:100BB0001B1A962B0ADC9622D21A94406202520A21
:100BC000D8B25202520AC005104370BD992B18DCEE
:100BD0009922D21A9440114A2240610704D00F2171
:100BE0000C40042C00D00432510103D50B4B1A40A9
:100BF0009F231B1A9201520AD8B2E2E7002000227A
:100C0000DFE705222500121AB921D5402200C91AB2
:100C10008A40541EA2412C001443DCE7FFFFFFFB77
:100C2000F8B556465F464D464446F0B40F00FD0FFA
:100C3000AA4609037C002E005F00450F490A7F0D7C
:100C40002943C5001803BC46400A570F640DDB0F4B
:100C50003843D2009A4500D1AAE06646A61B002E72
:100C600000DCFFE06346002B39D10300134300D0C2
:100C7000D9E06B0709D00F232B40042B05D02B1D87
:100C8000AB42AD416D4249191D000B0200D482E018
:100C9000CA4B01349C4200D1FEE00A005646C84BC4
:100CA000ED081A405007640552020543120B640D0B
:100CB000002112030B0D1B056405120B1A43630878
:100CC000C04CF60714401C436400640834432800F9
:100CD00021003CBC90469946A246AB46F8BDB74BB6
:100CE0009C42C6D080231B041843382E00DDEBE065
:100CF0001F2E00DD1EE120239B1B9C460300674640
:100D0000BB40984613004746F3403B436746BA4012
:100D1000571EBA4113430200F240EB1A9D42B641FE
:100D20001D008A1A7642911B0B0231D54A02560ADF
:100D3000002E00D1B4E0300001F086F90300083B3A
:100D40001F2B00DDB5E020222900D21AD1409E40A1
:100D50000A009D4032439C4200DDB1E01C1B631C35
:100D60001F2B00DDD5E0202114002800C91A8C407B
:100D7000D8408D400443DA40681E85411100254368
:100D8000002476E74146314300D134E23100454644
:100D90006B0700D06FE756464807ED08C9080543C2
:100DA000864B9C4235D00A036405120B640D7FE725
:100DB0006346E31A9B46002B00DC8BE06746002F5E
:100DC0003CD07E4FBC4200D153E780273F043843DC
:100DD0005B46382B00DCF7E00243501E82410020C6
:100DE000D2B253194218AB4289411D0049428918B9
:100DF0000B02CDD5714B01349C4200D13DE1012065
:100E00006F4A6B080A4028401843D507054351082C
:100E10002FE72B000B4300D1CBE180231B030B43B7
:100E20001A03120B44E7013E002E6DD1AE1AB542F3
:100E30009B41091A5B42C91A350075E70700174341
:100E400000D116E701235B429C46E3445B46002B3E
:100E500000D0E0E0AA18AA429B4109185B42591849
:100E60001500C5E7002E75D1661C7605760D012E9E
:100E700000DCF3E0AE1AB0464545BF410E1A7F4292
:100E8000F61B370200D48FE0551BAA42B641411A27
:100E900076428E1B9A464BE756460022002507E70E
:100EA000280001F0D1F820300300083B1F2B00DCA4
:100EB00049E72A002838824000259C4200DC4DE7A3
:100EC0003F49E41A1140D4E60243501E8241D3B296
:100ED000002222E7002B00D0F3E0631C9C465B0558
:100EE0005B0D012B00DC9FE0344B9C4500D1C3E03F
:100EF000AA180918AA42804140424118CD07520859
:100F0000154349086446B4E62C4B9C4200D0ECE6FD
:100F1000AFE611001F3CE1400C00202B00D17FE028
:100F20004021CB1A9A4015436A1E95410021254362
:100F300000242DE733000700203BDF403B00202E3C
:100F400070D04027BE1BB0400243501E8241134365
:100F50000022E2E6002C4FD0184CA44500D1ABE0B3
:100F60008024240476422143382E00DDDFE01F2E4A
:100F700000DD43E12027BC1BA1460C004F46BC40CE
:100F8000A0462C004746F4403C434F46BD406F1EF0
:100F9000BD41F1402C43151BAA429241411A5242D5
:100FA000891A64469A46BFE641464546314300D019
:100FB000BEE6002600240025F2E6C046FF0700003A
:100FC000FFFF7FFFFFFF0F801F2B59DC2027FF1A39
:100FD000BC46070063469F405B46B9461700DF40AA
:100FE000B8464F4643461F4363469A40531E9A41B4
:100FF0005B463A43D840F4E60C002C435CD0F64301
:10100000002E55D1551BAA42A441411A6442091B26
:101010009A46644688E6964FBC4200D0D8E628E659
:10102000002280E700208FE70B002B43002C00D02C
:10103000C2E0002B00D101E10300134300D118E608
:10104000AB18AB42B6410918764271180A0200D4B7
:1010500009E1884A1D00114064460AE6002C5BD174
:101060000E002E4300D08AE00100114300D1C2E0FF
:10107000010015009A46FCE56446002100258FE634
:1010800020235B429C46DC4463460700DF405B460E
:10109000BC46202B00D1ACE040235F46DB1B9840D0
:1010A0000243501E8241634613431A00002098E613
:1010B0006F4CA44500D057E70100150064469A46DE
:1010C000D7E5002C39D10C002C436ED0DB43002B2C
:1010D0001AD0674CA44568D0382B00DDA4E01F2B44
:1010E00000DDAEE020240F00E41AA740B9462F002F
:1010F000DF40B846A3464F46444627435C46A540DA
:101100006C1EA541D9403D43AD1895429B4109183D
:101110005B42591864466BE60C002C4315D1010064
:1011200011437BD0010015009A46514CA1E50D43B7
:10113000691E8D410021ECB22DE74D4CA44534D001
:10114000802424045B422143C6E7040014434ED0AC
:10115000ED084C072C438025C9082D03294208D0EF
:10116000C6082E4205D1D208410711430C009A4609
:101170003100620FC900E50011433D4C79E50600DE
:10118000164300D175E5AE1AB0464545BF410E1A6B
:101190007F42F61B370200D4F4E5551BAA42B64144
:1011A000411A7642891B9A4663E5010015006446A0
:1011B0005FE5002200257BE5002B3BD003001343B5
:1011C00015D0ED084B072B438025C9082D03294274
:1011D00007D0C4082C4204D141070B002100D208DB
:1011E0001343C9005A0F1143DD00214C41E5204C47
:1011F0003FE5002054E700260025D1E534000F002C
:10120000203CE7403C00202E2BD04027BE1BB140A5
:101210000D43691E8D4100212C43BCE68021002630
:101220000903134C0025BBE50D43691E8D410021C8
:10123000EDB269E7010015000D4C1AE5010015003B
:1012400017E51C000F00203CE7403C00202B0CD091
:101250004027FB1A99400D43691E8D41002125430B
:1012600052E70021D4E71D0092E50021F3E7C046D4
:10127000FF070000FFFF7FFFF0B55F4656464D4673
:101280004446F0B40D0399464E002B0B87B007007F
:10129000924680469B46760DCC0F002E69D06D4B52
:1012A0009E4235D05B468022DD001204430F13437B
:1012B0002B439B46C3009846674B00279C46002360
:1012C000664401934A4615035000D20F53462D0B36
:1012D000400D914600D176E05E4A90426CD080226B
:1012E0005B0F120413435C4AED0094461D435346C2
:1012F0000022DB00604449463618701C61400290B1
:1013000017430F2F00D9AFE05448BF00C759BF465D
:101310005B461F4300D088E000239B46984602337B
:1013200008270193CEE74946022A6AD0032A00D152
:1013300009E2012A00D0BBE1114000220023002570
:101340009046CCB200212D030A0D12052D0B15433A
:10135000434A1B0515401D436D00E4076D082543F6
:101360004046290007B03CBC90469946A246AB4691
:10137000F0BD034352D05B46002B00D18AE15846B2
:1013800000F062FE03000B3B1C2B00DD7BE11D2205
:10139000D31A3A0001005D46DA4008398D40130047
:1013A0008F402B439B46B8462E4B00279C4600237C
:1013B00060444642019385E752462A432CD10025DA
:1013C0000023022297E752462A4321D0002D00D164
:1013D00054E1280000F038FE03000B3B1C2B00DD1D
:1013E00046E11D21CB1A51460200D9405346083A26
:1013F000954093400D431B4A94466044404200226E
:1014000079E7012400220C40124B0025904699E711
:101410000025002301226EE703226CE700239B4690
:1014200098460133042701934CE703230C270193CB
:1014300048E700238025984600242D03054B81E7CB
:101440005D464346019A6FE75D4643462100019A97
:101450006AE7C046FF07000001FCFFFF70220000A2
:10146000FFFF0F80F30300004246120C91461A0C56
:101470009446424617044A461B041B0C5A436046D6
:1014800090464A4642431000039262461C003F0CBD
:101490007A437C4342440192220C9246019A524480
:1014A000904506D98246802040028046C24450467C
:1014B0000390100C049048462404240C12041219C2
:1014C00005922A0C2D042D0C68432C0082464846B8
:1014D0007C4350438146200C804657435744474441
:1014E000BA4503D9802040028046C144380C3F04ED
:1014F000B84648442404240C01900498A044404475
:1015000004905846000C814658460404200C82463C
:10151000070048465F434C46434360466043644689
:10152000834650464443380C8446E4186444A3423E
:1015300003D980235B029C46E34448463F04230CC6
:101540003F0C2404E419574668436F4384464D46D4
:10155000504655434243380C814662444A445B44FA
:10156000944503D9802040028446654403983F0493
:10157000834604983F0C8446E344C345804140427F
:101580008246100484460198674484466744A34415
:10159000BC46A345A4419946D44464428742BF4116
:1015A000D4458041E144A04699459B417F42404259
:1015B000C8440743120CBA18A045A4415F423B003F
:1015C00064422343D71843467D19DB0D6D021D434A
:1015D0005B465A02059B1A43531E9A415B46DB0D3C
:1015E0001A4343465B021343EA0107D501225C0814
:1015F00013402343EA07029E13436D08574AB2186B
:10160000002A4BDD580709D00F201840042805D0C8
:10161000181D98429B415B42ED180300E80104D578
:101620004F4A15408022D200B2184E48824200DD57
:10163000E7E60124DB08680718436D02530580467E
:101640002D0B5B0D0C407DE68022594612031142A2
:1016500008D0154206D115432D0398462D0B4C4654
:10166000414B6FE65D4615432D032D0B3E4B69E65E
:1016700003005546283B9D400023BCE6504600F041
:10168000E3FC2030A8E60300283B9F400023BB4634
:10169000984689E600F0D8FC203073E60124A61AAB
:1016A000382E07DD00220C4000230025904649E635
:1016B000029EA3E71F2E20DC20222C001800921B84
:1016C000F040944093400443581E83411C43F5402E
:1016D000630709D00F232340042B05D023001C1DD2
:1016E0009C4292415242AD182B021FD50124002288
:1016F0000C4001230025904624E61F202C00404288
:10170000821AD440202E1CD04022961BB5402B4379
:10171000581E83410720234318400025002809D084
:101720000F2200251A401C00042AD8D12300680784
:101730006D022D0B0124DB08034398460C40002367
:1017400000E60025E3E780220124120315432D0360
:1017500098462D0B0C40044BF4E5C046FF030000F7
:10176000FFFFFFFEFE070000FF070000F0B5574631
:101770004E464546E0B40E001100F20F9246C500F9
:10178000420F180337037400400A4E0F7F0A30439C
:10179000CF4E17435A00640D520DDB0FC900B24201
:1017A00000D1E5E001267340A61AB446534500D1A6
:1017B000AFE0002E00DC0DE1002A3AD103000B431C
:1017C00000D0E4E06B0709D00F232B40042B05D099
:1017D0002B1DAB42AD416D427F191D003B0200D471
:1017E00088E0BB4B01349C4200D110E13A00B94B78
:1017F00051461A4001235007ED0852026405054383
:10180000120B640D0B400021280012030D0D120B6A
:1018100064052D0515436208AF4CDB072C401443CB
:10182000640064081C4321001CBC90469946A246F3
:10183000F0BDA74B9C42C5D080231B0418436346D0
:10184000382B00DDFDE01F2B00DD30E16246202358
:101850009B1A02009A40664690460A009940F24060
:1018600046464B1E99413243114363460200DA401B
:10187000691A8D429B410D00BA1A5B42D71A3B028E
:1018800035D57A02530A98464346002B00D1C4E06E
:10189000404600F0D9FB0300083B1F2B00DDC5E0EC
:1018A00020222900D21A4746D1409F400A009D407D
:1018B0003A439C4200DDC0E01C1B631C1F2B00DD73
:1018C000E4E0202114002800C91AD8408C408D4043
:1018D0000443DA40681E854117002543002471E760
:1018E000424663461A4300D14CE2674645466B07C1
:1018F00000D069E7012351467807ED08FA080B404C
:10190000054373498C4238D012036405120B640DF1
:1019100079E7002E00DC9AE0002A47D06C4A944216
:1019200000D14FE78022120410436246382A00DCBF
:1019300008E10143481E81410022C9B24919D21968
:10194000A942BF410D007F42BF183A0200D442E1D4
:101950005F4A0134944200D14EE101205D4A69089A
:101960003A4028400843D507054357089A4629E7D7
:1019700006000E4300D017E714E72900114300D1F9
:10198000F9E1802109030A431203120B3BE701230B
:101990005B429846C4446346002B72D1691A8D425B
:1019A0009B413F1A5B42FF1A0D0068E702000A43A1
:1019B00000D107E7012252429046C4446246002A01
:1019C00000D0E6E06918A942B6413F187642F719FF
:1019D0000D00BAE7002E00D080E0621C5205520DC7
:1019E000012A00DCF9E06A1A91464D45B6413A1ADF
:1019F0007642921B9046120200D499E04D1BA942F8
:101A00008941C71B49427A1A90469A463CE752469A
:101A10000123002513400022F5E6280000F014FB06
:101A200020300300083B1F2B00DC39E72A00283850
:101A3000824000259C4200DC3EE7264FE41A174016
:101A4000C0E60143481E81410022C9B210E7002EC2
:101A500000D0F1E0621C94465205520D012A00DCD0
:101A6000A0E01B4A944500D1C5E06918A942924103
:101A70003F185242D2194908D5070D43570864460A
:101A8000A0E6134B9C4200D0D9E69BE611001F3C18
:101A9000E1400C00202B00D180E04021CB1A9A407D
:101AA00015436A1E95410027254300241FE763461E
:101AB0000200203BDA406346202B71D0402366466B
:101AC0009B1B98400143481E814111430022CFE6F1
:101AD000FF070000FFFF7FFFFFFF0F80002C48D0B3
:101AE000CA4CA24200D1A2E07442A1468024240440
:101AF00027434C46382C00DDDBE01F2C00DD44E1A1
:101B00004E462024A41B3E00A640A246B0464C46AA
:101B10002E00E640B4464646644626435446A54059
:101B20006C1EA54134002C434D46EF400D1B28E0B0
:101B30004A4643464D461A4300D0A5E600230024FA
:101B40000025DEE61F2A5ADC66462022921B06008C
:101B500096409146B04662460E00D6404246164335
:101B60004A4691404A1E9141020060463143C240BC
:101B7000E4E63C002C435AD0F443A146002C52D159
:101B80004D1BA9428941C71B49427F1A14009A463E
:101B900075E69E4A944200D0C7E613E600227FE72E
:101BA00000208FE7002C00D0C8E03B002B4300D181
:101BB0000FE103000B4300D104E66918A9429B41E1
:101BC0003F185B42DF193B0200D41AE1904B0D0035
:101BD0001F406446F6E59A4689E63A002A43002CFF
:101BE0005CD1002A75D102000A4300D1CAE0070087
:101BF0000D009A46E6E564460022002581E662462D
:101C00000600203AD6406246B046202A00D1B7E00E
:101C100040226646921B904001434246481E814145
:101C2000114300228AE6794CA24200D061E7070006
:101C30000D0014009A46C5E5002C41D13C002C4310
:101C400078D0F443A146002C20D0704CA24271D031
:101C50004C46382C00DDB2E01F2C00DDBCE0202615
:101C6000341BA2463C005646B4404E46A0462C00CB
:101C7000F440A446444666463443A4465446A54030
:101C800064466E1EB54125434C46E7406D188D42B3
:101C900089413F184942CF19140056E6002A2FD136
:101CA00002000A4300D184E007000D009A46574C19
:101CB00088E53D436F1EBD41ECB200270D1B60E778
:101CC000524CA24236D0744280263604A146374395
:101CD000BEE702000A4300D174E56A1A9046454502
:101CE000B6413A1A7642921B9446120200D4F7E5A6
:101CF0004D1BA9428941C71B49427F1A9A4661E59B
:101D000002000A433AD0ED087C072C438025FA08EC
:101D10002D032A4208D0C7082F4205D145072C00C1
:101D20003A009A46C9080C43670FD200E5001743F2
:101D3000364C47E507000D00140043E53A002A43FE
:101D400043D002000A4319D0ED087C072C438025BC
:101D5000FA082D032A4207D0C6082E4204D14707AD
:101D60003C003200C9080C43D700620FE50017435E
:101D70009A46264C26E50022002544E5234C21E521
:101D8000002049E700230025BBE54C463E00203CEF
:101D9000E6404C46B446202C31D040244E46A61B8B
:101DA000B7403D436C1EA54164462C4300270D1BE4
:101DB000E7E6802200231203144C0025A1E53D43F1
:101DC0006F1EBD410027EDB260E707000D000F4C0C
:101DD000F8E407000D00F5E44E463C00203EF440D8
:101DE000A0464C46202C0ED040244E46A41BA740B3
:101DF0003D436F1EBD4144460027254346E700276B
:101E0000CFE70D0073E50027F2E7C046FF070000AB
:101E1000FFFF7FFF4200120E511C4302C9B270B592
:101E20005D0AC40F012915DDE02189008C466D078C
:101E30001B0B6244002128000D0D2D052B431C4D6A
:101E400052052B40520813435B00E4075B08234311
:101E5000190070BD002A15D1002D1FD0280000F0F8
:101E6000F3F80A281DDC0B232A001B1ADA401300A2
:101E70000200153295400F4A1B03121A52051B0B24
:101E8000520DD7E7002D06D080221B0B12031343FF
:101E90006D07094ACEE7084A0023CBE7002200235A
:101EA000C8E703000B3B9D402B000025E3E7C0463D
:101EB000FFFF0F8089030000FF0700004B0070B593
:101EC0005E0D0C03751C640A420F6D052243C90F99
:101ED000C4006D0D012D2ADD3B4BF318FE2B1ADCDF
:101EE000002B42DD8001451EA841D2001043620F45
:101EF0000243500704D00F201040042800D00432C1
:101F00008020C004104021D00133FF2B03D0920168
:101F1000520ADBB201E0FF2300225202520ADB0523
:101F200013435B00C9075B080B43180070BD002E0C
:101F300007D01443EFD08020D20080040243FF2357
:101F4000D7E722430023002A03D00522D208FF2B23
:101F500003D05202520ADBB2DFE7002A32D08020DF
:101F6000C00302435202520AD7E71800173014DBAD
:101F70008020000402431E20C01A1F280FDC250009
:101F8000124BF3189D406E1EB5419A402B0013432F
:101F90002200C2401A430023ABE70023D5E7022505
:101FA0006D42EB1A1500DD40202809D0084BF318CC
:101FB0009A401443621E9441220000232A4398E76A
:101FC0000022F6E70022A8E780FCFFFF82FCFFFF6B
:101FD000A2FCFFFF8446081C6146FFE71FB500F026
:101FE000BDF8002801D40021C8421FBD10B500F083
:101FF00049F84042013010BD10B500F0AFF800289C
:1020000001DB002010BD012010BDC04610B500F05E
:10201000A5F8002801DD002010BD012010BDC0463C
:1020200010B500F057F8002801DC002010BD012099
:1020300010BDC04610B500F04DF8002801DA0020B0
:1020400010BD012010BDC0461C2101231B04984275
:1020500001D3000C10391B0A984201D3000A083939
:102060001B09984201D30009043902A2105C4018F0
:102070007047C04604030202010101010000000094
:1020800000000000430270B542004C005D0AC30F1F
:102090004802120E460A240EC90FFF2A0FD0FF2C49
:1020A00011D00120A24200D070BDB542FCD18B42BC
:1020B0000DD0002AF8D12800431E9841F4E70120F2
:1020C000002DF1D1EBE70120002EEDD1E9E7002052
:1020D000EAE7C0464302F0B542005D0AC30F48027A
:1020E000440A4800120E000EC90FFF2A1FD0FF2815
:1020F00022D0002A09D16E426E4100280FD1002C57
:102100000DD10020002D09D005E0002801D1002CC0
:1021100001D08B4213D0584201231843F0BD002E4A
:10212000F7D048424141012049420843F6E7002DDB
:10213000DDD002204042F1E7002CDAD0F9E78242FC
:10214000E9DC04DBA542E6D80020A542E6D25842ED
:10215000434101205B421843E0E7C0464302F0B52B
:1021600042004C005E0AC30F4802120E450A240EBC
:10217000C90FFF2A17D0FF2C19D0002A0BD17042AB
:102180007041002C17D0002807D04842414101205F
:1021900049420843F0BD002C13D08B4214D0584262
:1021A00001231843F6E70220002EF3D1E3E70220D3
:1021B000002DEFD1E1E7002DE5D10020002EE9D080
:1021C000EDE7002DE9D1EAE7A242E8DC04DBAE420C
:1021D000E5D80020AE42DDD25842434101205B42A7
:1021E0001843D7E70E4B70B500251E000D4CE41ABE
:1021F000A410A54204D0AB00F35898470135F8E786
:1022000000F056F8084B00251E00084CE41AA410F4
:10221000A54204D0AB00F35898470135F8E770BDEC
:10222000BC220000BC220000BC220000C022000032
:1022300048070000A6060000A6060000A40600004D
:102240003A0700003A07000030070000A40600002B
:102250003A070000300700003A070000A40600001B
:10226000400700004007000040070000CA070000C8
:102270006814000028130000281300002613000033
:102280004014000040140000321400002613000027
:102290004014000032140000401400002613000017
:1022A00048140000481400004814000048160000BC
:1022B000F8B5C046F8BC08BC9E467047CD0000008B
:1022C000F8B5C046F8BC08BC9E467047A5000000A3
:0C22D00000300042004800420040004284
:0400000300000109EF
:00000001FF
