S019000045453133385F4C61625F315F50617274332E73726563BE
S1130000582000200901000005010000050100003E
S113001000000000000000000000000000000000DC
S113002000000000000000000000000005010000C6
S113003000000000000000000501000005010000B0
S11300400501000005010000050100000501000094
S11300500501000005010000050100000501000084
S11300600501000005010000050100000501000074
S11300700501000005010000050100000501000064
S11300800501000005010000050100000501000054
S11300900501000005010000050100000501000044
S11300A00501000010B5064C2378002B07D1054B41
S11300B0002B02D0044800E000BF0123237010BDD0
S11300C00000002000000000A00F0000084B10B545
S11300D0002B03D00749084800E000BF0748036825
S11300E0002B00D110BD064B002BFBD09847F9E73D
S11300F00000000004000020A00F0000A00F00007A
S113010000000000FEE7C04610B51D4B1D4A9A4290
S113011003D01D4B1A4A9A4204D31C4B1C4A9A42E0
S113012010D31EE01B4A184B03339B1A9B08013360
S11301309B000022124813498C58845004329A427E
S1130140FAD1EAE7144A114B03339B1A9B08013393
S11301509B0000220E4800211418216004329A42A8
S1130160FAD10E4AFF210E4B8B4393600D4A51681E
S113017080230B4353600C4B98470C4B9847FEE786
S113018000000020A00F0000000000205400002008
S113019000000020040000200400002000ED00E026
S11301A00000000000400041350F00004D0B00002E
S11301B010B50C4CE268A16863682068FA24A400B6
S11301C0544364224A43A1189A00D3185A008B1846
S11301D01818054B1B68012B03D140420022024B27
S11301E01A6010BD2400002044000020264BF02299
S11301F012035A60062253215A5401395A540139C0
S11302005A5401395A540021204A116080221203A1
S11302109A61E021C90259611B6A134202D001228A
S11302201A4B1A60184B8022D2029A61B02109033A
S113023059611B6A134202D00122144B1A60124BFB
S1130240802292029A61D021090359611B6A1342E8
S113025002D001220D4B1A600B4B802252029A618C
S1130260E021090359611B6A134203D00122074BA1
S11302701A6007E0054B1B68002B03D1044A13687E
S1130280013313607047C046004400414C00002015
S113029040000020314BF02212035A600622532101
S11302A05A5401395A5401395A5401395A540021C3
S11302B02B4A1160802212039A61E021C90259611C
S11302C01B6A134206D0274A1368013313600122C4
S11302D0234B1A60214B8022D2029A61B021090378
S11302E059611B6A134206D01E4A13680133136016
S11302F001221B4B1A60194B802292029A61D02171
S1130300090359611B6A134206D0164A1368013364
S113031013600122124B1A60104B802252029A6120
S1130320E021090359611B6A134207D00D4A13687F
S11303300133136001220A4B1A6007E0084B1B6863
S1130340002B03D1084A136801331360054B1B6863
S1130350062B02DD0222054B1A607047004400415F
S11303604C0000203C000020400000201C00002025
S1130370224BF02212035A60062253215A540139A7
S11303805A5401395A5401395A54802212039A6139
S1130390E021C90259611B6A134202D00122184BA1
S11303A01A60164B8022D2029A61B0210903596166
S11303B01B6A134202D00122114B1A600F4B802298
S11303C092029A61D021090359611B6A134202D037
S11303D001220B4B1A60094B802252029A61E021E0
S11303E0090359611B6A134203D00122044B1A60AA
S11303F002E00022034B1A607047C04600440041EB
S11304001C0000203C0000207F22274B9A6000281B
S113041004D1403A5A6101329A610FE0012805D1B2
S1130420214B06225A6173329A610FE0022805D1EA
S11304301D4B5B225A61373A9A610FE0032805D1BC
S1130440194B4F225A611F3A9A610FE0042805D1D3
S1130450154B66225A614D3A9A610FE0052805D181
S1130460114B92229A61253A5A610FE0062805D170
S11304700D4B7D225A617B3A9A610DE0072805D124
S1130480094B07225A6171329A610CE0082803D1A2
S11304907F22054B5A6106E0092804D1024B6722EA
S11304A05A614F3A9A61704780440041F0B547461B
S11304B080B480229200354B9A60354B1B68012B27
S11304C02ED1344B1D685B68ED1802D56D422F4B5D
S11304D05A61314B9846FA218900280098472F4CDD
S11304E0E060E0682E4F784340196421C047A06063
S11304F0E068A36878434019642676427343C018C1
S11305000A21C0476060E168A36862684F437D19AF
S11305105E43AD190A235B425343ED18256031E075
S1130520022B2FD11B4B1D685B68ED1A04D56D425D
S113053080229200154B5A61174B9846FA21890084
S113054028009847154CE060E068154F784340193F
S11305506421C047A060E068A3687843401964261A
S113056076427343C0180A21C0476060E168A368FB
S113057062684F437D195E43AD190A235B425343BE
S1130580ED18256004BC9046F0BDC046804400418F
S113059050000020340000205D0D000024000020E5
S11305A018FCFFFF074A00231360FA239B005843FB
S11305B01368984205DD136801331360136883429E
S11305C0F9DB704720000020F8B5154CF023A36038
S11305D0230080337F229A6080236361103BA361F0
S11305E0104FF868104EB0470420104DA847402320
S11305F063617033A361B868B0470420A84720231F
S11306006361B033A3617868B0470420A84710231E
S11306106361D033A3613868B0470420A847F8BDAC
S1130620004400412400002009040000A505000046
S113063070B5DB4BF0229A601A008032D949916080
S1130640F02212035A60062253215A5401395A5493
S113065001395A5401395A546A329A6110325A6132
S1130660802212039A61E021C90259611B6A134274
S113067014D0CD4B9A68DA605A689A601A685A6046
S113068001221A60C64B1B6A1B0307D5C74EC44D13
S113069080242403B0472B6A2342FBD1C04B702231
S11306A09A6110325A618022D2029A61B021090300
S11306B059611B6A134214D0BB4B9A68DA605A68BA
S11306C09A601A685A6002221A60B54B1B6A5B036F
S11306D007D5B64EB24D8024E402B0472B6A2342BC
S11306E0FBD1AF4B70229A6110325A618022920280
S11306F09A61D021090359611B6A134214D0AA4B91
S11307009A68DA605A689A601A685A6003221A6012
S1130710A34B1B6A9B0307D5A44EA14D8024A402BE
S1130720B0472B6A2342FBD19D4BB0229A61703AA9
S11307305A61802212039A61E021C90259611B6A3D
S1130740134214D0984B9A68DA605A689A601A680F
S11307505A6004221A60924B1B6A1B0307D5934EFE
S11307608F4D80242403B0472B6A2342FBD18C4B4A
S1130770B0229A61703A5A618022D2029A61B02101
S1130780090359611B6A134214D0874B9A68DA60D3
S11307905A689A601A685A6005221A60804B1B6A6C
S11307A05B0307D5814E7E4D8024E402B0472B6A5B
S11307B02342FBD17A4BB0229A61703A5A6180226B
S11307C092029A61D021090359611B6A134214D021
S11307D0754B9A68DA605A689A601A685A600622F9
S11307E01A606F4B1B6A9B0307D5704E6C4D8024B7
S11307F0A402B0472B6A2342FBD1694BD0229A61F1
S1130800B03A5A61802212039A61E021C902596107
S11308101B6A134214D0644B9A68DA605A689A606F
S11308201A685A6007221A605D4B1B6A1B0307D5BE
S11308305E4E5B4D80242403B0472B6A2342FBD1D8
S1130840574BD0229A61B03A5A618022D2029A61FF
S1130850B021090359611B6A134214D0524B9A68A0
S1130860DA605A689A601A685A6008221A604C4B17
S11308701B6A5B0307D54D4E494D8024E402B04703
S11308802B6A2342FBD1464BD0229A61B03A5A617B
S1130890802292029A61D021090359611B6A134292
S11308A014D0414B9A68DA605A689A601A685A60A0
S11308B009221A603A4B1B6A9B0307D53B4E384DFD
S11308C08024A402B0472B6A2342FBD1344BE0229C
S11308D09A61D03A5A618022D2029A61B021090306
S11308E059611B6A134214D02F4B9A68DA605A6814
S11308F09A601A685A6000221A60294B1B6A5B03CB
S113090007D52A4E264D8024E402B0472B6A2342A1
S1130910FBD1234B70229A6110325A618022520219
S11309209A61E021090359611B6A13421DD0012217
S11309301F4B1A601F4B98471F4B18601A4B00221D
S11309401A605A609A60DA60154B1A00803280216E
S1130950890091611B6ADB0307D5144E104D802476
S11309606402B0472B6A2342FBD10D4BB0229A613B
S1130970703A5A61802252029A61E0210903596156
S11309801B6A134224D0084B5A681A609A685A604A
S1130990DA689A600022DA60014B1B6A0EE0C046F6
S11309A0004400417F02000024000020C90500002B
S11309B050000020B101000034000020DB0307D503
S11309C03D4E3E4D80246402B0472B6A2342FBD146
S11309D03A4BD0229A61B03A5A61802252029A610B
S11309E0E021090359611B6A13421DD00222344BD2
S11309F01A60344B9847344B1860344B00221A6009
S1130A005A609A60DA602D4B1A0080328021890086
S1130A1091611B6ADB0307D5274E284D80246402AD
S1130A20B0472B6A2342FBD1244BE0229A61D03A8F
S1130A305A61802252029A61E021090359611B6ABA
S1130A40134216D01F4B98471F4B58601B4C230072
S1130A508033802292009A611D4B9847236ADB03FE
S1130A6007D5154E250080246402B0472B6A234223
S1130A70FBD1124BE0229A61D03A5A618022920251
S1130A809A61D021090359611B6A134213D00122D0
S1130A90104B1A60094B1A00803280218900516181
S1130AA01B6A9B0307D5044E044D8024A402B0475F
S1130AB02B6A2342FBD170BDC905000000440041EC
S1130AC050000020B1010000340000202400002068
S1130AD0AD04000044000020164BC222D2009A60EC
S1130AE015494A681E2082434A601A6A40218A4393
S1130AF040310A4311490A401A62196A02220A4320
S1130B001A620F4B00221A725A729A72DA72996937
S1130B1008320A439A6101220A4B1A7019000B78B1
S1130B201342FCD1074B802252009A60064A5A6055
S1130B307047C0460008004000400041FFFCFFFF32
S1130B4000040040000C004000060300F8B55F46B6
S1130B5056464D464446F0B4734B9847734BF022C7
S1130B609A601A008032724991607F399161F02253
S1130B7012035A600622AE39FF395A5401395A54C5
S1130B8001395A5401395A546A4DAA462B68012B2B
S1130B9037D002DC002B05D0F8E7022B70D0032BF2
S1130BA074D0F3E7614C80236361103BA361624B13
S1130BB099469847614B9846D868614FB8470420D6
S1130BC0604EB047402363617033A361C847434616
S1130BD09868B8470420B04720236361B033A36109
S1130BE0C84743465868B8470420B0471023636198
S1130BF0D033A361C84743461868B8470420B047B8
S1130C00C4E7514B9B4600235A461360474C80333C
S1130C106361103BA3614D4B99469847474B9846F7
S1130C20D868474FB8470420464EB0474023636115
S1130C307033A361C84743469868B8470420B04757
S1130C4020236361B033A361C84743465868B8475B
S1130C500420B04710236361D033A361C8474346DF
S1130C601868B8470420B0475B461B68042B8DD135
S1130C700023304A1360364A1360334A136085E711
S1130C80344B98470323524613607FE72E4B9B4611
S1130C9000235A461360254C80336361103BA361E3
S1130CA02D4B99469847254B9846D868244FB8470A
S1130CB00420244EB047402363617033A361C847C6
S1130CC043469868B8470420B04720236361B03393
S1130CD0A361C84743465868B8470420B047102367
S1130CE06361D033A361C84743461868B8470420FA
S1130CF0B047174A1368013313605B461B68042B23
S1130D0003D113680133136002E00022104B1A6010
S1130D100F4B1B68062B00DC38E70023054A1360E1
S1130D200B4A136032E7C046D90A00000044004170
S1130D307F0200001C00002071030000240000203A
S1130D4009040000A50500004000002095020000F1
S1130D503C00002031060000ED01000003460B4377
S1130D607FD4002243088B4274D303098B425FD3A0
S1130D70030A8B4244D3030B8B4228D3030C8B42CC
S1130D800DD3FF22090212BA030C8B4202D31212B2
S1130D90090265D0030B8B4219D300E0090AC30B87
S1130DA08B4201D3CB03C01A5241830B8B4201D334
S1130DB08B03C01A5241430B8B4201D34B03C01A1D
S1130DC05241030B8B4201D30B03C01A5241C30A95
S1130DD08B4201D3CB02C01A5241830A8B4201D306
S1130DE08B02C01A5241430A8B4201D34B02C01AF0
S1130DF05241030A8B4201D30B02C01A5241CDD295
S1130E00C3098B4201D3CB01C01A524183098B42DF
S1130E1001D38B01C01A524143098B4201D34B01C8
S1130E20C01A524103098B4201D30B01C01A52412B
S1130E30C3088B4201D3CB00C01A524183088B42B2
S1130E4001D38B00C01A524143088B4201D34B009B
S1130E50C01A5241411A00D201465241104670470D
S1130E605DE0CA0F00D04942031000D34042534012
S1130E7000229C4603098B422DD3030A8B4212D3D2
S1130E80FC22890112BA030A8B420CD38901921104
S1130E908B4208D3890192118B4204D389013AD041
S1130EA0921100E08909C3098B4201D3CB01C01A16
S1130EB0524183098B4201D38B01C01A5241430929
S1130EC08B4201D34B01C01A524103098B4201D317
S1130ED00B01C01A5241C3088B4201D3CB00C01A84
S1130EE0524183088B4201D38B00C01A5241D9D29C
S1130EF043088B4201D34B00C01A5241411A00D21D
S1130F000146634652415B10104601D34042002B18
S1130F1000D54942704763465B1000D3404201B597
S1130F20002000F005F802BD0029F8D016E770474C
S1130F307047C0460E4B70B500251E000D4CE41AD8
S1130F40A410A54204D0AB00F35898470135F8E744
S1130F5000F016F8084B00251E00084CE41AA410F3
S1130F60A54204D0AB00F35898470135F8E770BDAB
S1130F708C0F00008C0F00008C0F0000900F0000FD
S1130F80F8B5C046F8BC08BC9E467047CD000000CA
S1130F90F8B5C046F8BC08BC9E467047A5000000E2
S9030109F2
