:10000000302000200901000005010000050100006A
:1000100000000000000000000000000000000000E0
:1000200000000000000000000000000005010000CA
:1000300000000000000000000501000005010000B4
:100040000501000005010000050100000501000098
:100050000501000005010000050100000501000088
:100060000501000005010000050100000501000078
:100070000501000005010000050100000501000068
:100080000501000005010000050100000501000058
:100090000501000005010000050100000501000048
:1000A0000501000010B5064C2378002B07D1054B45
:1000B000002B02D0044800E000BF0123237010BDD4
:1000C0000800002000000000240F0000084B10B5BD
:1000D000002B03D00749084800E000BF0748036829
:1000E000002B00D110BD064B002BFBD09847F9E741
:1000F000000000000C000020240F0000240F00006E
:1001000000000000FEE7C04610B51D4B1D4A9A4294
:1001100003D01D4B1A4A9A4204D31C4B1C4A9A42E4
:1001200010D31EE01B4A184B03339B1A9B08013364
:100130009B000022124813498C58845004329A4282
:10014000FAD1EAE7144A114B03339B1A9B08013397
:100150009B0000220E4800211418216004329A42AC
:10016000FAD10E4AFF210E4B8B4393600D4A516822
:1001700080230B4353600C4B98470C4B9847FEE78A
:1001800000000020240F0000080000202C000020A8
:1001900008000020040000200C00002000ED00E01A
:1001A0000000000000400041F90D0000C9030000FC
:1001B00010B5074B1A6802231373137EDB07FCD5B7
:1001C000508B80B2034B9847034B186010BDC0465C
:1001D00004000020410D0000280000207F22274B52
:1001E0009A60002804D1403A5A6101329A610FE0C6
:1001F000012805D1214B06225A6173329A610FE022
:10020000022805D11D4B5B225A61373A9A610FE0F3
:10021000032805D1194B4F225A611F3A9A610FE00A
:10022000042805D1154B66225A614D3A9A610FE0B8
:10023000052805D1114B92229A61253A5A610FE0A7
:10024000062805D10D4B7D225A617B3A9A610DE05B
:10025000072805D1094B07225A6171329A610CE0D7
:10026000082803D17F22054B5A6106E0092804D1F2
:10027000024B67225A614F3A9A61704780440041AD
:10028000074A136A802149020B431362054B172268
:100290005A8059888022D2010A435A807047C0464A
:1002A00000040040000C004030B51D4B00221968CE
:1002B0000A7002201968487019688A701968CA7033
:1002C0001B689988174A0A40802189000A439A804E
:1002D0009A88D139FF398A439A801A6911398A4339
:1002E0000C390A431A6119690F4A0A40C0214901B1
:1002F0000A431A611A69F02109050A431A610B4A77
:1003000012683525515D0F24214010242143515599
:100310004B24155D012129431155187030BDC0468D
:1003200004000020FFF8FFFFFFE0FFFF00000020B7
:100330000022074B1A60FA239B005843002806DD71
:100340000200002301339A42FCD1014B1860704730
:1003500024000020164BC222D2009A6015494A6838
:100360001E2082434A601A6A40218A4340310A4370
:1003700011490A401A62196A02220A431A620F4B93
:1003800000221A725A729A72DA72996908320A4312
:100390009A6101220A4B1A7019000B781342FCD1A2
:1003A000074B802252009A60064A5A607047C04646
:1003B0000008004000400041FFFCFFFF0004004037
:1003C000000C004000060300F0B55F4656464D465F
:1003D0004446F0B483B0394B9847394B9847394B72
:1003E0009847394B394A9A601A008032FF21916050
:1003F000802292019A61364B9847364B994636498E
:1004000098473649364B98472F4C802565617023B5
:10041000A36110339846A04443465D613149019081
:10042000C847314FB8470090304A9346904705205F
:100430002F4EB047402363617033A36142469561FC
:10044000FA208000009B58432A4B9847011C2A4BF6
:100450009A460198984729490190C847B8470090A3
:10046000D8470520B04720236361B033A3614246DB
:1004700095616420009B58431E4B9847011C0198CE
:10048000D0471F490090C847B8478146D847052044
:10049000B04710236361D033A36143469D614B464F
:1004A000980048444000134B9847011C0098D047DF
:1004B000B847D8470520B0479DE7C0465503000020
:1004C00081020000A902000000440041F020000069
:1004D000B10100000505000000E07F4500404E45E9
:1004E0003907000000007A446D0C0000DD010000B7
:1004F00031030000B10C0000610900000000C84297
:1005000000002041F0B5564644465F464D46F0B4E3
:1005100044024600C70F83B08846650A360EBA46C5
:100520003DD0FF2E22D00023EC00802599469B462B
:10053000ED0425437F3E43465C025800DB0F640A0E
:10054000000E984636D0FF2830D080230021E400EA
:10055000DB041C437F38301A01904846424608436A
:10056000724E800030587A4013008746002D44D1E7
:1005700008239946063B9B46DDE70122FF20002425
:100580001A406402C305640AD2071C4314432000C6
:1005900003B03CBC90469946A246AB46F0BD002D48
:1005A00020D104239946033B9B46C4E7002C17D176
:1005B000022102E0002C0AD10121321A01924A469E
:1005C00043460A435A48920082587B40974620008F
:1005D00000F0F4FB431F76309C4040420021BAE714
:1005E0000321B8E7280000F0E9FB431F9D400023EA
:1005F0007630464299469B469DE70C239946093B37
:100600009B4698E780240022E403FF20B9E70024FA
:10061000C2468B465A465346022AAED0032A7DD0A4
:10062000012A31D1012200201A400024A9E7012229
:10063000101A1B2856DD1A4000200024A1E7802351
:10064000DB031D424BD18023DB032B435C02640A96
:100650003A00FF2095E76D016001854230D2019A92
:100660000024013A01921B220127290064006D0039
:10067000002901DBA84201D82D1A3C43013A002A87
:10068000F3D16A1E95412C4301987F300028CEDDBE
:10069000620704D00F222240042A00D00434220131
:1006A00003D5244A019814408030FE2800DD64E719
:1006B0000122A401640AC0B21A4062E72C00A9E733
:1006C0002D1A1A220124CFE76B02BCD50024802307
:1006D000DB031C436402640A4246FF2051E71C42CC
:1006E000B3D1F4E721002022C140101A8440621ED9
:1006F00094410C43620704D00F222240042A00D008
:100700000434620104D5012201201A40002438E794
:100710000122A401640A1A40002032E78023DB038F
:100720001C436402640A5246FF202AE7440E00007C
:10073000840E0000FFFFFFF7F0B557464E464546D2
:100740004300E0B446028846760A1F0EC40F002F0D
:1007500047D0FF2F25D0002380259A469946F600E2
:10076000ED042E437F3F434642465D02D20F5B00BD
:100770006D0A1B0E904640D0FF2B39D080220020FE
:10078000ED00D20415437F3BFB1842465746591CE7
:1007900062408C4607430F2F5CD86F49BF00C95990
:1007A0008F46002E45D108239A46063B9946DAE744
:1007B000424602282DD0032800D1C3E0012800D0F2
:1007C000A2E0002500260240D4B27602ED05760AAA
:1007D0002E43E407264330001CBC90469946A246AF
:1007E000F0BD002E1AD104239A46033B9946BAE77E
:1007F0002A00511E8A41901CC6E70120002DC3D05B
:10080000280000F0DBFA431F76309D404342002071
:10081000BAE70124FF2514400026D6E7300000F097
:10082000CDFA431F9E400023763047429A469946B0
:1008300099E70C239A46093B994694E780260024C1
:10084000F603FF25C1E735004846B2E73500220030
:100850004846AEE72904090C0800370C3604360C6C
:100860002C0C7943704367437443060C64183619A3
:10087000B14203D980214902884647440004000C54
:10088000310409188D01681E8541890E2943350CF4
:10089000ED19AD010D43290104D5012369081D405F
:1008A00063460D4319007F31002925DD680704D018
:1008B0000F202840042800D00435280103D52749FB
:1008C00080330D401900FE29A3DC0124AD016E0A1E
:1008D0001440CDB279E78020C003064207D005421C
:1008E00005D128434602760A4446FF256DE70643B4
:1008F0007602760AFF2568E70124611A1B2905DDC7
:1009000014400025002660E76346CBE72E00202335
:10091000CE40591A8D406B1E9D412E43730704D063
:100920000F233340042B00D00436730104D5012477
:1009300001251440002648E70124B601760A144038
:10094000002542E780260124F6032E437602760A2C
:100950001440FF2539E7C046C40E0000FFFFFFF733
:10096000F8B54A024E0043024400240EC50F9B090D
:10097000360EC90F9209FF2E00D183E001204140BD
:10098000A01BA9425CD0002800DC95E0002E1CD101
:10099000002A00D081E05A0704D00F221A40042A0E
:1009A00000D004335A013BD50134FF2C00D191E033
:1009B00001209B015B0AE4B205405B02E4055B0A8F
:1009C000ED0723432B431800F8BDFF2CE3D0802113
:1009D000C9040A431B2800DD90E016002021C64010
:1009E000081A8240511E8A4132439B1A5A0115D57A
:1009F0009B019E09300000F0E1F9053886408442F1
:100A00006CDC041B330020200134E340041BA640AF
:100A1000721E964100243343BDE70D005A07BCD136
:100A2000DF0801231D40FF2C33D1002F00D190E0BF
:100A30008022D20313003B435B025B0AFF24BCE726
:100A400000284FDD002E2ED0FF2CA4D08025ED04F1
:100A50002A431B2800DD97E016002025C640281AEF
:100A60008240501E824132439B185A01D5D5013431
:100A7000FF2C6DD001227B481A405B0803401343D2
:100A80000D0088E7002A00D07AE777E7031EC5D17A
:100A900000257B025B0AE4B28FE701380028A4D06E
:100AA000FF2C97D177E7002A00D174E7013800289E
:100AB000DAD0FF2CCDD16EE7002821D1601CC0B266
:100AC000012858DD80279E1AFF0437402FD0D61A00
:100AD0000D008FE701231D4000236EE7624B241AAF
:100AE000334058E7002851D1601CC6B2012E33DDD7
:100AF000FF282DD09B185B0804004CE7012274E707
:100B0000002C1AD0FF2E1FD08024E404404223433F
:100B10001B2800DD96E01D002024C540201A8340DC
:100B2000581E83412B43D31A34000D005EE7002E7C
:100B300000D05FE700250024ABE7002B44D0C04382
:100B40000028F0D0FF2EE3D11300FF240D0022E790
:100B50000D00FF24002330E7002C5DD1002B7DD059
:100B6000002A00D117E79B185A0100D456E73E4AE5
:100B7000040013400FE7002C1ED1002B2FD1002AB8
:100B800065D013000D0006E701226DE7002C1FD190
:100B9000002B59D0C04300280BD0FF2E4FD01B286C
:100BA0005EDC1D002024C540201A8340581E83416E
:100BB0002B439B18340058E7002B1CD1002A49D046
:100BC00013000D00FF24E6E6130034000D00E2E6FA
:100BD000FF2E34D08024E40440422343DFE7002A80
:100BE00000D1D8E68027981AFF04074000D14DE7CE
:100BF000D31A0D00CFE6FF24002A00D1CBE68020D7
:100C0000DB08C003034204D0D208024201D1130022
:100C10000D00DB00FF24BEE6002B10D0FF24002ACD
:100C200000D1B8E68020DB08C003034203D0D2081D
:100C3000024200D11300DB000D00FF24ABE61300DD
:100C4000FF24A8E601236EE713003400A3E6002783
:100C500000251EE780270025FF03E9E613009AE63A
:100C60000123A6E7FFFFFF7DFFFFFFFB4302590AB9
:100C70004300C20F1B0E00207E2B0EDD9D2B0DDCD2
:100C8000802000040143952B0BDC9620C31AD94029
:100C90000B005842002A00D118007047034BD018AF
:100CA000FBE7963B99400B00F3E7C046FFFFFF7F51
:100CB00070B5002830D0C317C5185D40C40F280098
:100CC00000F07CF89E231B1A962B0DDC9622D21A7C
:100CD00095406A02520AD8B25202C005520AE4078D
:100CE00002432243100070BD992B19DC9922D21ABD
:100CF0009540124A2A40690704D00F210D40042D67
:100D000000D00432510103D50C4B1A409F231B1A0B
:100D10009201520AD8B2DFE7002400200022DBE76C
:100D200005222E00121AB921D6402A00C91A8A407B
:100D3000551EAA4135001543DBE7C046FFFFFFFB08
:100D400070B5041E28D000F039F89E231B1A962B8C
:100D50000ADC9622D21A94406202520AD8B2520297
:100D6000520AC005104370BD992B18DC9922D21A83
:100D70009440114A2240610704D00F210C40042CFA
:100D800000D00432510103D50B4B1A409F231B1A8C
:100D90009201520AD8B2E2E700200022DFE70522E2
:100DA0002500121AB921D5402200C91A8A40541EC2
:100DB000A2412C001443DCE7FFFFFFFB1C210123B1
:100DC0001B04984201D3000C10391B0A984201D32E
:100DD000000A08391B09984201D30009043902A20C
:100DE000105C40187047C046040302020101010173
:100DF00000000000000000000E4B70B500251E0032
:100E00000D4CE41AA410A54204D0AB00F358984747
:100E10000135F8E700F076F8084B00251E00084C75
:100E2000E41AA410A54204D0AB00F358984701354A
:100E3000F8E770BD100F0000100F0000100F000049
:100E4000140F0000560600007A0500003806000066
:100E500010060000380600000406000038060000F6
:100E6000100600007A0500007A0500000406000064
:100E700010060000BC060000BC060000BC06000016
:100E80003E0600007A0500007A05000024060000F6
:100E90000E060000240600000406000024060000E0
:100EA0000E0600007A0500007A0500000406000026
:100EB0000E060000BC060000BC060000BC060000D8
:100EC000C806000054080000B2070000B207000086
:100ED000B007000046080000460800003C0800007B
:100EE000B0070000460800003C080000460800006B
:100EF000B00700004C0800004C0800004C0800003F
:100F0000D6080000F8B5C046F8BC08BC9E4670473D
:100F1000CD000000F8B5C046F8BC08BC9E4670473E
:040F2000A500000028
:080F24000044004100400042BE
:0400000300000109EF
:00000001FF
