:100000004820002009010000050100000501000052
:1000100000000000000000000000000000000000E0
:1000200000000000000000000000000005010000CA
:1000300000000000000000000501000005010000B4
:100040000501000005010000050100000501000098
:100050000501000005010000050100000501000088
:100060000501000005010000050100000501000078
:100070000501000005010000050100000501000068
:100080000501000005010000050100000501000058
:100090000501000005010000050100000501000048
:1000A0000501000010B5064C2378002B07D1054B45
:1000B000002B02D0044800E000BF0123237010BDD4
:1000C00000000020000000006C0B0000084B10B581
:1000D000002B03D00749084800E000BF0748036829
:1000E000002B00D110BD064B002BFBD09847F9E741
:1000F00000000000040000206C0B00006C0B0000EE
:1001000000000000FEE7C04610B51D4B1D4A9A4294
:1001100003D01D4B1A4A9A4204D31C4B1C4A9A42E4
:1001200010D31EE01B4A184B03339B1A9B08013364
:100130009B000022124813498C58845004329A4282
:10014000FAD1EAE7144A114B03339B1A9B08013397
:100150009B0000220E4800211418216004329A42AC
:10016000FAD10E4AFF210E4B8B4393600D4A516822
:1001700080230B4353600C4B98470C4B9847FEE78A
:10018000000000206C0B0000000000204400002054
:1001900000000020040000200400002000ED00E02A
:1001A0000000000000400041010B0000FD080000BD
:1001B000264BF02212035A60062253215A54013969
:1001C0005A5401395A5401395A540021204A1160B5
:1001D000802212039A61E021C90259611B6A13420D
:1001E00002D001221A4B1A60184B8022D2029A6167
:1001F000B021090359611B6A134202D00122144B3A
:100200001A60124B802292029A61D021090359612F
:100210001B6A134202D001220D4B1A600B4B802245
:1002200052029A61E021090359611B6A134203D00B
:100230000122074B1A6007E0054B1B68002B03D116
:10024000044A1368013313607047C04600440041FC
:100250004000002038000020314BF02212035A6089
:10026000062253215A5401395A5401395A5401393A
:100270005A5400212B4A1160802212039A61E02116
:10028000C90259611B6A134206D0274A1368013319
:1002900013600122234B1A60214B8022D2029A6103
:1002A000B021090359611B6A134206D01E4A136824
:1002B0000133136001221B4B1A60194B80229202FA
:1002C0009A61D021090359611B6A134206D0164A6C
:1002D0001368013313600122124B1A60104B802205
:1002E00052029A61E021090359611B6A134207D047
:1002F0000D4A13680133136001220A4B1A6007E0AC
:10030000084B1B68002B03D1084A136801331360A4
:10031000054B1B680A2B02DD0222054B1A60704751
:10032000004400414000002034000020380000203C
:100330001C000020224BF02212035A600622532197
:100340005A5401395A5401395A5401395A548022A5
:1003500012039A61E021C90259611B6A134202D05B
:100360000122184B1A60164B8022D2029A61B021EA
:10037000090359611B6A134202D00122114B1A6012
:100380000F4B802292029A61D021090359611B6AA6
:10039000134202D001220B4B1A60094B80225202F9
:1003A0009A61E021090359611B6A134203D00122BB
:1003B000044B1A6002E00022034B1A607047C046EB
:1003C000004400411C000020340000207F22274B05
:1003D0009A60002804D1403A5A6101329A610FE0D4
:1003E000012805D1214B06225A6173329A610FE030
:1003F000022805D11D4B5B225A61373A9A610FE002
:10040000032805D1194B4F225A611F3A9A610FE018
:10041000042805D1154B66225A614D3A9A610FE0C6
:10042000052805D1114B92229A61253A5A610FE0B5
:10043000062805D10D4B7D225A617B3A9A610DE069
:10044000072805D1094B07225A6171329A610CE0E5
:10045000082803D17F22054B5A6106E0092804D100
:10046000024B67225A614F3A9A61704780440041BB
:10047000074A00231360FA239B00584313689842ED
:1004800005DD13680133136013688342F9DB70479D
:1004900020000020F8B5154CF023A3602300803322
:1004A0007F229A6080236361103BA361104F3868FC
:1004B000104EB0470520104DA847402363617033AC
:1004C000A3617868B0470520A84720236361B03353
:1004D000A361B868B0470520A84710236361D033F3
:1004E000A361F868B0470520A847F8BD0044004163
:1004F00024000020CD0300007104000070B5D74B2C
:10050000F0229A601A0080327F219160F02212035B
:100510005A6006222C395A5401395A5401395A5416
:1005200001395A546A329A6110325A618022120398
:100530009A61E021C90259611B6A13421BD0C84B62
:100540001B68042B02D10022C54B1A60C44B1A68E9
:1005500092000120C34950501A6801321A60BF4B03
:100560001B6A1B0307D5C04EBC4D80242403B04733
:100570002B6A2342FBD1B94B70229A6110325A6127
:100580008022D2029A61B021090359611B6A134289
:100590001BD0B34B1B68042B02D10022B04B1A6056
:1005A000AF4B1A6892000220AE4950501A680132CF
:1005B0001A60AA4B1B6A5B0307D5AB4EA74D80247C
:1005C000E402B0472B6A2342FBD1A44B70229A610C
:1005D00010325A61802292029A61D0210903596136
:1005E0001B6A13421BD09E4B1B68042B02D10022B6
:1005F0009B4B1A609A4B1A689200032099495050FD
:100600001A6801321A60954B1B6A9B0307D5964EF8
:10061000924D8024A402B0472B6A2342FBD18F4B1A
:10062000B0229A61703A5A61802212039A61E021E5
:10063000C90259611B6A13421BD0894B1B68042BEA
:1006400002D10022864B1A60854B1A689200042062
:10065000844950501A6801321A60804B1B6A1B0390
:1006600007D5814E7D4D80242403B0472B6A234259
:10067000FBD17A4BB0229A61703A5A618022D20241
:100680009A61B021090359611B6A13421BD0744B54
:100690001B68042B02D10022714B1A60704B1A6840
:1006A000920005206F4950501A6801321A606B4B56
:1006B0001B6A5B0307D56C4E684D8024E402B0478B
:1006C0002B6A2342FBD1654BB0229A61703A5A6182
:1006D000802292029A61D021090359611B6A134258
:1006E0001BD05F4B1B68042B02D100225C4B1A60AD
:1006F0005B4B1A68920006205A4950501A68013222
:100700001A60564B1B6A9B0307D5574E534D8024E6
:10071000A402B0472B6A2342FBD1504BD0229A61EE
:10072000B03A5A61802212039A61E021C9025961EC
:100730001B6A13421BD04A4B1B68042B02D10022B8
:10074000474B1A60464B1A689200072045495050A3
:100750001A6801321A60414B1B6A1B0307D5424ECF
:100760003E4D80242403B0472B6A2342FBD13B4BF0
:10077000D0229A61B03A5A618022D2029A61B021A5
:10078000090359611B6A13421BD0354B1B68042BAC
:1007900002D10022324B1A60314B1A6892000820B5
:1007A000304950501A6801321A602C4B1B6A5B03A7
:1007B00007D52D4E294D8024E402B0472B6A2342F1
:1007C000FBD1264BD0229A61B03A5A618022920224
:1007D0009A61D021090359611B6A13421BD0204B37
:1007E0001B68042B02D100221D4B1A601C4B1A6897
:1007F000920009201B4950501A6801321A60174BA9
:100800001B6A9B0307D5184E144D8024A402B047E1
:100810002B6A2342FBD1114BE0229A61D03A5A61F4
:100820008022D2029A61B021090359611B6A1342E6
:1008300024D00B4B1B68042B02D10022084B1A60FA
:10084000074B1A6892000020064950501A6801327E
:100850001A60024B1B6A5B0310D507E0004400419D
:100860003C0000202400002095040000044E054DAB
:100870008024E402B0472B6A2342FBD170BDC046FE
:100880009504000000440041164BC222D2009A6039
:1008900015494A681E2082434A601A6A40218A43E9
:1008A00040310A4311490A401A62196A02220A4376
:1008B0001A620F4B00221A725A729A72DA7299698E
:1008C00008320A439A6101220A4B1A7019000B7808
:1008D0001342FCD1074B802252009A60064A5A60AC
:1008E0007047C0460008004000400041FFFCFFFF89
:1008F00000040040000C004000060300F8B55F460D
:1009000056464D464446F0B4714B9847714BF02221
:100910009A601A0080327F219160F02212035A609F
:1009200006222C395A5401395A5401395A54013982
:100930005A54694DAA462B68012B37D002DC002B94
:1009400005D0F8E7022B70D0032B74D0F3E7614C8D
:1009500080236361103BA361604B99469847604BCD
:10096000984618685F4FB84705205F4EB047402350
:1009700063617033A361C84743465868B847052090
:10098000B04720236361B033A361C84743469868EA
:10099000B8470520B04710236361D033A361C8472F
:1009A0004346D868B8470520B047C4E74F4B9B463D
:1009B00000235A461360474C80336361103BA361A8
:1009C0004B4B99469847464B98461868454FB84751
:1009D0000520454EB047402363617033A361C8478B
:1009E00043465868B8470520B04720236361B033B9
:1009F000A361C84743469868B8470520B04710230D
:100A00006361D033A361C8474346D868B84705201F
:100A1000B0475B461B68042B8DD100232E4A136020
:100A2000344A1360314A136085E7334B98470323F8
:100A3000524613607FE72D4B9B4600235A461360B6
:100A4000244C80336361103BA3612C4B994698473B
:100A5000234B98461868234FB8470520224EB047CD
:100A6000402363617033A361C84743465868B84761
:100A70000520B04720236361B033A361C8474346D4
:100A80009868B8470520B04710236361D033A3614D
:100A9000C8474346D868B8470520B047154A136889
:100AA000013313605B461B68042B03D113680133C9
:100AB000136002E000220F4B1A600E4B1B680A2BDA
:100AC00000DC38E70023044A13600A4A136032E767
:100AD00089080000004400411C000020350300008C
:100AE00024000020CD030000710400003800002025
:100AF0005902000034000020FD040000B101000094
:100B00000E4B70B500251E000D4CE41AA410A54232
:100B100004D0AB00F35898470135F8E700F016F819
:100B2000084B00251E00084CE41AA410A54204D06E
:100B3000AB00F35898470135F8E770BD580B00003B
:100B4000580B0000580B00005C0B0000F8B5C046C5
:100B5000F8BC08BC9E467047CD000000F8B5C04602
:0C0B6000F8BC08BC9E467047A5000000D1
:0400000300000109EF
:00000001FF
