:100000002820002009010000050100000501000072
:1000100000000000000000000000000000000000E0
:1000200000000000000000000000000005010000CA
:1000300000000000000000000501000005010000B4
:100040000501000005010000050100000501000098
:100050000501000005010000050100000501000088
:100060000501000005010000050100000501000078
:100070000501000005010000050100000501000068
:100080000501000005010000050100000501000058
:100090000501000005010000050100000501000048
:1000A0000501000010B5064C2378002B07D1054B45
:1000B000002B02D0044800E000BF0123237010BDD4
:1000C0000C00002000000000000A0000084B10B5E2
:1000D000002B03D00749084800E000BF0748036829
:1000E000002B00D110BD064B002BFBD09847F9E741
:1000F0000000000010000020000A0000000A0000BC
:1001000000000000FEE7C04610B51D4B1D4A9A4294
:1001100003D01D4B1A4A9A4204D31C4B1C4A9A42E4
:1001200010D31EE01B4A184B03339B1A9B08013364
:100130009B000022124813498C58845004329A4282
:10014000FAD1EAE7144A114B03339B1A9B08013397
:100150009B0000220E4800211418216004329A42AC
:10016000FAD10E4AFF210E4B8B4393600D4A516822
:1001700080230B4353600C4B98470C4B9847FEE78A
:1001800000000020000A00000C00002028000020D1
:100190000C000020040000201000002000ED00E012
:1001A000000000000040004155090000D503000098
:1001B00010B50C4B57201A5C01210A431A543B22FC
:1001C000985C0F24204050242043985456201C5CF7
:1001D00021431954995C47388143052001439954C0
:1001E00010BDC04600440041074A136A80214901FE
:1001F0000B431362054B15225A8059888022D20185
:100200000A435A807047C04600040040000C00407A
:1002100010B5174B9847174B9847174B186802882B
:100220000C218A4304210A43028019680888134A72
:1002300002408020400002430A8019680888104A62
:1002400002408020400102430A8018680288602131
:100250008A4340210A4302801B68E4221A75DC3A73
:100260005A761A761988063A0A431A8010BDC04693
:10027000B1010000E901000004000020FFF8FFFFC9
:10028000FFCFFFFF10B5064B1A6802231373137ECE
:10029000DB07FCD5508B80B2024B984710BDC0469F
:1002A0000800002089080000074A136A80214902DB
:1002B0000B431362054B17225A8059888022D201C2
:1002C0000A435A807047C04600040040000C0040BA
:1002D00030B51F4B002219680A7002201968487057
:1002E00019688A701968CA701B689988194A0A4087
:1002F000802189000A439A809A88D139FF398A433C
:100300009A801A6911398A430C390A431A611969AA
:10031000114A0A40C02149010A431A611A69F021B1
:1003200009050A431A610D4A12683525515D0F24EB
:1003300021401024214351554B24155D01212943AF
:1003400011558021890191609161187030BDC046BE
:1003500008000020FFF8FFFFFFE0FFFF0000002083
:10036000164BC222D2009A6015494A681E20824369
:100370004A601A6A40218A4340310A4311490A40BF
:100380001A62196A02220A431A620F4B00221A7279
:100390005A729A72DA72996908320A439A61012292
:1003A0000A4B1A7019000B781342FCD1074B8022BC
:1003B00052009A60064A5A607047C04600080040E2
:1003C00000400041FFFCFFFF00040040000C004023
:1003D00000060300F8B5114B9847114B9847114B95
:1003E0009847114B9847114FE625AD05B847104B7C
:1003F0001E68104C291CA0470F49A0470F4B984777
:1004000014210F4B9847C0B235235B421B1ADBB255
:1004100033762630C0B27076E8E7C046610300004C
:1004200011020000A9020000D102000085020000B4
:10043000040000201D06000000404E454508000055
:100440004504000003460B437FD4002243088B423F
:1004500074D303098B425FD3030A8B4244D3030B4B
:100460008B4228D3030C8B420DD3FF22090212BA10
:10047000030C8B4202D31212090265D0030B8B428C
:1004800019D300E0090AC30B8B4201D3CB03C01A76
:100490005241830B8B4201D38B03C01A5241430B51
:1004A0008B4201D34B03C01A5241030B8B4201D341
:1004B0000B03C01A5241C30A8B4201D3CB02C01AAC
:1004C0005241830A8B4201D38B02C01A5241430A24
:1004D0008B4201D34B02C01A5241030A8B4201D313
:1004E0000B02C01A5241CDD2C3098B4201D3CB01BA
:1004F000C01A524183098B4201D38B01C01A524169
:1005000043098B4201D34B01C01A524103098B426C
:1005100001D30B01C01A5241C3088B4201D3CB0057
:10052000C01A524183088B4201D38B00C01A52413A
:1005300043088B4201D34B00C01A5241411A00D2EA
:1005400001465241104670475DE0CA0F00D0494253
:10055000031000D34042534000229C4603098B42C3
:100560002DD3030A8B4212D3FC22890112BA030A4B
:100570008B420CD3890192118B4208D389019211CD
:100580008B4204D389013AD0921100E08909C30952
:100590008B4201D3CB01C01A524183098B4201D354
:1005A0008B01C01A524143098B4201D34B01C01A3F
:1005B000524103098B4201D30B01C01A5241C308B7
:1005C0008B4201D3CB00C01A524183088B4201D326
:1005D0008B00C01A5241D9D243088B4201D34B0041
:1005E000C01A5241411A00D20146634652415B1083
:1005F000104601D34042002B00D549427047634664
:100600005B1000D3404201B5002000F005F802BDA8
:100610000029F8D016E770477047C046F0B5574636
:100620004E4645464300E0B446028846760A1F0E11
:10063000C40F002F47D0FF2F25D0002380259A46D6
:100640009946F600ED042E437F3F434642465D0245
:10065000D20F5B006D0A1B0E904640D0FF2B39D0A5
:1006600080220020ED00D20415437F3BFB18424658
:100670005746591C62408C4607430F2F5CD86F4980
:10068000BF00C9598F46002E45D108239A46063B24
:100690009946DAE7424602282DD0032800D1C3E06C
:1006A000012800D0A2E0002500260240D4B2760244
:1006B000ED05760A2E43E407264330001CBC904625
:1006C0009946A246F0BD002E1AD104239A46033B58
:1006D0009946BAE72A00511E8A41901CC6E70120BC
:1006E000002DC3D0280000F017F9431F76309D403D
:1006F00043420020BAE70124FF2514400026D6E734
:10070000300000F009F9431F9E4000237630474235
:100710009A46994699E70C239A46093B994694E7ED
:1007200080260024F603FF25C1E735004846B2E7DE
:10073000350022004846AEE72904090C0800370CB2
:100740003604360C2C0C7943704367437443060C13
:1007500064183619B14203D98021490288464744BA
:100760000004000C310409188D01681E8541890EB2
:100770002943350CED19AD010D43290104D50123A1
:1007800069081D4063460D4319007F31002925DDAE
:10079000680704D00F202840042800D00435280121
:1007A00003D5274980330D401900FE29A3DC01241D
:1007B000AD016E0A1440CDB279E78020C003064235
:1007C00007D0054205D128434602760A4446FF2554
:1007D0006DE706437602760AFF2568E70124611A71
:1007E0001B2905DD14400025002660E76346CBE7A2
:1007F0002E002023CE40591A8D406B1E9D412E4362
:10080000730704D00F233340042B00D00436730148
:1008100004D5012401251440002648E70124B6012F
:10082000760A1440002542E780260124F6032E4371
:100830007602760A1440FF2539E7C046A009000079
:10084000FFFFFFF74302590A4300C20F1B0E0020AF
:100850007E2B0EDD9D2B0DDC802000040143952BAB
:100860000BDC9620C31AD9400B005842002A00D155
:1008700018007047034BD018FBE7963B99400B00DC
:10088000F3E7C046FFFFFF7F70B5002830D0C317E5
:10089000C5185D40C40F280000F03EF89E231B1AC7
:1008A000962B0DDC9622D21A95406A02520AD8B2D3
:1008B0005202C005520AE40702432243100070BDF1
:1008C000992B19DC9922D21A9540124A2A406907BD
:1008D00004D00F210D40042D00D00432510103D566
:1008E0000C4B1A409F231B1A9201520AD8B2DFE721
:1008F000002400200022DBE705222E00121AB92175
:10090000D6402A00C91A8A40551EAA41350015430F
:10091000DBE7C046FFFFFFFB1C2101231B049842BD
:1009200001D3000C10391B0A984201D3000A083980
:100930001B09984201D30009043902A2105C401837
:100940007047C046040302020101010100000000DB
:10095000000000000E4B70B500251E000D4CE41A7F
:10096000A410A54204D0AB00F35898470135F8E72E
:1009700000F036F8084B00251E00084CE41AA410BD
:10098000A54204D0AB00F35898470135F8E770BD95
:10099000EC090000EC090000EC090000F00900007F
:1009A0003807000096060000960600009406000036
:1009B0002A0700002A070000200700009406000014
:1009C0002A070000200700002A0700009406000004
:1009D000300700003007000030070000BA070000B1
:1009E000F8B5C046F8BC08BC9E467047CD00000074
:1009F000F8B5C046F8BC08BC9E467047A50000008C
:0C0A000000440041003000420040004271
:0400000300000109EF
:00000001FF
