S01A000045455F3133385F4C61625F325F5461736B322E7372656362
S11300007022002009010000050100000501000024
S113001000000000000000000000000000000000DC
S113002000000000000000000000000005010000C6
S113003000000000000000000501000005010000B0
S11300400501000005010000050100000501000094
S11300500501000005010000050100000501000084
S11300600501000005010000050100000501000074
S11300700501000005010000050100000501000064
S11300800501000005010000050100000501000054
S11300900501000005010000050100000501000044
S11300A00501000010B5064C2378002B07D1054B41
S11300B0002B02D0044800E000BF0123237010BDD0
S11300C00400002000000000D8370000084B10B5E1
S11300D0002B03D00749084800E000BF0748036825
S11300E0002B00D110BD064B002BFBD09847F9E73D
S11300F00000000008000020D8370000D8370000B6
S113010000000000FEE7C04610B51D4B1D4A9A4290
S113011003D01D4B1A4A9A4204D31C4B1C4A9A42E0
S113012010D31EE01B4A184B03339B1A9B08013360
S11301309B000022124813498C58845004329A427E
S1130140FAD1EAE7144A114B03339B1A9B08013393
S11301509B0000220E4800211418216004329A42A8
S1130160FAD10E4AFF210E4B8B4393600D4A51681E
S113017080230B4353600C4B98470C4B9847FEE786
S113018000000020D8370000040000206C0200208A
S113019004000020040000200800002000ED00E01E
S11301A0000000000040004111350000A5020000DD
S11301B0074A136A8021C9020B431362054B1A22B2
S11301C05A8059888022D2010A435A807047C04617
S11301D000040040000C004010B5134B4220195C91
S11301E00122114319541138195C0F24A1430A4305
S11301F01A540E4B1A68D3795BB2002BFBDB53788D
S11302003F210B4040210B435370084B1A68D379AC
S11302105BB2002BFBDB02231370044B1A6851788A
S113022001230B43537010BD004400410000002023
S1130230164BC222D2009A6015494A681E20824396
S11302404A601A6A40218A4340310A4311490A40EC
S11302501A62196A02220A431A620F4B00221A72A6
S11302605A729A72DA72996908320A439A610122BF
S11302700A4B1A7019000B781342FCD1074B8022E9
S113028052009A60064A5A607047C046000800400F
S113029000400041FFFCFFFF00040040000C004050
S11302A000060300F8B54F464646C0B41B4B9847BA
S11302B01B4B98471B4B984700241B4F1B4D1C4B53
S11302C099462000B8471B4A1B4BA84700221B4BEA
S11302D0C8471B4B984700221A4B1B4EB0470022BD
S11302E01A4BA84700221A4BA8471A4B9847A2005A
S11302F0194BD0500134932CE3D1184B1A680021C8
S11303001548D3795BB2002BFBDB8B001B589BB2E7
S1130310138101319229F4DD0021F2E7310200005A
S1130320B1010000D9010000513400004928000047
S1130330012000001F85EB51B81E19400060624087
S1130340610300000000F03FA91900000000E03F35
S113035000F88F40E533000020000020000000205A
S113036030B5214A4B0087B05B0893421EDD1F4A1B
S1130370934205DD02000B0002F0E0FC07B030BD43
S113038002AA00F035F803231840049A059B0128BB
S11303901ED0022811D000281FD00298039900F023
S11303A02DFA80231B069C466144E7E700230022C4
S11303B00093002300F088FFE0E7012402980399EA
S11303C0009400F081FF80231B069C466144D5E71E
S11303D00298039900F012FAD0E7012402980399D5
S11303E0009400F071FFC9E7FB21E93FFFFFEF7FB5
S11303F0F0B54E4657464546E0B4DC4B4E0090B04F
S11304001700894676089E4200DC81E0D84B9E4264
S113041020DCD84A002900DC89E1D74B02F08EFCAD
S1130420D54B04000D009E4200D18AE0D34AD44B40
S113043002F084FC02000B0020003A607B6029007B
S113044002F07CFCCD4ACE4B02F078FCB860F96037
S1130450012066E0CB4B9E4200DC8DE0CA4B9E42FD
S113046065DCCA4932158A46924453461B05F51A7F
S11304702900040002F0B6FF02F0EAFF02000B00BC
S1130480200029000A920B9302F058FC0022C04B72
S113049002F0DAF90290039102F0A4FF02F0D8FF0F
S11304A004000D0002000B00029803990C940D95B2
S11304B002F044FC0022B64B02F0C6F900220023ED
S11304C00E900F9101F042FA002800D14CE1002374
S11304D000222000290001F039FA0222431E98412B
S11304E0131AAC4A3900019202220AA80092524619
S11304F000F09EFA4B46002B13DA80221206944633
S11305007B68404263447B60FB686344FB6008E0B3
S113051002000B003A607B60002200230020BA60D6
S1130520FB6010B01CBC90469946A246F0BD020088
S11305300B0002F003FCB860F960386079600020B9
S1130540EFE7D3228E4B520502F0F8FB924A934B0D
S113055004000D0002F0F2FB02000B0020003A60E0
S11305607B60290002F0EAFB8B4A8C4B02F0E6FB2D
S1130570B860F9600120D4E700F056FF884A894B3F
S113058004000D0002F060F90022874B01F00CFA20
S113059002F028FF804602F05BFF764A764B069015
S11305A0079102F051F902000B002000290002F02B
S11305B0C5FB734B02900391069807996F4A02F0AA
S11305C043F9434604000D00049405951F2B30DCC9
S11305D0013B764A9B009B589E422AD002000B00A6
S11305E00298039902F0AAFB02000B0005000C001C
S11305F03A607B60029803992A00230002F09EFB74
S1130600049A059B02F09AFB06000B003200BA60C4
S1130610FB604B464046002B00DB82E780231B0631
S11306209C46644461443D607C60BE60F960404225
S113063077E7049A059B0298039902F07FFB0B006D
S113064002003A607B604B0036155B0D05000C0020
S1130650F31A102BCEDD06980799D322484B520586
S113066002F0F2F804000D0002000B000298039956
S113067002F064FB02000B000298039908920993AC
S113068002F05CFB22002B0002F058FB04000D007A
S113069006980799404A414B02F0D6F822002B00F5
S11306A002F04CFB02000B00049005910898099994
S11306B002F044FB02000B003A607B604B005B0DD0
S11306C0F61A0500089A099B0C0002920393312E36
S11306D090DD06980799B822304B920502F0B4F8E1
S11306E004000D0002000B000298039902F026FB9F
S11306F00A0001001300029103920200089809996C
S113070002F01CFB22002B0002F018FB04000D0079
S113071006980799264A274B02F096F822002B00E8
S113072002F00CFB02000B000492059358E7124BF5
S113073001F03AF9104B04000D009E423CD00F4AE0
S11307400F4B01F031F902000B0020003A607B608E
S1130750290002F0F3FA094A094B01F025F9B860BF
S1130760F96001204042DCE60323BAE6FB21E93FBD
S11307707BD9024000004054FB21F93F3163621AE7
S113078061B4D03DFB213941FFFFEF7FEAFBFFFF5E
S113079000007041DC3500007370032E8A19A33BFE
S11307A083C8C96D305FE43F0000E03F5C35000062
S11307B0C14920259A837B39D3220D4B520501F080
S11307C0F3F80C4A0C4B04000D0001F0EDF80200A4
S11307D00B0020003A607B60290002F0AFFA054A62
S11307E0054B01F0E1F8B860F9600120404298E659
S11307F061B4D03D7370032E8A19A33BF0B54F4604
S11308004646C0B487B000920193754B4F008146B1
S113081088467F089F4263DC02F0E4FD002800D193
S1130820DAE04A4643464846414602F00DF80400E1
S11308300D006C4A6C4B02F007F86C4A6C4B01F0EB
S1130840B3F822002B0001F0FFFF6A4A6A4B02F062
S113085075FA22002B0001F0F7FF684A684B01F09B
S1130860A3F822002B0001F0EFFF664A664B02F06A
S113087065FA22002B0001F0E7FF644A644B01F0A3
S113088093F822002B0001F0DFFF02900391002275
S1130890604B2000290001F0D7FF029A039B060059
S11308A00F002000290001F0CFFF009A019B0400F3
S11308B00D004846414601F0C7FF02000B0020002E
S11308C0290002F03BFA02000B003000390002F06C
S11308D035FA02000B0000204F4902F02FFA70E0B5
S11308E002000B0001F0B0FF04000D003D4A3E4B36
S11308F001F0AAFF3D4A3E4B01F056F822002B00BE
S113090001F0A2FF3B4A3C4B02F018FA22002B00F4
S113091001F09AFF394A3A4B01F046F822002B00C5
S113092001F092FF374A384B02F008FA22002B00FC
S113093001F08AFF354A364B01F036F82B002200CD
S113094001F082FF354B029003919F429FDD344BAF
S113095000229F423ADC334900207B182E491600BE
S11309601F0002F0EBF9049005910022294B2000AE
S1130970290001F069FF32003B0002F0DFF9029A1E
S1130980039B06000F002000290001F05DFF009A80
S1130990019B04000D004846414601F055FF02004A
S11309A00B002000290002F0C9F902000B003000FE
S11309B0390002F0C3F902000B000498059902F013
S11309C0BDF907B00CBC90469946F0BD164B002605
S11309D004920593154FC8E700200F49F1E7C0467C
S11309E0FFFF3F3ED43888BEE9FAA8BDC4B1B4BD08
S11309F09EEE213EAD529C804F7E923E9015CB19C7
S1130A00A001FA3E7751C1166CC1563F4C5555555D
S1130A105555A53F0000E03F0000F03F3233D33F7F
S1130A200000E93F0000E0FF0000E73F0000D23F84
S1130A30F0B556464D4644465F46F0B48E4CA54448
S1130A40099119001400A89A0B938C4B9200D25868
S1130A500B000290013BE01E18211D0016000892B5
S1130A60009300F077FEC3430200DB171A40130023
S1130A70110001330E929A009B1ADB001B19069396
S1130A804C1B761918D4A99BA5009C46361926AF91
S1130A906544013607E0286802F0DAFC013403C734
S1130AA00435B44208D0002CF5DA002000210134CA
S1130AB003C70435B442F6D1089B002B01DA00F0D9
S1130AC0F9FB76AB19008B4626AA9146089A0A933D
S1130AD00132D2009344029A9A469046009BDB006E
S1130AE0994408339844009B002B00DAB5E14C4646
S1130AF000260027029D2268636803CD01F0A4FE4E
S1130B0002000B003000390000F04EFF083C0600E4
S1130B100F004545EFD15346C0C39A4608239C466F
S1130B20E144DA45DFD10899554A0B009446634401
S1130B309B0012A884461A000298624483460D92D0
S1130B400B9A0433D200634493440F930591059A9E
S1130B500A98D30019000C938C46030063441E6862
S1130B605F68002A34DD12AB99461300454A80467B
S1130B7094466344DB00984474AB9A460022424B8B
S1130B803000390001F060FE02F02CFC02F060FC41
S1130B9000223E4B04000D0001F056FE02000B0043
S1130BA03000390002F0CAF802F01CFC4B4601C3C5
S1130BB09946434620001A685B68290000F0F4FE59
S1130BC008235B429C46E04406000F00D045D5D183
S1130BD0069B30001A003900994600F0C1FCFF233F
S1130BE000229B0504000D0001F02EFE00F020FC05
S1130BF00022274B01F028FE02000B0020002900F0
S1130C0002F09CF804000D0002F0ECFB804602F0B8
S1130C101FFC02000B002000290002F08FF84C4654
S1130C2006000F00002C00DCF8E0059B18205A1E7B
S1130C30920012AB9B58001B19000141884481406B
S1130C405B1A12A98B501722121B13410793079B9F
S1130C50002B4BDD01239C46059BE044002B00DC6C
S1130C60F2E280251096119712AB00210024094866
S1130C706D04059F19E0C04684FDFFFFE4360000C3
S1130C80FEFFFF3FFFFFFF1F0000703E00007041AA
S1130C9000002040FFFFFF00002A02D0AA1A1A60B9
S1130CA00134013104338F4209DD1A68002CF3D07A
S1130CB0821A01311A60012404338F42F5DC109E3C
S1130CC0119F069B002B0EDD012B00D1B1E0022BFE
S1130CD009D1059B12A95A1E920012AB9B5810937E
S1130CE09B029B0A8B50079B022B7ED00023002281
S1130CF03000390000F02AFE059B002800D16BE289
S1130D0008995A1E914210DCBF490F988C4612A9CB
S1130D1063448C4600219B0063441C68043B2143CC
S1130D208342FAD1002900D0B5E0089B12AA013B06
S1130D309B00D358002B00D084E201220D9B043B7E
S1130D40596801320029FAD005990B008C46013309
S1130D5062440792934242DC0E9A9446A99A6344F1
S1130D6092460B9A9B00944626AA90469A44059B69
S1130D700A9A6344DB0098440C9B94469946079B6B
S1130D80E144DB00634405935346186802F060FBBA
S1130D90434618605960009B002B23DB4446002621
S1130DA00027029D2268636803CD01F04DFD020017
S1130DB00B003000390000F0F7FD083C06000F007E
S1130DC05D45EFD14B469E60DF6004239C460433AF
S1130DD0E2449C46059BE144E0449945D4D1079BF9
S1130DE00593B4E600260027ECE732003B00002020
S1130DF0864901F0A3FF06000F00002C00D175E71F
S1130E00069A0020814900F0ABFB02000B00300081
S1130E10390001F093FF06000F0067E7069B002BE3
S1130E2012D1059B12AA013B9B00D558EB150793E1
S1130E300DE7059B12A95A1E920012AB9B58109302
S1130E405B025B0A8B504EE70022714B00F0A2FD5F
S1130E5000280ED10023079348E7534600260027B5
S1130E60C0C39A4608239C46E144DA4500D03AE6DA
S1130E7059E601239C4601330793059BE044002B6C
S1130E8000DDEEE632003B000020604901F056FF31
S1130E9006000F002AE743460B93069B12A8183B53
S1130EA0190006939300C3580092002B0FD15648A3
S1130EB01300844612A8634484469B006344043BA5
S1130EC05868013A18390028F9D000920691069A18
S1130ED000204E4900F044FB009B04000D00002B51
S1130EE000DAB3E112AA94469F00DB0067449C46F3
S1130EF00A9A0593624493461600386802F0A8FAE9
S1130F0022002B0001F0A0FC424B306071600022F3
S1130F102000290001F098FC083E74AB04000D0089
S1130F20043FB342E9D100239A464EAB0293089B97
S1130F3099464B4600260027002B21DB8020364BA8
S1130F405D469846C005354900260027002408E080
S1130F5008239C460835E044A24511DB4346186843
S1130F6059682A686B6801F06FFC02000B003000BE
S1130F70390000F019FD013406000F00A145E7DA3D
S1130F80029A53469446DB0063441E605F6001236B
S1130F909C46093BE2449C4674ABE3449B45C8D160
S1130FA0029B9946A89B022B00DD82E0002B37DCD4
S1130FB01DD1059B00254B441E0000243268736834
S1130FC02800210000F0F0FC009B05000C00083E06
S1130FD05A1E0092F2D2079B002B03D080231B06DB
S1130FE09C4664442A00230009990A604B60072048
S1130FF00B9B18409F239B009D443CBC9046994604
S1131000A246AB46F0BDC046FFFFFF3F0000F03FE5
S11310100000E03F0000703EF8360000FB21F93F7D
S1131020059B00204B441E0000214CAF32687368BE
S1131030083E00F0B9FCBE42F8D1079B002B24D037
S11310408023099A1B06CB18106053600B00020022
S11310504E984F9901F072FE009B002B0BDD01248A
S113106050AD0CCD00F0A0FC009B0134A342F8DA93
S1131070079B002B03D080231B069C4661440B0076
S1131080020009998A60CB60B1E702000B00099C59
S1131090226063600B0002004E984F9901F04EFEEF
S11310A0009B002BDBDC0B00020009998A60CB60FB
S11310B09DE7A89B032B9AD1009B002B00DCE3E067
S11310C07E4A059B94464B441E685F68009B6344BC
S11310D09A46DB004B4498464CAB9B4643465C68BF
S11310E01B681800210032003B000290039100F0BD
S11310F05BFC04000D0002000B000298039901F050
S11311001DFE3B00320000F04FFC43469860D9605E
S11311101C605D6008235B429C46E04426002F006F
S1131120C345DBD1009B012B00DCADE0059BC84629
S11311304B441E685F685346DB009B46D8444346D5
S113114030005C681B683900009301941A00230086
S113115000F02AFC04000D0002000B000098019925
S113116001F0ECFD3B00320000F01EFC43469860A9
S1131170D9601C605D6008235B429C46E044260005
S11311802F00C145DBD15D460027002408354D44BE
S113119050AE2A686B683800210000F005FC083D59
S11311A007000C00AE42F4D1079B002B71D08021C4
S11311B0099A4E9B090613604B468C465B6864444F
S11311C0634453604B469B68176193604B46DB68EE
S11311D054616344D3600AE7994643460B93069BE4
S11311E030005A42390000F0BBF90022344B0400AD
S11311F00D0000F0CFFB002832D0324B002220003B
S1131200290001F021FB02F0EDF84A4606009700A0
S113121002F01EF900222A4B01F016FB02000B001B
S11312202000290001F08AFD02F0DCF812AAD05156
S11312304A46069B0132183300920693930012AA81
S1131240D65044E601227FE500243AE5A89B022B10
S113125014DC002B0FDC00D0C9E600250024BAE61C
S11312604B46200029009E0002F0BCF812AB9851B6
S11312704B4600932BE600200021DEE64EAB994658
S1131280A89B032B00D0B2E6079B00270024002B69
S11312908DD14E9A4F9B09990A604B604B469A68D0
S11312A0DB68009201938A60CB603A0023000A61F4
S11312B04B619CE676AB0A9335E4C046FFFFFF1F03
S11312C0000070410000703EF0B54F464646C0B481
S11312D087B000920193464A4B00814688465B08DA
S11312E0934205DC02F07EF84146031E484666D070
S11312F04A4643464846414601F0A6FA04000D001A
S113130002000B004846414601F09EFA394A3A4B26
S113131006000F002000290001F096FA374A384BE6
S113132001F00CFD22002B0001F08EFA354A364BF9
S113133000F03AFB22002B0001F086FA334A344BCA
S113134001F0FCFC22002B0001F07EFA314B324A02
S113135000F02AFB0E9B02900391002B34D00098DE
S1131360019900222D4B01F06FFA029A039B04901D
S113137005913000390001F067FA02000B0004986F
S1131380059901F0DBFC22002B0001F05DFA009AC4
S1131390019B01F0D3FC224A04000D00214B3000D4
S11313A0390001F051FA02000B002000290000F07E
S11313B0FBFA02000B004846414601F0BFFC07B0AF
S11313C00CBC90469946F0BD02000B002000290099
S11313D001F03AFA124A134B01F0B0FC32003B0020
S11313E001F032FA4A46434600F0DEFAE7E7C04627
S11313F0FFFF3F3E7CD5CF5A3AD9E53DEB9C2B8A83
S1131400E6E55A3E7DFEB157E31DC73ED561C119DD
S1131410A0012A3F1111813FA6F810110000E03FFE
S1131420495555555555C53F49004B081900704756
S1131430454AF8B5564692464B005B0D9A444D46D4
S11314405F4644465246F0B4894605000C000E003F
S11314500700132A22DC002A47DB52463B4B134188
S113146098460B0042461340034311D0384A394B87
S113147000F09AFA0022002300F082FA002805D036
S1131480002C41DB4E46434600279E433800310082
S11314903CBC90469946A246AB46F8BD5246332A18
S11314A008DD8023DB009A45F2D102000B0000F036
S11314B07BFAEDE7284A9446012263445242DA401B
S11314C093460242E4D0224A224B00F06DFA0022F5
S11314D0002300F055FA0028D8D0002C1ADB5B4614
S11314E04E469F4338003100D2E7194A194B00F0A9
S11314F05BFA0022002300F043FA0028C6D0002C37
S113150016DB00270026C1E7802352465B03134104
S11315109944B7E75346142B12D03423524601277B
S11315209B1A9F407F19AF429B415B429944D6E787
S11315306400640825430027002DA7D0074EA5E7C3
S1131540133B9C46E144CAE701FCFFFFFFFF0F0089
S11315509C7500883CE4377EEDFBFFFF0000F0BF84
S11315604B0070B55B0D14000A00002B1AD14B0020
S11315705B08034315D00022224B01F065F9224B8E
S11315800A009C4222DB4B005B0D363B1F4DE318E7
S1131590AB4220DC002B0DDD1D4C1B0522401A4301
S11315A0110070BD1B4DAB42F0D102000B0000F0E6
S11315B0FBF9F6E71D00353518DA174B02009C429B
S11315C00ADC0B001548164900F032F8134A144B94
S11315D001F03AF9E5E702000B001248124900F065
S11315E027F8104A104B01F02FF9DAE7084C36338C
S11315F022401B051343190000220C4B01F024F96F
S1131600CFE7C04600005043B03CFFFFFE07000098
S1131610FFFF0F80FF07000050C3000059F3F8C21A
S11316201F6EA5019C7500883CE4377E0000903C49
S113163030B54A00DB0FDB0752081A43110030BDF6
S1131640002243088B4274D303098B425FD3030AFD
S11316508B4244D3030B8B4228D3030C8B420DD310
S1131660FF22090212BA030C8B4202D3121209029E
S113167065D0030B8B4219D300E0090AC30B8B42DC
S113168001D3CB03C01A5241830B8B4201D38B038A
S1131690C01A5241430B8B4201D34B03C01A52412F
S11316A0030B8B4201D30B03C01A5241C30A8B4272
S11316B001D3CB02C01A5241830A8B4201D38B025D
S11316C0C01A5241430A8B4201D34B02C01A524101
S11316D0030A8B4201D30B02C01A5241CDD2C30973
S11316E08B4201D3CB01C01A524183098B4201D3EF
S11316F08B01C01A524143098B4201D34B01C01ADA
S1131700524103098B4201D30B01C01A5241C30851
S11317108B4201D3CB00C01A524183088B4201D3C0
S11317208B00C01A524143088B4201D34B00C01AAC
S11317305241411A00D20146524110467047FFE718
S113174001B5002000F0F0F802BDC0460029F7D032
S113175076E7704703460B437FD4002243088B424D
S113176074D303098B425FD3030A8B4244D3030B24
S11317708B4228D3030C8B420DD3FF22090212BAE9
S1131780030C8B4202D31212090265D0030B8B4265
S113179019D300E0090AC30B8B4201D3CB03C01A4F
S11317A05241830B8B4201D38B03C01A5241430B2A
S11317B08B4201D34B03C01A5241030B8B4201D31A
S11317C00B03C01A5241C30A8B4201D3CB02C01A85
S11317D05241830A8B4201D38B02C01A5241430AFD
S11317E08B4201D34B02C01A5241030A8B4201D3EC
S11317F00B02C01A5241CDD2C3098B4201D3CB0193
S1131800C01A524183098B4201D38B01C01A524141
S113181043098B4201D34B01C01A524103098B4245
S113182001D30B01C01A5241C3088B4201D3CB0030
S1131830C01A524183088B4201D38B00C01A524113
S113184043088B4201D34B00C01A5241411A00D2C3
S113185001465241104670475DE0CA0F00D049422C
S1131860031000D34042534000229C4603098B429C
S11318702DD3030A8B4212D3FC22890112BA030A24
S11318808B420CD3890192118B4208D389019211A6
S11318908B4204D389013AD0921100E08909C3092B
S11318A08B4201D3CB01C01A524183098B4201D32D
S11318B08B01C01A524143098B4201D34B01C01A18
S11318C0524103098B4201D30B01C01A5241C30890
S11318D08B4201D3CB00C01A524183088B4201D3FF
S11318E08B00C01A5241D9D243088B4201D34B001A
S11318F0C01A5241411A00D20146634652415B105C
S1131900104601D34042002B00D54942704763463C
S11319105B1000D3404201B5002000F005F802BD81
S11319200029F8D016E770477047C0468446101C5B
S113193062468C46191C634600E0C0461FB500F0A1
S113194019FF002801D40021C8421FBD10B500F0C2
S11319506DFE4042013010BD10B500F00BFF0028B1
S113196001DB002010BD012010BDC04610B500F001
S113197001FF002801DD002010BD012010BDC0467C
S113198010B500F093FE002801DC002010BD0120FA
S113199010BDC04610B500F089FE002801DA002011
S11319A010BD012010BDC046F8B556465F464D46F1
S11319B04446F0B40F00FD0FAA4609037C002E0034
S11319C05F00450F490A7F0D2943C5001803BC4633
S11319D0400A570F640DDB0F3843D2009A4500D1FB
S11319E0AAE06646A61B002E00DCFFE06346002B3F
S11319F039D10300134300D0D9E06B0709D00F237A
S1131A002B40042B05D02B1DAB42AD416D4249192F
S1131A101D000B0200D482E0CA4B01349C4200D169
S1131A20FEE00A005646C84BED081A40500764050C
S1131A3052020543120B640D002112030B0D1B050A
S1131A406405120B1A436308C04CF60714401C4388
S1131A50640064083443280021003CBC9046994645
S1131A60A246AB46F8BDB74B9C42C6D080231B04AC
S1131A701843382E00DDEBE01F2E00DD1EE120238D
S1131A809B1B9C4603006746BB4098461300474691
S1131A90F3403B436746BA40571EBA411343020022
S1131AA0F240EB1A9D42B6411D008A1A7642911B00
S1131AB00B0231D54A02560A002E00D1B4E03000A0
S1131AC001F008FD0300083B1F2B00DDB5E02022D8
S1131AD02900D21AD1409E400A009D4032439C42C4
S1131AE000DDB1E01C1B631C1F2B00DDD5E02021B1
S1131AF014002800C91A8C40D8408D400443DA40B1
S1131B00681E854111002543002476E74146314390
S1131B1000D134E2310045466B0700D06FE75646EA
S1131B204807ED08C9080543864B9C4235D00A0393
S1131B306405120B640D7FE76346E31A9B46002B92
S1131B4000DC8BE06746002F3CD07E4FBC4200D1C6
S1131B5053E780273F0438435B46382B00DCF7E02B
S1131B600243501E82410020D2B253194218AB42A4
S1131B7089411D00494289180B02CDD5714B0134AE
S1131B809C4200D13DE101206F4A6B080A40284085
S1131B901843D507054351082FE72B000B4300D109
S1131BA0CBE180231B030B431A03120B44E7013ED2
S1131BB0002E6DD1AE1AB5429B41091A5B42C91A77
S1131BC0350075E70700174300D116E701235B4290
S1131BD09C46E3445B46002B00D0E0E0AA18AA42EE
S1131BE09B4109185B4259181500C5E7002E75D1B1
S1131BF0661C7605760D012E00DCF3E0AE1AB046C5
S1131C004545BF410E1A7F42F61B370200D48FE0D0
S1131C10551BAA42B641411A76428E1B9A464BE79F
S1131C2056460022002507E7280001F053FC203027
S1131C300300083B1F2B00DC49E72A0028388240B8
S1131C4000259C4200DC4DE73F49E41A1140D4E6EC
S1131C500243501E8241D3B2002222E7002B00D05F
S1131C60F3E0631C9C465B055B0D012B00DC9FE0ED
S1131C70344B9C4500D1C3E0AA180918AA428041FC
S1131C8040424118CD075208154349086446B4E65A
S1131C902C4B9C4200D0ECE6AFE611001F3CE14027
S1131CA00C00202B00D17FE04021CB1A9A40154331
S1131CB06A1E95410021254300242DE733000700C7
S1131CC0203BDF403B00202E70D04027BE1BB0409D
S1131CD00243501E824113430022E2E6002C4FD0FF
S1131CE0184CA44500D1ABE080242404764221435F
S1131CF0382E00DDDFE01F2E00DD43E12027BC1B72
S1131D00A1460C004F46BC40A0462C004746F44078
S1131D103C434F46BD406F1EBD41F1402C43151B53
S1131D20AA429241411A5242891A64469A46BFE62F
S1131D3041464546314300D0BEE600260024002536
S1131D40F2E6C046FF070000FFFF7FFFFFFF0F80A2
S1131D501F2B59DC2027FF1ABC46070063469F400F
S1131D605B46B9461700DF40B8464F4643461F431B
S1131D7063469A40531E9A415B463A43D840F4E680
S1131D800C002C435CD0F643002E55D1551BAA42BF
S1131D90A441411A6442091B9A46644688E6964F58
S1131DA0BC4200D0D8E628E6002280E700208FE776
S1131DB00B002B43002C00D0C2E0002B00D101E12A
S1131DC00300134300D118E6AB18AB42B64109181F
S1131DD0764271180A0200D409E1884A1D001140B4
S1131DE064460AE6002C5BD10E002E4300D08AE044
S1131DF00100114300D1C2E0010015009A46FCE540
S1131E006446002100258FE620235B429C46DC4487
S1131E1063460700DF405B46BC46202B00D1ACE0A4
S1131E2040235F46DB1B98400243501E82416346B9
S1131E3013431A00002098E66F4CA44500D057E7DE
S1131E400100150064469A46D7E5002C39D10C00F0
S1131E502C436ED0DB43002B1AD0674CA44568D0CA
S1131E60382B00DDA4E01F2B00DDAEE020240F00A2
S1131E70E41AA740B9462F00DF40B846A3464F46B0
S1131E80444627435C46A5406C1EA541D9403D43CA
S1131E90AD1895429B4109185B42591864466BE69C
S1131EA00C002C4315D1010011437BD00100150017
S1131EB09A46514CA1E50D43691E8D410021ECB2B7
S1131EC02DE74D4CA44534D0802424045B422143A7
S1131ED0C6E7040014434ED0ED084C072C4380257C
S1131EE0C9082D03294208D0C6082E4205D1D208BC
S1131EF0410711430C009A463100620FC900E50006
S1131F0011433D4C79E50600164300D175E5AE1A40
S1131F10B0464545BF410E1A7F42F61B370200D436
S1131F20F4E5551BAA42B641411A7642891B9A46EA
S1131F3063E50100150064465FE5002200257BE5AA
S1131F40002B3BD00300134315D0ED084B072B4364
S1131F508025C9082D03294207D0C4082C4204D186
S1131F6041070B002100D2081343C9005A0F114343
S1131F70DD00214C41E5204C3FE5002054E70026DC
S1131F800025D1E534000F00203CE7403C00202E22
S1131F902BD04027BE1BB1400D43691E8D4100214B
S1131FA02C43BCE6802100260903134C0025BBE525
S1131FB00D43691E8D410021EDB269E70100150052
S1131FC00D4C1AE50100150017E51C000F00203C1C
S1131FD0E7403C00202B0CD04027FB1A99400D43CE
S1131FE0691E8D410021254352E70021D4E71D00DD
S1131FF092E50021F3E7C046FF070000FFFF7FFFE3
S1132000F0B556464D4644465F46F0B41D000E03F7
S11320104C00CB0F87B0070092468146360B640D07
S113202098466AD06D4B9C4235D08022430F1204EF
S11320301343F6001E43C3009946694B00279C4690
S11320400023644402932B0368001B0BED0F5146DD
S11320509B46400D009500D178E0604B98426CD0CF
S11320605B46DA004B0F802109040B4313439B4664
S11320705346D9005A4B9C46002360444246201ADA
S11320806A40924601901F430F2F00D9B0E0554893
S1132090BF00C0598746374300D088E000239946E3
S11320A00233082700260293CDE74346B346494648
S11320B00093029B009A9246022B00D0BFE10021BC
S11320C053460122002689461A40444B0021360318
S11320D00C0D2405360B2643434C1B0526401E439A
S11320E07600D207760816434846310007B03CBC58
S11320F090469946A246AB46F0BD330003434FD009
S1132100002E00D1BCE1300001F0E4F903000B3BE8
S11321101C2B00DDADE11D220100D31A08393A0061
S11321208F408E40DA40B9461643304B00279C4618
S1132130002360444442029385E753465A461343BE
S11321402CD1002300219B46023397E70B4320D078
S11321505B46002B00D19EE1584601F0BBF9030019
S11321600B3B1C2B00DD8FE102005946083A9140DD
S11321708B461D21CB1A5146D9400B0059460B43BF
S113218051469B469140194B9C4660444042002373
S113219074E7002300219B4601336FE703236DE7B7
S11321A00023994601330427002602934BE70323B7
S11321B00C27029347E70122D51A382D00DCB0E141
S11321C053461A4000210023002689467EE7002357
S11321D08026994600223603004B77E7FF0700006C
S11321E001FCFFFF38370000FFFF0F80F3030000FE
S11321F05E4500D972E100D16DE1019B4D46013B82
S113220001930023340002935B461E020B0E1E430F
S11322100B020393330C994633041B0C49462000EC
S11322200093FFF70DFA009B37004343060049462D
S113223020009846FFF78AFA2C0C09040C43A045A9
S113224009D9E419731EA74200D95CE1A04500D85E
S113225059E1023EE4194346E41A49462000FFF7D7
S1132260EFF90300009A80465343494620009B46F9
S1132270FFF76CFA2A040904120C0A4393450DD99A
S11322804346D219013B974200D93AE1934500D81D
S113229037E102235B429C46D219E0445B46D21AE2
S11322A04346360433439B460399180C0B0C1D001C
S11322B0059309045B46090C0C001B041B0C4443E6
S11322C0049159436B4368431B190D0CEB189C4252
S11322D003D980246402A44660441C0C09041B0432
S11322E0090C20185D18824200D2DEE000D1D7E04C
S11322F0161A029B9C465D1BAC459B415B42F61A39
S1132300B74200D106E149463000FFF799F9009B36
S113231004004343494630009846FFF717FA2E0C51
S113232009040E43B04509D9F619631EB74200D912
S1132330F3E0B04500D8F0E0023CF6194346F31A46
S1132340494618000293FFF77BF9009B06004343BC
S1132350494602989846FFF7F9F92D0409042D0C13
S11323600D43A84509D9ED19731EAF4200D9D6E033
S1132370A84500D8D3E0023EED19240421004346C9
S11323803143049E059A3000ED1A0B040C0C1B0C0F
S113239058436643534354439A19030C9B189E4273
S11323A003D980225202944664441A0C00041B048C
S11323B0000C14191B18A54250D34DD00123194306
S11323C0964A019B94466344002B00DCF3E64A07DB
S11323D009D00F220A40042A05D00A1D8A428941E5
S11323E049428B4411005A46D20108D55A468C4BB7
S11323F01A4093468022D2009446019B6344894A42
S1132400934200DD5BE65A46C9085007084356026A
S1132410514601225B058146360B5B0D0A4055E6A9
S113242080231B031E4211D05A461A420ED15E4627
S11324301E433603360B2A0089467B4B46E6032BA4
S113244000D1E1E0012BBBD11A40BBE61E433603A9
S1132450360B4246744B39E6002BB1D07D194A1E27
S1132460AF4252D91100A542A8D1039A9A42A5D1EC
S1132470A6E703003E00283B9E400023994654E60D
S113248001F028F8203041E603005246283B9A40E8
S11324900021934677E6504601F01CF820305EE6B2
S11324A0029B0026AB4200D323E7039E0299B44665
S11324B061448846B045B6415B467642F619B21887
S11324C0013B0291974213D290424FD800D18EE043
S11324D0161A9B460DE7894500D28EE674084B46D2
S11324E0F60735005B081D434B46DB0702938BE67A
S11324F09742EDD10399029CA142E5D93E1A9B462D
S1132500F7E69846CAE61E00A5E6AC423ED874D06B
S1132510110053E70121494252E71C000EE71E0057
S11325202BE71F2D3CDC20230A0058465B1B9840F8
S1132530EA4099400243481E81415E461143EE4001
S11325404B0709D00F230B40042B05D00B00191D9A
S113255099429B415B42F61833023CD55346012213
S113256000211A40002601238946AFE502235B427D
S11325709C46039CE344A446029B63449846A045BE
S1132580B6417642F6190293B218B1E603988A1E50
S113259041008142B6417642F619AD19039161E7D3
S11325A01F225242D31A5A46DA401300202D29D052
S11325B040225846551BA8400143481E814107202C
S11325C00B4318400026002809D00F2200261A4089
S11325D01900042ABBD10B0070077602360BDB0806
S11325E003439946012253461A4000236EE502999B
S11325F08D42BBD89B4600267BE603989842C5D300
S1132600110032E70020D7E780265B4636031E43DD
S11326103603360B009A8946034B57E5FF03000047
S1132620FFFFFFFEFE070000FF070000F0B55F4656
S113263056464D464446F0B41F035C00DB0F9A46F1
S1132640194B0E034D00C90F8046360B6D0D8B469A
S113265091463F0B640D9D4219D0134B9C421BD0F5
S11326600123A54206D018003CBC90469946A246D8
S1132670AB46F0BDBE42F6D1C845F4D1D34510D027
S1132680002DF0D1304303005A1E9341EBE7310093
S113269001230143E7D1E0E73A430123002AE2D1D1
S11326A0DEE70023DFE7C046FF070000F0B55F4622
S11326B0444656464D46F0B41F033C0B2C4F0E03C4
S11326C04D00A3465C008446360B6D0DC90F904641
S11326D0640DDB0FBD422BD0254FBC422ED0002D04
S11326E00ED130430700814678427841002C17D13F
S11326F05F463A4314D14B460020002B0AD006E033
S1132700002C02D15846024301D099421AD0012329
S1132710484218433CBC90469946A246AB46F0BD9D
S11327200028F2D058425841012240421043F1E7B8
S113273037000743D0D002204042EBE75F461743FF
S1132740CDD0F8E7A542E2DC05DB5E45DFD808D052
S113275000205E45DED248424841012340421843EE
S1132760D8E7C445D3D80020C445F4D3D2E7C04643
S1132770FF070000F0B55F464D4644465646F0B4A8
S11327801C03240BA4462F4C0F034D005E00C90FFD
S113279080463F0B6D0D8B469146760DDB0FA542AF
S11327A020D0284CA64222D0002D12D138434442D6
S11327B04441002E20D0002C0DD05C426341012402
S11327C05B421C4320003CBC90469946A246AB4663
S11327D0F0BD002E17D05B4519D05B465C42012347
S11327E01C43EFE7390002240143EBD1D9E76146EA
S11327F002241143E6D1D7E761460A43DBD1002422
S11328000028DFD0E9E761460A43E4D1E5E7B542B1
S113281003DD01225C421443D4E7B542CDDB6745B6
S1132820DBD809D000246745CCD259464C426141DB
S1132830012449420C43C5E7C845CED80024C84505
S1132840F3D3BFE7FF070000F0B55F4656464D4699
S11328504446F0B40D0399464E002B0B87B0070095
S1132860924680469B46760DCC0F002E69D06D4B68
S11328709E4235D05B468022DD001204430F134391
S11328802B439B46C3009846674B00279C46002376
S1132890664401934A4615035000D20F53462D0B4C
S11328A0400D914600D176E05E4A90426CD0802281
S11328B05B0F120413435C4AED0094461D435346D8
S11328C00022DB00604449463618701C61400290C7
S11328D017430F2F00D9AFE05448BF00C759BF4674
S11328E05B461F4300D088E000239B469846023392
S11328F008270193CEE74946022A6AD0032A00D169
S113290009E2012A00D0BBE1114000220023002586
S11329109046CCB200212D030A0D12052D0B154350
S1132920434A1B0515401D436D00E4076D0825430C
S11329304046290007B03CBC90469946A246AB46A7
S1132940F0BD034352D05B46002B00D18AE15846C8
S113295000F0C0FD03000B3B1C2B00DD7BE11D22BE
S1132960D31A3A0001005D46DA4008398D4013005D
S11329708F402B439B46B8462E4B00279C46002392
S113298060444642019385E752462A432CD10025F0
S11329900023022297E752462A4321D0002D00D17A
S11329A054E1280000F096FD03000B3B1C2B00DDD6
S11329B046E11D21CB1A51460200D9405346083A3C
S11329C0954093400D431B4A944660444042002284
S11329D079E7012400220C40124B0025904699E728
S11329E00025002301226EE703226CE700239B46A7
S11329F098460133042701934CE703230C270193E2
S1132A0048E700238025984600242D03054B81E7E1
S1132A105D464346019A6FE75D4643462100019AAD
S1132A206AE7C046FF07000001FCFFFF783700009B
S1132A30FFFF0F80F30300004246120C91461A0C6C
S1132A409446424617044A461B041B0C5A436046EC
S1132A5090464A4642431000039262461C003F0CD3
S1132A607A437C4342440192220C9246019A524496
S1132A70904506D98246802040028046C244504692
S1132A800390100C049048462404240C12041219D8
S1132A9005922A0C2D042D0C68432C0082464846CE
S1132AA07C4350438146200C804657435744474457
S1132AB0BA4503D9802040028046C144380C3F0403
S1132AC0B84648442404240C01900498A04440448B
S1132AD004905846000C814658460404200C824653
S1132AE0070048465F434C464343604660436446A0
S1132AF0834650464443380C8446E4186444A34255
S1132B0003D980235B029C46E34448463F04230CDC
S1132B103F0C2404E419574668436F4384464D46EA
S1132B20504655434243380C814662444A445B4410
S1132B30944503D9802040028446654403983F04A9
S1132B40834604983F0C8446E344C3458041404295
S1132B508246100484460198674484466744A3442B
S1132B60BC46A345A4419946D44464428742BF412C
S1132B70D4458041E144A04699459B417F4240426F
S1132B80C8440743120CBA18A045A4415F423B0055
S1132B9064422343D71843467D19DB0D6D021D4360
S1132BA05B465A02059B1A43531E9A415B46DB0D52
S1132BB01A4343465B021343EA0107D501225C082A
S1132BC013402343EA07029E13436D08574AB21881
S1132BD0002A4BDD580709D00F201840042805D0DF
S1132BE0181D98429B415B42ED180300E80104D58F
S1132BF04F4A15408022D200B2184E48824200DD6E
S1132C00E7E60124DB08680718436D025305804694
S1132C102D0B5B0D0C407DE68022594612031142B8
S1132C2008D0154206D115432D0398462D0B4C466A
S1132C30414B6FE65D4615432D032D0B3E4B69E674
S1132C4003005546283B9D400023BCE6504600F057
S1132C5041FC2030A8E60300283B9F400023BB46EC
S1132C60984689E600F036FC203073E60124A61A63
S1132C70382E07DD00220C4000230025904649E64B
S1132C80029EA3E71F2E20DC20222C001800921B9A
S1132C90F040944093400443581E83411C43F54044
S1132CA0630709D00F232340042B05D023001C1DE8
S1132CB09C4292415242AD182B021FD5012400229E
S1132CC00C4001230025904624E61F202C0040429E
S1132CD0821AD440202E1CD04022961BB5402B4390
S1132CE0581E83410720234318400025002809D09B
S1132CF00F2200251A401C00042AD8D1230068079B
S1132D006D022D0B0124DB08034398460C4000237D
S1132D1000E60025E3E780220124120315432D0376
S1132D2098462D0B0C40044BF4E5C046FF0300000D
S1132D30FFFFFFFEFE070000FF070000F0B5574647
S1132D404E464546E0B40E001100F20F9246C5000F
S1132D50420F180337037400400A4E0F7F0A3043B2
S1132D60CF4E17435A00640D520DDB0FC900B24217
S1132D7000D1E5E001267340A61AB446534500D1BC
S1132D80AFE0002E00DC0DE1002A3AD103000B4332
S1132D9000D0E4E06B0709D00F232B40042B05D0AF
S1132DA02B1DAB42AD416D427F191D003B0200D487
S1132DB088E0BB4B01349C4200D110E13A00B94B8E
S1132DC051461A4001235007ED0852026405054399
S1132DD0120B640D0B400021280012030D0D120B81
S1132DE064052D0515436208AF4CDB072C401443E2
S1132DF0640064081C4321001CBC90469946A2460A
S1132E00F0BDA74B9C42C5D080231B0418436346E6
S1132E10382B00DDFDE01F2B00DD30E1624620236E
S1132E209B1A02009A40664690460A009940F24076
S1132E3046464B1E99413243114363460200DA4031
S1132E40691A8D429B410D00BA1A5B42D71A3B02A4
S1132E5035D57A02530A98464346002B00D1C4E084
S1132E60404600F037FB0300083B1F2B00DDC5E0A4
S1132E7020222900D21A4746D1409F400A009D4093
S1132E803A439C4200DDC0E01C1B631C1F2B00DD89
S1132E90E4E0202114002800C91AD8408C408D4059
S1132EA00443DA40681E854117002543002471E776
S1132EB0424663461A4300D14CE2674645466B07D7
S1132EC000D069E7012351467807ED08FA080B4062
S1132ED0054373498C4238D012036405120B640D08
S1132EE079E7002E00DC9AE0002A47D06C4A94422D
S1132EF000D14FE78022120410436246382A00DCD6
S1132F0008E10143481E81410022C9B24919D2197E
S1132F10A942BF410D007F42BF183A0200D442E1EA
S1132F205F4A0134944200D14EE101205D4A6908B0
S1132F303A4028400843D507054357089A4629E7ED
S1132F4006000E4300D017E714E72900114300D10F
S1132F50F9E1802109030A431203120B3BE7012321
S1132F605B429846C4446346002B72D1691A8D4271
S1132F709B413F1A5B42FF1A0D0068E702000A43B7
S1132F8000D107E7012252429046C4446246002A17
S1132F9000D0E6E06918A942B6413F187642F71915
S1132FA00D00BAE7002E00D080E0621C5205520DDD
S1132FB0012A00DCF9E06A1A91464D45B6413A1AF5
S1132FC07642921B9046120200D499E04D1BA9420E
S1132FD08941C71B49427A1A90469A463CE75246B1
S1132FE00123002513400022F5E6280000F072FAC0
S1132FF020300300083B1F2B00DC39E72A00283867
S1133000824000259C4200DC3EE7264FE41A17402C
S1133010C0E60143481E81410022C9B210E7002ED8
S113302000D0F1E0621C94465205520D012A00DCE6
S1133030A0E01B4A944500D1C5E06918A942924119
S11330403F185242D2194908D5070D435708644620
S1133050A0E6134B9C4200D0D9E69BE611001F3C2E
S1133060E1400C00202B00D180E04021CB1A9A4093
S113307015436A1E95410027254300241FE7634634
S11330800200203BDA406346202B71D04023664681
S11330909B1B98400143481E814111430022CFE607
S11330A0FF070000FFFF7FFFFFFF0F80002C48D0C9
S11330B0CA4CA24200D1A2E07442A1468024240456
S11330C027434C46382C00DDDBE01F2C00DD44E1B7
S11330D04E462024A41B3E00A640A246B0464C46C1
S11330E02E00E640B4464646644626435446A54070
S11330F06C1EA54134002C434D46EF400D1B28E0C7
S11331004A4643464D461A4300D0A5E60023002410
S11331100025DEE61F2A5ADC66462022921B0600A2
S113312096409146B04662460E00D640424616434B
S11331304A4691404A1E9141020060463143C240D2
S1133140E4E63C002C435AD0F443A146002C52D16F
S11331504D1BA9428941C71B49427F1A14009A4654
S113316075E69E4A944200D0C7E613E600227FE744
S113317000208FE7002C00D0C8E03B002B4300D197
S11331800FE103000B4300D104E66918A9429B41F7
S11331903F185B42DF193B0200D41AE1904B0D004B
S11331A01F406446F6E59A4689E63A002A43002C15
S11331B05CD1002A75D102000A4300D1CAE007009D
S11331C00D009A46E6E564460022002581E6624643
S11331D00600203AD6406246B046202A00D1B7E025
S11331E040226646921B904001434246481E81415C
S11331F0114300228AE6794CA24200D061E707001D
S11332000D0014009A46C5E5002C41D13C002C4326
S113321078D0F443A146002C20D0704CA24271D047
S11332204C46382C00DDB2E01F2C00DDBCE020262B
S1133230341BA2463C005646B4404E46A0462C00E1
S1133240F440A446444666463443A4465446A54046
S113325064466E1EB54125434C46E7406D188D42C9
S113326089413F184942CF19140056E6002A2FD14C
S113327002000A4300D184E007000D009A46574C2F
S113328088E53D436F1EBD41ECB200270D1B60E78E
S1133290524CA24236D0744280263604A1463743AB
S11332A0BEE702000A4300D174E56A1A9046454518
S11332B0B6413A1A7642921B9446120200D4F7E5BC
S11332C04D1BA9428941C71B49427F1A9A4661E5B1
S11332D002000A433AD0ED087C072C438025FA0803
S11332E02D032A4208D0C7082F4205D145072C00D8
S11332F03A009A46C9080C43670FD200E500174309
S1133300364C47E507000D00140043E53A002A4314
S113331043D002000A4319D0ED087C072C438025D2
S1133320FA082D032A4207D0C6082E4204D14707C3
S11333303C003200C9080C43D700620FE500174374
S11333409A46264C26E50022002544E5234C21E537
S1133350002049E700230025BBE54C463E00203C05
S1133360E6404C46B446202C31D040244E46A61BA1
S1133370B7403D436C1EA54164462C4300270D1BFA
S1133380E7E6802200231203144C0025A1E53D4307
S11333906F1EBD410027EDB260E707000D000F4C22
S11333A0F8E407000D00F5E44E463C00203EF440EE
S11333B0A0464C46202C0ED040244E46A41BA740C9
S11333C03D436F1EBD4144460027254346E7002781
S11333D0CFE70D0073E50027F2E7C046FF070000C2
S11333E0FFFF7FFF0B0330B5134D1A0B4B005B0D32
S11333F0C90F0024AB4211DD104CA34210DC802421
S1133400640322430E4CE41A1F2C0CDD0D48C31A2E
S1133410DA4013005C42002900D11C00200030BDBA
S1133420094BCC18FAE7E040084CA44663449A40A0
S113343013000343EEE7C046FE0300001D04000032
S11334403304000013040000FFFFFF7FEDFBFFFFC8
S113345070B5002830D0C317C4185C40C50F2000D5
S113346000F038F8174B184A1B1AD21A1F2A18DD15
S1133470164AD21A9440002224035B05240B5B0DE8
S11334800021100024030A0D1205240B1443104AD2
S11334901B0514401C436400ED0764082C43210001
S11334A070BD210091400A000B21081AC4405B053D
S11334B02403240B5B0DE3E70025002300240022F2
S11334C0DEE7C0461E0400003304000013040000BD
S11334D0FFFF0F801C2101231B04984201D3000C21
S11334E010391B0A984201D3000A08391B09984273
S11334F001D30009043902A2105C40187047C04689
S113350004030202010101010000000000000000A8
S11335100E4B70B500251E000D4CE41AA410A542F4
S113352004D0AB00F35898470135F8E700F044F9AC
S1133530084B00251E00084CE41AA410A54204D030
S1133540AB00F35898470135F8E770BDC437000065
S1133550C4370000C4370000C8370000FB21F93F1E
S1133560FB2109407CD91240FB2119407A6A1F4093
S11335707CD92240BBFD2540FB2129403A462C4002
S11335807A6A2F405C4731407CD932409C6B34408E
S1133590BBFD3540DB8F3740FB2139401BB43A403B
S11335A03A463C405AD83D407A6A3F404C7E4040BF
S11335B05C4741406C1042407CD942408CA243405D
S11335C09C6B4440AC344540BBFD4540CBC64640B3
S11335D0DB8F4740EB584840FB21494083F9A20068
S11335E0444E6E00FC291500D1572700DD34F50048
S11335F062DBC0003C999500419043006351FE009A
S1133600BBDEAB00B761C5003A6E2400D24D420068
S11336104906E00009EA2E001C92D100EB1DFE00D1
S113362029B11C00E83EA700F535820044BB2E00FA
S11336309CE98400B4267000417E5F00D691390075
S1133640538339009CF439008B5F840028F9BD0052
S1133650F81F3B00DEFF97000F980500112FEF00C5
S11336600A5A8B006D1F6D00CF7E360009CB2700F0
S1133670464FB7009E663F002DEA5F00BA277500EB
S1133680E5EBC7003D7BF100F739070092528A0051
S1133690FB6BEA001FB15F00085D8D00300356002C
S11336A07BFC4600F0AB6B0020BCCF0036F49A00E4
S11336B0E3A91D005E619100081BE6008599650081
S11336C0A0145F008D40680080D8FF0027734D0070
S11336D006063100CA561500C9A873007BE26000D3
S11336E06B8CC00002000000030000000400000016
S11336F0060000000000000000000040FB21F93F2C
S1133700000000002D44743E000000809846F83C00
S11337100000006051CC783B00000080831BF0392E
S11337200000004020257A38000000802282E33621
S1133730000000001DF36935F0210000BE200000E8
S1133740C4210000B4200000C4210000CE210000E8
S1133750C4210000B4200000BE200000BE200000F0
S1133760CE210000B4200000AA200000AA200000FE
S1133770AA20000020240000382A0000F8280000B5
S1133780F8280000F6280000102A0000102A000083
S1133790022A0000F6280000102A0000022A000075
S11337A0102A0000F6280000182A0000182A000039
S11337B0182A0000182C0000F8B5C046F8BC08BC54
S11337C09E467047CD000000F8B5C046F8BC08BC62
S10B37D09E467047A5000000AD
S10737D8004800425F
S9030109F2
