S01A000045455F3133385F4C61625F355F5461736B312E7372656360
S1130000A8200020090100000501000005010000EE
S113001000000000000000000000000000000000DC
S113002000000000000000000000000005010000C6
S113003000000000000000000501000005010000B0
S11300400501000005010000050100000501000094
S1130050490600000501000005010000050100003B
S11300600501000005010000050100000501000074
S11300700501000005010000050100007D060000E7
S1130080550E0000050100000501000005010000F7
S11300900501000005010000050100000501000044
S11300A00501000010B5064C2378002B07D1054B41
S11300B0002B02D0044800E000BF0123237010BDD0
S11300C02000002000000000102E0000084B10B596
S11300D0002B03D00749084800E000BF0748036825
S11300E0002B00D110BD064B002BFBD09847F9E73D
S11300F00000000024000020102E0000102E00003C
S113010000000000FEE7C04610B51D4B1D4A9A4290
S113011003D01D4B1A4A9A4204D31C4B1C4A9A42E0
S113012010D31EE01B4A184B03339B1A9B08013360
S11301309B000022124813498C58845004329A427E
S1130140FAD1EAE7144A114B03339B1A9B08013393
S11301509B0000220E4800211418216004329A42A8
S1130160FAD10E4AFF210E4B8B4393600D4A51681E
S113017080230B4353600C4B98470C4B9847FEE786
S113018000000020102E000020000020A800002005
S113019020000020040000202400002000ED00E0E6
S11301A00000000000400041A52C0000350B0000B9
S11301B0F0B557464E46C0B483B01E4C20681E4B63
S11301C01D681E4B9847291C1D4B98471D4F3860CE
S11301D038681D4D2B689A461C4B994698471C4A13
S11301E01C4B1D4EB047009001915046C847020079
S11301F00B0000980199194EB047194B9847286095
S1130200184B18683968184B1F682E68174DA84793
S11302100090311C381CA847011C0098144B9847C7
S1130220144B186023680433236003B00CBC91465C
S11302309A46F0BD94000020A0000020491E000052
S1130240F91A0000540000203C000020A92A0000F4
S1130250111111111111913F31250000D91E000017
S1130260512B0000000000201C000020D1180000C9
S11302705112000044000020F0B557464E46C0B469
S113028083B01F4B18681F4F3C681F4B9847211CB5
S11302901E4B98471E4D286028681E4C23689A46BA
S11302A01D4B994698471D4A1D4B1E4EB047009062
S11302B001915046C84702000B00009801991A4E5C
S11302C0B0471A4B98472060194B18682968194B96
S11302D01E682568184CA0470090291C301CA047B4
S11302E0011C0098154B9847154B18603868154B3E
S11302F09847154B186003B00CBC91469A46F0BD64
S113030004000020A0000020491E0000F91A00008B
S1130310540000203C000020A92A000011111111F2
S11303201111913F31250000D91E0000512B00000E
S1130330000000201C000020D11800005112000011
S113034044000020051E000094000020F0B557462C
S11303504E46C0B483B01E4C20681E4B1D681E4B15
S11303609847291C1D4B98471D4F386038681D4D10
S11303702B689A461C4B994698471C4A1C4B1D4EA9
S1130380B047009001915046C84702000B00009806
S11303900199194EB047194B98472860184B1868B3
S11303A03968184B1F682E68174DA8470090311CF8
S11303B0381CA847011C0098144B9847144B18602C
S11303C02368043B236003B00CBC91469A46F0BDFD
S11303D094000020A0000020491E0000F91A00002B
S11303E0540000203C000020A92A00001111111122
S11303F01111913F31250000D91E0000512B00003E
S1130400000000201C000020D11800005112000040
S11304104400002070B53C4B1B68022B0ED002DC5C
S1130420012B05D06FE0032B32D0042B49D06AE0B6
S1130430364B1B6800221A765A7664E0344B984790
S1130440344C20683449354B98473549354B9847E7
S1130450354B9847354B984720602C4B1D682068D6
S1130460334B9847C0B2687600232B76314B18681B
S11304703149324B9847002845D02E4B18683049F3
S1130480304B984700283ED003221F4B1A603AE0B5
S11304902D4B98471F4C20681F49204B98472049F3
S11304A0204B9847204B9847204B98472060174B88
S11304B01D6820681E4B9847C0B2687600232B76CF
S11304C021E0224B9847134C20681349134B98475B
S11304D01349144B9847144B9847144B9847206082
S11304E00A4B1D682068124B9847C0B268760023F7
S11304F02B76104B18680021154B9847002802D022
S11305000122014B1A6070BD100000200C00002075
S1130510B101000044000020000096453D15000094
S113052000007F43D1180000051E0000491E000092
S113053021120000A000002000E0BA44F9110000DC
S11305400020BC44D1110000790200004D030000DA
S1130550C51100007F22274B9A60002804D1403A3D
S11305605A6101329A610FE0012805D1214B06221C
S11305705A6173329A610FE0022805D11D4B5B2248
S11305805A61373A9A610FE0032805D1194B4F227B
S11305905A611F3A9A610FE0042805D1154B66226F
S11305A05A614D3A9A610FE0052805D1114B922208
S11305B09A61253A5A610FE0062805D10D4B7D2238
S11305C05A617B3A9A610DE0072805D1094B07224D
S11305D05A6171329A610CE0082803D17F22054BDD
S11305E05A6106E0092804D1024B67225A614F3A46
S11305F09A61704780440041064A916940230B4345
S11306009361054B03225A8059888022D2010A4300
S11306105A80704700040040000C0040094B00223F
S11306201A70DA68802149000A43DA60DA69F93914
S11306308A4306390A43DA61197802220A431A7096
S11306407047C04600180040094B1B6A5B0404D580
S1130650084A1368013B136003E0064A1368013338
S11306601360054A1369802149000B4313617047E5
S1130670804400417000002000180040F0B5574647
S11306804E464546E0B482B0294B1B68002B05DA80
S1130690274B1B685B42274A136003E0244B1A680C
S11306A0244B1A60234D2868234B9847234C00227F
S11306B0234BA047234B98469847234B1860234B62
S11306C0186000221A490A602A601B68204E3360B1
S11306D0204F3868204D2B689A46204B99469847FE
S11306E01F4A204BA047009001915046C8471E4A1C
S11306F01E4BA04702000B00009801991C4CA04718
S1130700C0471C4B18601A683A6032682A6018683F
S1130710194B9847194B1860194B1A68917B0123A0
S11307200B43937302B01CBC90469946A246F0BD9D
S11307307000002040000020252A00003125000020
S113074000003E40512B000078000020740000207F
S1130750A0000020A400002088000020A92A000096
S113076017B7D100DE02EF3F5C72DC291DAC9F3F5E
S1130770D91E000090000020051E00005800002033
S113078008000020084B1A6808490A431A6000212F
S1130790C122920099508021C90508329950044918
S11307A0043299507047C04600E100E01080030015
S11307B080C0000030B5144B5720195C012211434E
S11307C019543B215C5C48380F252C4050252C43A0
S11307D05C5456255C5D14435C555C5C8443052580
S11307E02C435C545C24195D114319551E3C195D5E
S11307F0814319551900CE310C7822430A70B7335E
S11308001A7882431A7030BD00440041074A136AC3
S11308108021C9000B431362054B14225A80598866
S11308208022D2010A435A807047C0460004004027
S1130830000C0040074A136A802149010B431362EC
S1130840054B15225A8059888022D2010A435A80C6
S11308507047C04600040040000C004010B5164B21
S11308609847164B186802880C218A4304210A43CE
S1130870028019680888124A0240C020C00002435E
S11308800A80196808880F4A024080204001024308
S11308900A801868028860218A4340210A43028042
S11308A01B689C221A75597B01220A435A731988C2
S11308B002220A431A8010BD0D080000080000201F
S11308C0FFF8FFFFFFCFFFFF1B4A136A80210901D6
S11308D00B431362194B14225A8059888022D20187
S11308E00A435A80164B186802880C218A43042153
S11308F00A43028019680A88E020C00002430A8083
S1130900196808880F4A02408020400102430A8087
S11309101868028860218A4340210A4302801B68C8
S113092082221A75597B01220A435A7319880222BA
S11309300A431A807047C04600040040000C00407F
S113094018000020FFCFFFFF10B5134B9847134B3F
S1130950186802880C218A4304210A43028019681A
S113096008880F4A02400A80196808880D4A024024
S11309708020400102430A801868028860218A436B
S113098040210A4302801B68FF221A751988FD3A28
S11309900A431A8010BDC046350800000C00002030
S11309A0FFF8FFFFFFCFFFFF074A00231360FA237E
S11309B09B0058431368984205DD136801331360A4
S11309C013688342F9DB70474C000020F8B55F469A
S11309D056464D464446F0B4314B1B68314E3360A5
S11309E0314D80276F617023AB6110339A46AA445E
S11309F053465F6130682D4B9B46FA218900984726
S1130A002B4CE0602B4B9946984701202A4B984683
S1130A10984740236B617033AB6153469F613368E1
S1130A202648E2685043C0186421D847A060C847EC
S1130A300120C04720236B61B033AB6153469F61F3
S1130A4033681E48E2685043C01864235B42A268BE
S1130A505343C0180A21D8476060C8470120C047E3
S1130A6010236B61D033AB6153469F6133681348E5
S1130A70E2685043C01864235B42A2685343C01821
S1130A800A235B4262685343C0182060C8470120B0
S1130A90C0473CBC90469946A246AB46F8BDC0460A
S1130AA0580000205C00002000440041D50F0000E5
S1130AB06000002055050000A909000018FCFFFF94
S1130AC0164BC222D2009A6015494A681E208243FE
S1130AD04A601A6A40218A4340310A4311490A4054
S1130AE01A62196A02220A431A620F4B00221A720E
S1130AF05A729A72DA72996908320A439A61012227
S1130B000A4B1A7019000B781342FCD1074B802250
S1130B1052009A60064A5A607047C0460008004076
S1130B2000400041FFFCFFFF00040040000C0040B7
S1130B300006030010B50D4B98470D4B98470D4B1D
S1130B4098470D4B98470D4B98470D4B98470D4BC5
S1130B5098470D4B984700230C4A13600C4A1360C6
S1130B600C4A13600C4A1360FEE7C046C10A000039
S1130B70B50700005D08000049090000C90800002D
S1130B80F90500001D06000085070000880000200C
S1130B90A0000020A400002090000020264BF0229A
S1130BA012035A60062253215A5401395A54013906
S1130BB05A5401395A540021204A116080221203E8
S1130BC09A61E021C90259611B6A134202D00122D1
S1130BD01A4B1A60184B8022D2029A61B021090381
S1130BE059611B6A134202D00122144B1A60124B42
S1130BF0802292029A61D021090359611B6A13422F
S1130C0002D001220D4B1A600B4B802252029A61D2
S1130C10E021090359611B6A134203D00122074BE7
S1130C201A6007E0054B1B68002B03D1044A1368C4
S1130C30013313607047C04600440041980000200F
S1130C407C000020314BF02212035A60062253210B
S1130C505A5401395A5401395A5401395A54002109
S1130C602B4A1160802212039A61E021C902596162
S1130C701B6A134206D0274A13680133136001220A
S1130C80234B1A60214B8022D2029A61B0210903BE
S1130C9059611B6A134206D01E4A1368013313605C
S1130CA001221B4B1A60194B802292029A61D021B7
S1130CB0090359611B6A134206D0164A13680133AB
S1130CC013600122124B1A60104B802252029A6167
S1130CD0E021090359611B6A134207D00D4A1368C6
S1130CE00133136001220A4B1A6007E0084B1B68AA
S1130CF0002B03D1084A136801331360054B1B68AA
S1130D000A2B02DD0222054B1A60704700440041A1
S1130D1098000020500000207C00002048000020A3
S1130D20224BF02212035A60062253215A540139ED
S1130D305A5401395A5401395A54802212039A617F
S1130D40E021C90259611B6A134202D00122184BE7
S1130D501A60164B8022D2029A61B02109035961AC
S1130D601B6A134202D00122114B1A600F4B8022DE
S1130D7092029A61D021090359611B6A134202D07D
S1130D8001220B4B1A60094B802252029A61E02126
S1130D90090359611B6A134203D00122044B1A60F0
S1130DA002E00022034B1A607047C0460044004131
S1130DB0480000205000002070B5234BF0229A60B8
S1130DC0F02212035A60062253215A5401395A540C
S1130DD001395A5401395A546A329A6110325A61AB
S1130DE0802212039A61E021C90259611B6A1342ED
S1130DF00DD0154B1B6A1B0306D5144E124D14005F
S1130E00B0472B6A2342FBD10122114B1A600E4BCF
S1130E10E0229A61D03A5A618022D2029A61B021CA
S1130E20090359611B6A13420DD0074B1B6A5B030C
S1130E3006D5064E044D1400B0472B6A2342FBD15D
S1130E400022034B1A6070BD00440041CD0900002C
S1130E501400002070B5534BF0229A60F022120364
S1130E605A60062253215A5401395A5401395A54AA
S1130E7001395A544C4B1B68012B1FD002DC002B48
S1130E8005D075E0022B3DD0032B41D070E0454CDA
S1130E9080236361103BA361444DA84740236361F1
S1130EA07033A361A84720236361B033A361A847CB
S1130EB010236361D033A361A84759E03C4E00235B
S1130EC03360384C80336361103BA361394DA847CC
S1130ED0402363617033A361A84720236361B03367
S1130EE0A361A84710236361D033A361A847336883
S1130EF0042B3DD100232C4A13602F4A13602C4A43
S1130F00136035E02D4B98470322274B1A602FE0DE
S1130F10274E00233360234C80336361103BA3616D
S1130F20274DA847402363617033A361A84720235A
S1130F306361B033A361A84710236361D033A36115
S1130F40A8471D4A1368013313603368042B03D187
S1130F5013680133136002E00022174B1A60164B2A
S1130F601B680A2B04DD00230F4A1360124A136026
S1130F70144B1B68012B05D10222134B1A6001325A
S1130F80104B1A600F4B1B68002B05D104220E4B2B
S1130F901A60013A0B4B1A600C4B98470C4B98475C
S1130FA070BDC0460044004148000020210D0000EF
S1130FB07C000020450C000050000020B90D00000A
S1130FC09D0B0000140000201000002015040000F8
S1130FD0CD09000003460B437FD4002243088B4213
S1130FE074D303098B425FD3030A8B4244D3030BAC
S1130FF08B4228D3030C8B420DD3FF22090212BA71
S1131000030C8B4202D31212090265D0030B8B42EC
S113101019D300E0090AC30B8B4201D3CB03C01AD6
S11310205241830B8B4201D38B03C01A5241430BB1
S11310308B4201D34B03C01A5241030B8B4201D3A1
S11310400B03C01A5241C30A8B4201D3CB02C01A0C
S11310505241830A8B4201D38B02C01A5241430A84
S11310608B4201D34B02C01A5241030A8B4201D373
S11310700B02C01A5241CDD2C3098B4201D3CB011A
S1131080C01A524183098B4201D38B01C01A5241C9
S113109043098B4201D34B01C01A524103098B42CD
S11310A001D30B01C01A5241C3088B4201D3CB00B8
S11310B0C01A524183088B4201D38B00C01A52419B
S11310C043088B4201D34B00C01A5241411A00D24B
S11310D001465241104670475DE0CA0F00D04942B4
S11310E0031000D34042534000229C4603098B4224
S11310F02DD3030A8B4212D3FC22890112BA030AAC
S11311008B420CD3890192118B4208D3890192112D
S11311108B4204D389013AD0921100E08909C309B2
S11311208B4201D3CB01C01A524183098B4201D3B4
S11311308B01C01A524143098B4201D34B01C01A9F
S1131140524103098B4201D30B01C01A5241C30817
S11311508B4201D3CB00C01A524183088B4201D386
S11311608B00C01A5241D9D243088B4201D34B00A1
S1131170C01A5241411A00D20146634652415B10E3
S1131180104601D34042002B00D5494270476346C4
S11311905B1000D3404201B5002000F005F802BD09
S11311A00029F8D016E770477047C0468446081CEB
S11311B06146FFE71FB500F047FB002801D400217A
S11311C0C8421FBD10B500F0D3FA4042013010BD33
S11311D010B500F039FB002801DB002010BD012010
S11311E010BDC04610B500F02FFB002801DD002023
S11311F010BD012010BDC04610B500F0E1FA002872
S113120001DC002010BD012010BDC04610B500F067
S1131210D7FA002801DA002010BD012010BDC04615
S11312209E2110B5C905041CFFF7F0FF002803D167
S1131230201C00F0E7FD10BD9E21201CC90500F014
S11312405BFC00F0DFFD80231B069C466044F2E754
S1131250F8B54A02430244004E00C50F240E28008C
S11312609B09360EC90F92098D4259D0A01B002844
S113127000DC8DE0002E1AD1002A00D079E05A0754
S113128004D00F221A40042A00D004335A0138D55E
S11312900134FF2C00D189E028009B015B0AE4B2F1
S11312A05B02E4055B0A2343C0071843F8BDFF2C27
S11312B0E5D08021C9040A431B2800DD89E016001B
S11312C02021C640081A8240511E8A4132439B1A8B
S11312D05A0114D59B019E09300001F0C5FC053864
S11312E08640844265DC041B330020200134E34043
S11312F0041BA640721E964100243343BFE75A07DD
S1131300BFD1DF082800FF2C2FD1002F00D187E0A8
S11313108022D20313003B435B025B0AFF24BFE736
S1131320A11B002949DD002E29D0FF2CA7D080263F
S1131330F60432431B2900DD8DE017002026CF4040
S1131340711A8A40511E8A413A439B185A01D6D5D4
S11313500134FF2C64D0012276491A405B080B400B
S113136013438CE7031ECAD100207B025B0AE4B25C
S113137096E701380028AAD0FF2C9DD17FE7002AE8
S113138000D17CE701390029DFD0FF2CD2D176E7E8
S1131390002820D1601CC0B2012853DD80279E1A8A
S11313A0FF0437402FD0D61A0D0095E728000023FC
S11313B076E7614B241A334061E700294DD1611C63
S11313C0CEB2012E2FDDFF292AD09B185B080C001A
S11313D055E701227BE7002C1BD1002B5BD0C043D7
S11313E000280CD0FF2E7ED01B2800DD92E01D00CB
S11313F02024C540201A8340581E83412B43D31A0E
S113140034000D0064E7002E00D065E700200024BE
S1131410ABE7FF2E67D08024E40440422343E3E794
S1131420FF2400233CE7002C61D1002B7ED0002A4E
S113143000D124E79B185A0100D460E73E4A0C000F
S113144013401CE7002C1ED1002B2FD1002A66D09C
S113145013000D0013E7012277E7002C1FD1002BA6
S11314605AD0C94300290BD0FF2E50D01B295FDC72
S11314701F002024CF40611A8B40591E8B413B43EF
S11314809B18340062E7002B1CD1002A4AD01300B9
S11314900D00FF24F3E6130034000D00EFE6FF2EE9
S11314A035D08024E40449422343DFE7002A00D1F5
S11314B0E5E68027981AFF04074000D152E7D31AC3
S11314C00D00DCE6FF24002A00D1D8E68020DB08EA
S11314D0C003034204D0D208024201D113000D001C
S11314E0DB00FF24CBE61300FF240D00C7E6002B2E
S11314F00DD0FF24002A00D1C1E68021DB08C903F6
S11315000B42EDD0D2080A42EAD11300E8E71300F7
S1131510FF24B4E6012372E713003400AFE600278A
S1131520002022E780270020FF03F1E61300A6E64F
S11315300123A5E7FFFFFF7DFFFFFFFBF0B5564644
S113154044465F464D46F0B444024600C70F83B09C
S11315508846650A360EBA463DD0FF2E22D00023B7
S1131560EC00802599469B46ED0425437F3E434687
S11315705C025800DB0F640A000E984636D0FF2840
S113158030D080230021E400DB041C437F38301A70
S11315900190484642460843724E800030587A40D3
S11315A013008746002D44D108239946063B9B46E9
S11315B0DDE70122FF2000241A406402C305640A07
S11315C0D2071C431443200003B03CBC9046994608
S11315D0A246AB46F0BD002D20D104239946033B1F
S11315E09B46C4E7002C17D1022102E0002C0AD14B
S11315F00121321A01924A4643460A435A4892004C
S113160082587B409746200001F02EFB431F763022
S11316109C4040420021BAE70321B8E7280001F0CA
S113162023FB431F9D4000237630464299469B4648
S11316309DE70C239946093B9B4698E780240022AA
S1131640E403FF20B9E70024C2468B465A465346BA
S1131650022AAED0032A7DD0012A31D101220020F2
S11316601A400024A9E70122101A1B2856DD1A404B
S113167000200024A1E78023DB031D424BD18023FB
S1131680DB032B435C02640A3A00FF2095E76D01FB
S11316906001854230D2019A0024013A01921B2252
S11316A00127290064006D00002901DBA84201D84C
S11316B02D1A3C43013A002AF3D16A1E95412C436A
S11316C001987F300028CEDD620704D00F2222402B
S11316D0042A00D00434220103D5244A019814407A
S11316E08030FE2800DD64E70122A401640AC0B250
S11316F01A4062E72C00A9E72D1A1A220124CFE729
S11317006B02BCD500248023DB031C436402640AFF
S11317104246FF2051E71C42B3D1F4E721002022C6
S1131720C140101A8440621E94410C43620704D0E5
S11317300F222240042A00D00434620104D501227D
S113174001201A40002438E70122A401640A1A4047
S1131750002032E78023DB031C436402640A524600
S1131760FF202AE7F02C0000302D0000FFFFFFF7D8
S1131770430270B542004C005D0AC30F4802120ECA
S1131780460A240EC90FFF2A0FD0FF2C11D00120C6
S1131790A24200D070BDB542FCD18B420DD0002ACC
S11317A0F8D12800431E9841F4E70120002DF1D11F
S11317B0EBE70120002EEDD1E9E70020EAE7C0467F
S11317C04302F0B542005D0AC30F4802440A4800D0
S11317D0120E000EC90FFF2A1FD0FF2822D0002AA4
S11317E009D16E426E4100280FD1002C0DD100208A
S11317F0002D09D005E0002801D1002C01D08B4236
S113180013D0584201231843F0BD002EF7D04842AC
S11318104141012049420843F6E7002DDDD0022072
S11318204042F1E7002CDAD0F9E78242E9DC04DB3C
S1131830A542E6D80020A542E6D258424341012001
S11318405B421843E0E7C0464302F0B542004C0057
S11318505E0AC30F4802120E450A240EC90FFF2A5E
S113186017D0FF2C19D0002A0BD170427041002CE4
S113187017D0002807D0484241410120494208437B
S1131880F0BD002C13D08B4214D0584201231843CE
S1131890F6E70220002EF3D1E3E70220002DEFD17A
S11318A0E1E7002DE5D10020002EE9D0EDE7002D81
S11318B0E9D1EAE7A242E8DC04DBAE42E5D8002045
S11318C0AE42DDD25842434101205B421843D7E780
S11318D0F0B557464E4645464300E0B446028846B6
S11318E0760A1F0EC40F002F47D0FF2F25D00023E8
S11318F080259A469946F600ED042E437F3F4346E1
S113190042465D02D20F5B006D0A1B0E904640D02A
S1131910FF2B39D080220020ED00D20415437F3BF9
S1131920FB1842465746591C62408C4607430F2F0A
S11319305CD86F49BF00C9598F46002E45D1082392
S11319409A46063B9946DAE7424602282DD00328F8
S113195000D1C3E0012800D0A2E000250026024007
S1131960D4B27602ED05760A2E43E407264330000E
S11319701CBC90469946A246F0BD002E1AD1042301
S11319809A46033B9946BAE72A00511E8A41901CA5
S1131990C6E70120002DC3D0280001F065F9431FDC
S11319A076309D4043420020BAE70124FF251440CD
S11319B00026D6E7300001F057F9431F9E4000236C
S11319C0763047429A46994699E70C239A46093B52
S11319D0994694E780260024F603FF25C1E73500E5
S11319E04846B2E7350022004846AEE72904090C10
S11319F00800370C3604360C2C0C794370436743CB
S1131A007443060C64183619B14203D98021490283
S1131A10884647440004000C310409188D01681EEF
S1131A208541890E2943350CED19AD010D4329017A
S1131A3004D5012369081D4063460D4319007F3115
S1131A40002925DD680704D00F202840042800D091
S1131A500435280103D5274980330D401900FE2998
S1131A60A3DC0124AD016E0A1440CDB279E78020D5
S1131A70C003064207D0054205D128434602760A30
S1131A804446FF256DE706437602760AFF2568E79C
S1131A900124611A1B2905DD14400025002660E796
S1131AA06346CBE72E002023CE40591A8D406B1E8F
S1131AB09D412E43730704D00F233340042B00D0E1
S1131AC00436730104D5012401251440002648E797
S1131AD00124B601760A1440002542E78026012439
S1131AE0F6032E437602760A1440FF2539E7C046F2
S1131AF0702D0000FFFFFFF7F8B54A024E004302C5
S1131B004400240EC50F9B09360EC90F9209FF2EFF
S1131B1000D183E001204140A01BA9425CD00028F1
S1131B2000DC95E0002E1CD1002A00D081E05A0789
S1131B3004D00F221A40042A00D004335A013BD5A2
S1131B400134FF2C00D191E001209B015B0AE4B237
S1131B5005405B02E4055B0AED0723432B431800B1
S1131B60F8BDFF2CE3D08021C9040A431B2800DD03
S1131B7090E016002021C640081A8240511E8A4176
S1131B8032439B1A5A0115D59B019E09300001F07E
S1131B906BF80538864084426CDC041B330020203B
S1131BA00134E340041BA640721E964100243343D3
S1131BB0BDE70D005A07BCD1DF0801231D40FF2CEF
S1131BC033D1002F00D190E08022D20313003B4395
S1131BD05B025B0AFF24BCE700284FDD002E2ED0F9
S1131BE0FF2CA4D08025ED042A431B2800DD97E0B8
S1131BF016002025C640281A8240501E82413243D6
S1131C009B185A01D5D50134FF2C6DD001227B4895
S1131C101A405B08034013430D0088E7002A00D0F4
S1131C207AE777E7031EC5D100257B025B0AE4B29D
S1131C308FE701380028A4D0FF2C97D177E7002A3A
S1131C4000D174E701380028DAD0FF2CCDD16EE73B
S1131C50002821D1601CC0B2012858DD80279E1ABB
S1131C60FF0437402FD0D61A0D008FE701231D4003
S1131C7000236EE7624B241A334058E7002851D101
S1131C80601CC6B2012E33DDFF282DD09B185B08E3
S1131C9004004CE7012274E7002C1AD0FF2E1FD059
S1131CA08024E404404223431B2800DD96E01D0009
S1131CB02024C540201A8340581E83412B43D31A45
S1131CC034000D005EE7002E00D05FE700250024FD
S1131CD0ABE7002B44D0C0430028F0D0FF2EE3D163
S1131CE01300FF240D0022E70D00FF24002330E73A
S1131CF0002C5DD1002B7DD0002A00D117E79B1862
S1131D005A0100D456E73E4A040013400FE7002C62
S1131D101ED1002B2FD1002A65D013000D0006E739
S1131D2001226DE7002C1FD1002B59D0C04300289D
S1131D300BD0FF2E4FD01B285EDC1D002024C54095
S1131D40201A8340581E83412B439B18340058E7C4
S1131D50002B1CD1002A49D013000D00FF24E6E615
S1131D60130034000D00E2E6FF2E34D08024E40496
S1131D7040422343DFE7002A00D1D8E68027981A9F
S1131D80FF04074000D14DE7D31A0D00CFE6FF242E
S1131D90002A00D1CBE68020DB08C003034204D034
S1131DA0D208024201D113000D00DB00FF24BEE67D
S1131DB0002B10D0FF24002A00D1B8E68020DB08D5
S1131DC0C003034203D0D208024200D11300DB0057
S1131DD00D00FF24ABE61300FF24A8E601236EE701
S1131DE013003400A3E6002700251EE78027002502
S1131DF0FF03E9E613009AE60123A6E7FFFFFF7D50
S1131E00FFFFFFFB4302590A4300C20F1B0E0020D1
S1131E107E2B0EDD9D2B0DDC802000040143952BD1
S1131E200BDC9620C31AD9400B005842002A00D17B
S1131E3018007047034BD018FBE7963B99400B0002
S1131E40F3E7C046FFFFFF7F70B5002830D0C3170B
S1131E50C5185D40C40F280000F006FF9E231B1A1E
S1131E60962B0DDC9622D21A95406A02520AD8B2F9
S1131E705202C005520AE40702432243100070BD17
S1131E80992B19DC9922D21A9540124A2A406907E3
S1131E9004D00F210D40042D00D00432510103D58C
S1131EA00C4B1A409F231B1A9201520AD8B2DFE747
S1131EB0002400200022DBE705222E00121AB9219B
S1131EC0D6402A00C91A8A40551EAA413500154336
S1131ED0DBE7C046FFFFFFFBF8B556465F464D46BD
S1131EE04446F0B40F00FD0FAA4609037C002E00FF
S1131EF05F00450F490A7F0D2943C5001803BC46FE
S1131F00400A570F640DDB0F3843D2009A4500D1C5
S1131F10AAE06646A61B002E00DCFFE06346002B09
S1131F2039D10300134300D0D9E06B0709D00F2344
S1131F302B40042B05D02B1DAB42AD416D424919FA
S1131F401D000B0200D482E0CA4B01349C4200D134
S1131F50FEE00A005646C84BED081A4050076405D7
S1131F6052020543120B640D002112030B0D1B05D5
S1131F706405120B1A436308C04CF60714401C4353
S1131F80640064083443280021003CBC9046994610
S1131F90A246AB46F8BDB74B9C42C6D080231B0477
S1131FA01843382E00DDEBE01F2E00DD1EE1202358
S1131FB09B1B9C4603006746BB409846130047465C
S1131FC0F3403B436746BA40571EBA4113430200ED
S1131FD0F240EB1A9D42B6411D008A1A7642911BCB
S1131FE00B0231D54A02560A002E00D1B4E030006B
S1131FF000F03AFE0300083B1F2B00DDB5E0202271
S11320002900D21AD1409E400A009D4032439C428E
S113201000DDB1E01C1B631C1F2B00DDD5E020217B
S113202014002800C91A8C40D8408D400443DA407B
S1132030681E854111002543002476E7414631435B
S113204000D134E2310045466B0700D06FE75646B5
S11320504807ED08C9080543864B9C4235D00A035E
S11320606405120B640D7FE76346E31A9B46002B5D
S113207000DC8BE06746002F3CD07E4FBC4200D191
S113208053E780273F0438435B46382B00DCF7E0F6
S11320900243501E82410020D2B253194218AB426F
S11320A089411D00494289180B02CDD5714B013479
S11320B09C4200D13DE101206F4A6B080A40284050
S11320C01843D507054351082FE72B000B4300D1D4
S11320D0CBE180231B030B431A03120B44E7013E9D
S11320E0002E6DD1AE1AB5429B41091A5B42C91A42
S11320F0350075E70700174300D116E701235B425B
S11321009C46E3445B46002B00D0E0E0AA18AA42B8
S11321109B4109185B4259181500C5E7002E75D17B
S1132120661C7605760D012E00DCF3E0AE1AB0468F
S11321304545BF410E1A7F42F61B370200D48FE09B
S1132140551BAA42B641411A76428E1B9A464BE76A
S113215056460022002507E7280000F085FD2030C0
S11321600300083B1F2B00DC49E72A002838824083
S113217000259C4200DC4DE73F49E41A1140D4E6B7
S11321800243501E8241D3B2002222E7002B00D02A
S1132190F3E0631C9C465B055B0D012B00DC9FE0B8
S11321A0344B9C4500D1C3E0AA180918AA428041C7
S11321B040424118CD075208154349086446B4E625
S11321C02C4B9C4200D0ECE6AFE611001F3CE140F2
S11321D00C00202B00D17FE04021CB1A9A401543FC
S11321E06A1E95410021254300242DE73300070092
S11321F0203BDF403B00202E70D04027BE1BB04068
S11322000243501E824113430022E2E6002C4FD0C9
S1132210184CA44500D1ABE0802424047642214329
S1132220382E00DDDFE01F2E00DD43E12027BC1B3C
S1132230A1460C004F46BC40A0462C004746F44043
S11322403C434F46BD406F1EBD41F1402C43151B1E
S1132250AA429241411A5242891A64469A46BFE6FA
S113226041464546314300D0BEE600260024002501
S1132270F2E6C046FF070000FFFF7FFFFFFF0F806D
S11322801F2B59DC2027FF1ABC46070063469F40DA
S11322905B46B9461700DF40B8464F4643461F43E6
S11322A063469A40531E9A415B463A43D840F4E64B
S11322B00C002C435CD0F643002E55D1551BAA428A
S11322C0A441411A6442091B9A46644688E6964F23
S11322D0BC4200D0D8E628E6002280E700208FE741
S11322E00B002B43002C00D0C2E0002B00D101E1F5
S11322F00300134300D118E6AB18AB42B6410918EA
S1132300764271180A0200D409E1884A1D0011407E
S113231064460AE6002C5BD10E002E4300D08AE00E
S11323200100114300D1C2E0010015009A46FCE50A
S11323306446002100258FE620235B429C46DC4452
S113234063460700DF405B46BC46202B00D1ACE06F
S113235040235F46DB1B98400243501E8241634684
S113236013431A00002098E66F4CA44500D057E7A9
S11323700100150064469A46D7E5002C39D10C00BB
S11323802C436ED0DB43002B1AD0674CA44568D095
S1132390382B00DDA4E01F2B00DDAEE020240F006D
S11323A0E41AA740B9462F00DF40B846A3464F467B
S11323B0444627435C46A5406C1EA541D9403D4395
S11323C0AD1895429B4109185B42591864466BE667
S11323D00C002C4315D1010011437BD001001500E2
S11323E09A46514CA1E50D43691E8D410021ECB282
S11323F02DE74D4CA44534D0802424045B42214372
S1132400C6E7040014434ED0ED084C072C43802546
S1132410C9082D03294208D0C6082E4205D1D20886
S1132420410711430C009A463100620FC900E500D0
S113243011433D4C79E50600164300D175E5AE1A0B
S1132440B0464545BF410E1A7F42F61B370200D401
S1132450F4E5551BAA42B641411A7642891B9A46B5
S113246063E50100150064465FE5002200257BE575
S1132470002B3BD00300134315D0ED084B072B432F
S11324808025C9082D03294207D0C4082C4204D151
S113249041070B002100D2081343C9005A0F11430E
S11324A0DD00214C41E5204C3FE5002054E70026A7
S11324B00025D1E534000F00203CE7403C00202EED
S11324C02BD04027BE1BB1400D43691E8D41002116
S11324D02C43BCE6802100260903134C0025BBE5F0
S11324E00D43691E8D410021EDB269E7010015001D
S11324F00D4C1AE50100150017E51C000F00203CE7
S1132500E7403C00202B0CD04027FB1A99400D4398
S1132510691E8D410021254352E70021D4E71D00A7
S113252092E50021F3E7C046FF070000FFFF7FFFAD
S1132530F0B55F4656464D464446F0B40D03994601
S11325404E002B0B87B00700924680469B46760DC3
S1132550CC0F002E69D06D4B9E4235D05B46802255
S1132560DD001204430F13432B439B46C3009846DC
S1132570674B00279C460023664401934A46150393
S11325805000D20F53462D0B400D914600D176E0FA
S11325905E4A90426CD080225B0F120413435C4A63
S11325A0ED0094461D4353460022DB006044494637
S11325B03618701C6140029017430F2F00D9AFE00A
S11325C05448BF00C759BF465B461F4300D088E04C
S11325D000239B469846023308270193CEE74946D9
S11325E0022A6AD0032A00D109E2012A00D0BBE101
S11325F011400022002300259046CCB200212D0377
S11326000A0D12052D0B1543434A1B0515401D43A6
S11326106D00E4076D0825434046290007B03CBC23
S113262090469946A246AB46F0BD034352D05B4662
S1132630002B00D18AE1584600F016FB03000B3B47
S11326401C2B00DD7BE11D22D31A3A0001005D46FC
S1132650DA4008398D4013008F402B439B46B8461F
S11326602E4B00279C46002360444642019385E795
S113267052462A432CD100250023022297E75246D2
S11326802A4321D0002D00D154E1280000F0ECFAB7
S113269003000B3B1C2B00DD46E11D21CB1A5146E8
S11326A00200D9405346083A954093400D431B4AD3
S11326B0944660444042002279E7012400220C4001
S11326C0124B0025904699E70025002301226EE76E
S11326D003226CE700239B469846013304270193A9
S11326E04CE703230C27019348E7002380259846F1
S11326F000242D03054B81E75D464346019A6FE7AD
S11327005D4643462100019A6AE7C046FF07000080
S113271001FCFFFFB02D0000FFFF0F80F30300005A
S11327204246120C91461A0C9446424617044A46F5
S11327301B041B0C5A43604690464A464243100011
S1132740039262461C003F0C7A437C43424401924C
S1132750220C9246019A5244904506D98246802022
S113276040028046C24450460390100C04904846F0
S11327702404240C1204121905922A0C2D042D0C85
S113278068432C00824648467C4350438146200CD3
S11327908046574357444744BA4503D980204002F2
S11327A08046C144380C3F04B84648442404240CF1
S11327B001900498A044404404905846000C81467B
S11327C058460404200C8246070048465F434C46A2
S11327D04343604660436446834650464443380C52
S11327E08446E4186444A34203D980235B029C46D4
S11327F0E34448463F04230C3F0C2404E4195746A1
S113280068436F4384464D46504655434243380C13
S1132810814662444A445B44944503D98020400283
S11328208446654403983F04834604983F0C8446D9
S1132830E344C345804140428246100484460198E3
S1132840674484466744A344BC46A345A4419946CF
S1132850D44464428742BF41D4458041E144A04608
S113286099459B417F424042C8440743120CBA1821
S1132870A045A4415F423B0064422343D71843462A
S11328807D19DB0D6D021D435B465A02059B1A43FD
S1132890531E9A415B46DB0D1A4343465B021343C6
S11328A0EA0107D501225C0813402343EA07029E8C
S11328B013436D08574AB218002A4BDD580709D054
S11328C00F201840042805D0181D98429B415B42F4
S11328D0ED180300E80104D54F4A15408022D200C8
S11328E0B2184E48824200DDE7E60124DB0868079F
S11328F018436D02530580462D0B5B0D0C407DE69D
S1132900802259461203114208D0154206D11543BC
S11329102D0398462D0B4C46414B6FE65D461543FF
S11329202D032D0B3E4B69E603005546283B9D4085
S11329300023BCE6504600F097F92030A8E60300D7
S1132940283B9F400023BB46984689E600F08CF95B
S1132950203073E60124A61A382E07DD00220C402D
S113296000230025904649E6029EA3E71F2E20DCA3
S113297020222C001800921BF04094409340044302
S1132980581E83411C43F540630709D00F2323409D
S1132990042B05D023001C1D9C4292415242AD18C9
S11329A02B021FD5012400220C4001230025904650
S11329B024E61F202C004042821AD440202E1CD032
S11329C04022961BB5402B43581E834107202343C6
S11329D018400025002809D00F2200251A401C00A9
S11329E0042AD8D1230068076D022D0B0124DB08CB
S11329F0034398460C40002300E60025E3E78022C9
S1132A000124120315432D0398462D0B0C40044B4F
S1132A10F4E5C046FF030000FFFFFFFEFE070000D1
S1132A20FF07000070B5002830D0C317C4185C40FD
S1132A30C50F200000F018F9174B184A1B1AD21AB8
S1132A401F2A18DD164AD21A9440002224035B057B
S1132A50240B5B0D0021100024030A0D1205240B26
S1132A601443104A1B0514401C436400ED0764081A
S1132A702C43210070BD210091400A000B21081A4B
S1132A80C4405B052403240B5B0DE3E7002500230E
S1132A9000240022DEE7C0461E04000033040000C8
S1132AA013040000FFFF0F804200120E511C43026A
S1132AB0C9B270B55D0AC40F012915DDE021890092
S1132AC08C466D071B0B6244002128000D0D2D055B
S1132AD02B431C4D52052B40520813435B00E40763
S1132AE05B082343190070BD002A15D1002D1FD0A7
S1132AF0280000F0B9F80A281DDC0B232A001B1A51
S1132B00DA4013000200153295400F4A1B03121AD3
S1132B1052051B0B520DD7E7002D06D080221B0B4C
S1132B20120313436D07094ACEE7084A0023CBE793
S1132B3000220023C8E703000B3B9D402B00002527
S1132B40E3E7C046FFFF0F8089030000FF07000092
S1132B504B0070B55E0D0C03751C640A420F6D05C5
S1132B602243C90FC4006D0D012D2ADD3B4BF31820
S1132B70FE2B1ADC002B42DD8001451EA841D20049
S1132B801043620F0243500704D00F201040042862
S1132B9000D004328020C004104021D00133FF2B28
S1132BA003D09201520ADBB201E0FF230022520259
S1132BB0520ADB0513435B00C9075B080B4318008B
S1132BC070BD002E07D01443EFD08020D2008004C3
S1132BD00243FF23D7E722430023002A03D0052220
S1132BE0D208FF2B03D05202520ADBB2DFE7002ADD
S1132BF032D08020C00302435202520AD7E71800A1
S1132C00173014DB8020000402431E20C01A1F2842
S1132C100FDC2500124BF3189D406E1EB5419A40FF
S1132C202B0013432200C2401A430023ABE70023C6
S1132C30D5E702256D42EB1A1500DD40202809D0A6
S1132C40084BF3189A401443621E94412200002357
S1132C502A4398E70022F6E70022A8E780FCFFFF5A
S1132C6082FCFFFFA2FCFFFF1C2101231B049842EE
S1132C7001D3000C10391B0A984201D3000A083909
S1132C801B09984201D30009043902A2105C4018C0
S1132C907047C04604030202010101010000000064
S1132CA0000000000E4B70B500251E000D4CE41A08
S1132CB0A410A54204D0AB00F35898470135F8E7B7
S1132CC000F096F8084B00251E00084CE41AA410E6
S1132CD0A54204D0AB00F35898470135F8E770BD1E
S1132CE0FC2D0000FC2D0000FC2D0000002E000037
S1132CF08E160000B2150000701600004816000081
S1132D00701600003C160000701600004816000003
S1132D10B2150000B21500003C1600004816000071
S1132D20F4160000F4160000F416000076160000F5
S1132D30B2150000B21500005C1600004616000033
S1132D405C1600003C1600005C16000046160000ED
S1132D50B2150000B21500003C1600004616000033
S1132D60F4160000F4160000F4160000001700002A
S1132D70EC1900004A1900004A1900004819000023
S1132D80DE190000DE190000D41900004819000003
S1132D90DE190000D4190000DE19000048190000F3
S1132DA0E4190000E4190000E41900006E1A0000A0
S1132DB020270000E0250000E0250000DE250000BB
S1132DC0F8260000F8260000EA260000DE250000B0
S1132DD0F8260000EA260000F8260000DE250000A0
S1132DE00027000000270000002700000029000041
S1132DF0F8B5C046F8BC08BC9E467047CD0000003C
S1132E00F8B5C046F8BC08BC9E467047A500000053
S1132E10BC74133CDD050000002800420030004271
S1132E200100000003000000002C0042713D0A3F35
S9030109F2
