:10000000202000200901000005010000050100007A
:1000100000000000000000000000000000000000E0
:1000200000000000000000000000000005010000CA
:1000300000000000000000000501000005010000B4
:100040000501000005010000050100000501000098
:100050000501000005010000050100000501000088
:100060000501000005010000050100000501000078
:100070000501000005010000050100000501000068
:100080000501000005010000050100000501000058
:100090000501000005010000050100000501000048
:1000A0000501000010B5064C2378002B07D1054B45
:1000B000002B02D0044800E000BF0123237010BDD4
:1000C0000000002000000000F0020000084B10B506
:1000D000002B03D00749084800E000BF0748036829
:1000E000002B00D110BD064B002BFBD09847F9E741
:1000F0000000000004000020F0020000F0020000F8
:1001000000000000FEE7C04610B51D4B1D4A9A4294
:1001100003D01D4B1A4A9A4204D31C4B1C4A9A42E4
:1001200010D31EE01B4A184B03339B1A9B08013364
:100130009B000022124813498C58845004329A4282
:10014000FAD1EAE7144A114B03339B1A9B08013397
:100150009B0000220E4800211418216004329A42AC
:10016000FAD10E4AFF210E4B8B4393600D4A516822
:1001700080230B4353600C4B98470C4B9847FEE78A
:1001800000000020F00200000000002020000020FD
:1001900000000020040000200400002000ED00E02A
:1001A00000000000004000418502000049020000FC
:1001B000074A00231360FA239B00584313689842B0
:1001C00005DD13680133136013688342F9DB704760
:1001D0001C000020164BC222D2009A6015494A68C2
:1001E0001E2082434A601A6A40218A4340310A43F2
:1001F00011490A401A62196A02220A431A620F4B15
:1002000000221A725A729A72DA72996908320A4393
:100210009A6101220A4B1A7019000B781342FCD123
:10022000074B802252009A60064A5A607047C046C7
:100230000008004000400041FFFCFFFF00040040B8
:10024000000C004000060300F8B5094B98478022D7
:10025000D201084B1A60084F15001600074C3E608B
:100260006420A047064B1D606420A047F7E7C04606
:10027000D50100000844004114440041B1010000D0
:10028000184400410E4B70B500251E000D4CE41AB9
:10029000A410A54204D0AB00F35898470135F8E705
:1002A00000F016F8084B00251E00084CE41AA410B4
:1002B000A54204D0AB00F35898470135F8E770BD6C
:1002C000DC020000DC020000DC020000E0020000B2
:1002D000F8B5C046F8BC08BC9E467047CD0000008B
:1002E000F8B5C046F8BC08BC9E467047A5000000A3
:0400000300000109EF
:00000001FF
